:10000000800D0020152D000001680000CD2C00009F
:10001000CD2C0000CD2C0000CD2C000000000000F5
:10002000000000000000000000000000592900004E
:10003000CD2C000000000000012900009772000094
:10004000452A0000452A0000452A0000452A0000F4
:10005000452A0000452A0000452A0000452A0000E4
:10006000452A0000452A0000452A0000452A0000D4
:10007000452A0000452A0000452A0000452A0000C4
:10008000452A0000452A0000452A0000452A0000B4
:10009000452A0000452A0000452A0000452A0000A4
:1000A000452A0000452A0000452A0000452A000094
:1000B000452A0000452A0000452A0000452A000084
:1000C000452A0000452A0000452A0000452A000074
:0C00D000452A0000452A0000452A0000D7
:1000DC0053B94AB9002908BF00281CBF4FF0FF31A3
:1000EC004FF0FF3000F06CB9ADF1080C6DE904CEA7
:1000FC0000F006F8DDF804E0DDE9022304B07047F7
:10010C002DE9F047089E0D4604468E46002B40F024
:10011C0082808A42174646D9B2FA82F24AB1C2F1BB
:10012C00200105FA02F320FA01F1974041EA030E8F
:10013C0094404FEA1748230CBEFBF8FCB9B208FBFD
:10014C001CEE43EA0E430CFB01F098420AD9FB1853
:10015C000CF1FF3580F01681984240F21381ACF11E
:10016C00020C3B441B1AA4B2B3FBF8F008FB10338F
:10017C0044EA034400FB01F1A14209D93C1900F106
:10018C00FF3380F00181A14240F2FE8002383C44F2
:10019C00641A40EA0C4000211EB1D4400023C6E989
:1001AC000043BDE8F08702B9FFDEB2FA82F2002A02
:1001BC004FD1CB1B4FEA174E1FFA87F80121B3FB27
:1001CC00FEFC250C0EFB1C3345EA034508FB0CF327
:1001DC00AB4207D97D190CF1FF3002D2AB4200F2D1
:1001EC00E7808446ED1AA3B2B5FBFEF00EFB10556A
:1001FC0043EA054408FB00F8A04507D93C1900F177
:10020C00FF3302D2A04500F2D7801846A4EB0804B5
:10021C0040EA0C40C0E78B4208D9002E00F0AF80BA
:10022C000021C6E900050846BDE8F087B3FA83F162
:10023C0000294BD1AB4202D3824200F2B780841A20
:10024C0065EB030301209E46002EAAD0C6E9004EA2
:10025C00A7E7C2F1200C01FA02F3974020FA0CF048
:10026C004FEA174E21FA0CFC1843BCFBFEF1050CAF
:10027C000EFB11CC1FFA87F845EA0C4501FB08F37D
:10028C00AB4204FA02F409D97D1901F1FF3C80F06C
:10029C008B80AB4240F2888002393D44EB1A85B228
:1002AC00B3FBFEF00EFB103345EA034500FB08F3ED
:1002BC00AB4207D97D1900F1FF3C71D2AB426FD92B
:1002CC0002383D44EB1A40EA014178E7C1F1200CB9
:1002DC008B4022FA0CF71F4320FA0CF405FA01F3B9
:1002EC004FEA174E25FA0CF51C43230CB5FBFEF90F
:1002FC001FFA87F80EFB195543EA054509FB08FA66
:10030C00AA4502FA01F200FA01F308D97D1909F1A4
:10031C00FF3047D2AA4545D9A9F102093D44A5EBC6
:10032C000A05A4B2B5FBFEF00EFB105544EA0544D9
:10033C0000FB08F8A04507D93C1900F1FF352DD278
:10034C00A0452BD902383C4440EA0940A4EB0804F0
:10035C00A0FB02894C45C6464D4619D316D05EB15A
:10036C00B3EB0E0264EB050404FA0CFCCA404CEA35
:10037C000202CC40C6E900240021BDE8F0873146DA
:10038C0030460EE7AC46EDE6184601E74345E6D2AB
:10039C00B8EB020E69EB07050138E0E72846D3E716
:1003AC0060468FE78146BAE7614677E708464BE738
:1003BC00ACF1020C3D4415E702383C4426E700BF83
:1003CC00704700BF38B54A2933D019D828292AD00C
:1003DC0029292CD122EAE272D517E90341EA5241CC
:1003EC00D00340F2E7344FF47A72002300194FF037
:1003FC00000444EB0101FFF76BFE04F089FE16E0EC
:10040C004B2914D1002A4BD1304B186803691B6857
:10041C00002B3DDB0023002B3CD08368DB684FF0C6
:10042C000041984703E02120002104F071FE0120D7
:10043C0038BDB2B9254B186803691B6813F0804F9F
:10044C0007D100233BB18368DB684FF080419847AC
:10045C00EDE70123F6E783681B694FF0804198476D
:10046C00E5E71A4B186803691B6813F0804F07D136
:10047C0001233BB18368DB684FF080419847D6E796
:10048C000023F6E783681B694FF080419847CEE75D
:10049C000123C0E783681B694FF000419847C6E70A
:1004AC000A4B186803691B68002B07DB01233BB15F
:1004BC008368DB684FF000419847B8E70023F6E704
:1004CC0083681B694FF000419847B0E7D4010020C6
:1004DC0010B582B02D4B1868046983685B6801A95C
:1004EC009847034618B92168019A4A40019213B9FA
:1004FC00019BC3F3003333B9254B186809230373ED
:10050C0003685B689847214B1868046983685B68CB
:10051C0001A99847034618B92168019A4A400192EB
:10052C0013B9019BC3F380031A4A13601A4A126869
:10053C009A4205D1174B1A68174B1A6002B010BDBE
:10054C00124B1868046983685B6801A998470346D5
:10055C0018B92168019A4A40019213B9019BC3F35F
:10056C00C0030C4A12689A4207D0094B186808233A
:10057C00037303685B689847DCE7054B186809232D
:10058C00037303685B689847D4E700BFD40100206D
:10059C000C7B0000C8010020CC01002010B50B4CD6
:1005AC000B4B0C4A0C49204601F08AF9204605F009
:1005BC0091FE0021204605F094FE0849204605F0E6
:1005CC00B7FB0121204605F04FFC10BD6002002056
:1005DC00D10300002D07000064830000107B000095
:1005EC0010B590B0334803F0FBFF334C20604FF450
:1005FC0000721E2105F02EF820684FF400721F21A6
:10060C0005F028F820684FF48072022105F022F8DA
:10061C0020684FF48072032105F01CF820684FF419
:10062C0088720C2105F016F80221206805F037F8C5
:10063C00224B186005F04DF8FFF7B0FF00F08CFA74
:10064C001F4B1868036873B11B68984700221D493B
:10065C0002A807F0ADF821220023CDE9002302A85F
:10066C0004F07AFF0DE04C21174805F032F8144BDA
:10067C0018680B23037303685B689847134B0022BD
:10068C001A60FFF725FF114B1A68B2F57A7FEED28C
:10069C000F4BA3FB02135B094FF4FA7101FB1323FD
:1006AC00012BEED1064B18680A23037303685B68B1
:1006BC009847E6E7187A0000D4010020CC0100200E
:1006CC000C7B0000790B0000207A0000D801002080
:1006DC00D34D6210114908604FF040230122C3F83A
:1006EC004825C3F844154FF0A0414FF00050C1F815
:1006FC000C051A614FF04023D3F82031012BF9D1AE
:10070C004FF040230022C3F8202101225A614FF000
:10071C00A0434FF00052C3F808257047D0010020C9
:10072C0038B514461D46172909D020290BD00020B6
:10073C0038BD15F8010BFFF7CDFF013CE4B2002CDE
:10074C00F7D10120F4E7BAB9174B186803691B6895
:10075C0013F0804F08D1002343B18368DB684FF05E
:10076C00804198470120E3E70123F5E783681B6983
:10077C004FF080419847F5E70B4B186803691B68ED
:10078C0013F0804F08D1012343B18368DB684FF02D
:10079C00804198470120CBE70023F5E783681B696C
:1007AC004FF080419847F5E7D401002070B586B032
:1007BC00466803687BB10546836863B11E4A96425E
:1007CC0009D1984708280AD1AB68019300242C73EF
:1007DC00284698470EE0C821184804F07AFFD22129
:1007EC00164804F076FF06AA02EB840242F8143C89
:1007FC0028469847AB68B34206D00134042CF2DD8E
:10080C00DC210E4804F065FF019EAE6001232B73C2
:10081C0006AB03EB840353F8143C28469847013C81
:10082C00F6D503232B732846B0470828CCD06E602E
:10083C00AE6006B070BD00BF45570000307A0000B6
:10084C002DE9F04705460B68D1F808904B451CD0B4
:10085C000C46002202739847AE68B1457CD0002349
:10086C002B732846C847AB68B34215D02268934215
:10087C0018D06660D5F808804FF0000A85F80CA0F7
:10088C00636828469847012718E002230373C8477A
:10089C0000273846BDE8F08702232B732846C8474B
:1008AC000027F6E702232B732846C8474FF0FF3783
:1008BC00EFE7042E0DDC03204FF0010A70B97E1C0B
:1008CC00AB6844F826304B45F3D02846984737465A
:1008DC00F4E74FF4FF71214804F0FBFEBAF1000F6E
:1008EC00D7D1042F06DC02232B732846C8473B467E
:1008FC0004210AE04FF40271184804F0EAFE5F1E6E
:10090C0003214FF0FF33002B05DB54F82320424525
:10091C00F5D0013BF7E70329BBD0042612E00023F6
:10092C002B732846C04713E05F1E03264FF0FF339E
:10093C00002B05DB54F823204245F5D0013BF7E7AB
:10094C00032EA6D002232B732846C0470328E6D0DB
:10095C00D5F808803B46EDE700279AE7307A00008F
:10096C00F0B587B046681EB105468368B34205D022
:10097C004FF4C871364804F0ACFE58B9AC68284640
:10098C00A0470228F9D12F7B00232B732846A047C0
:10099C002F73F2E7072856D9AB680193029603949C
:1009AC0000E0AE68A6420AD002232B732846B0475B
:1009BC000328F6D100232B732846B047F1E701A991
:1009CC002846FFF73DFF044601232B7307E006ABD7
:1009DC0003EB840353F8143C28469847013C002C45
:1009EC00F5DA019EAE6003232B731CE0013406AADA
:1009FC0002EB840242F8143C28469847AB68B34299
:100A0C00F4D1019BAB60042C18DC01232B7306ABD7
:100A1C0003EB840353F8143C28469847013CF6D565
:100A2C00019E03232B732846B04708280BD1AB68D3
:100A3C00019300242C7328469847DFE74FF4CD71BF
:100A4C00034804F046FE6E60AE6007B0F0BD00BF18
:100A5C00307A0000024B0360024B436081607047A8
:100A6C00387A000045570000054A136801331360BB
:100A7C00044A934202D9024B00221A60704700BF0D
:100A8C00DC010020FF5B2605014B1860704700BF9E
:100A9C00DC01002010B504460548FFF7F5FF054BB7
:100AAC00636100232376044BE361A360082010BD2F
:100ABC0028FFF302C039F402DD0B0000037B022B8C
:100ACC0005D00A2B07D0104B836000207047436879
:100ADC00C3610320704700238376037E012B01D072
:100AEC0002207047094B1A680949A1FB023243697D
:100AFC00A1FB03139B09B3EB921F01D0022070479B
:100B0C00044B83600820704745570000DC0100202F
:100B1C00D34D6210610D0000037B032B03D0044BFB
:100B2C00836000207047034B83600820704700BF30
:100B3C001D0F0000C5140000037B032B03D0044BD6
:100B4C00836000207047034B83600820704700BF10
:100B5C001D0F0000F90F000008B502490248FFF70D
:100B6C0079FF08BDA10A0000E001002008B5FFF7DD
:100B7C007BFF024A13680133136008BDD8010020C3
:100B8C00F8B507460E4615460F4804F01AFE0E4CF3
:100B9C000E49204605F0CCF83B4610220021204699
:100BAC0000F0EAFE334624221421204600F0E4FE35
:100BBC002B4638220021204600F0DEFE204604F0B1
:100BCC000DFE0028E3D1F8BD60020020107B000070
:100BDC0070B582B0037B013B0A2B00F29780DFE8F3
:100BEC0003F0069595959595954A4E955200037E82
:100BFC00012B3BD04749484802F08CF9474B196808
:100C0C00474AA2FB0132520D464EA6FB0136B60BEB
:100C1C00454BA3FB013189094448A0FB0634640908
:100C2C00C4EB0413424CA4FB0254240904EB44040B
:100C3C00404DA0FB01C04009C0EB0010A1EB8000AF
:100C4C000090A6EB8303A2EBC4023B49284602F0BA
:100C5C0061F93A4C3A49204602F05CF922462946A1
:100C6C002D48FFF78DFF032002B070BD35492A488F
:100C7C0002F050F9C2E7344B83600820F4E7334BA1
:100C8C0083600820F0E7037E012B3AD021492248EB
:100C9C0002F040F9214B1968214AA2FB0132520D96
:100CAC00204EA6FB0136B60B1F4BA3FB0131890965
:100CBC001E48A0FB06346409C4EB04131C4CA4FBB3
:100CCC000254240904EB44041A4DA0FB01C0400952
:100CDC00C0EB0010A1EB80000090A6EB8303A2EB0D
:100CEC00C4021549284602F015F9144C1449204643
:100CFC0002F010F9224629460748FFF741FF03206E
:100D0C00B2E71049044802F005F9C3E7104B8360C1
:100D1C000020A9E74C7A000000020020DC01002032
:100D2C00B17C219573B2E745D34D621089888888D0
:100D3C00ABAAAAAA20020020587A00004002002088
:100D4C00687A0000407A0000250B0000450B00007B
:100D5C00C90A0000F8B5037B013B0A2B38D8DFE841
:100D6C0003F0061F23373737373727372B0000237D
:100D7C004376194F194C3946204602F0CBF8184DE2
:100D8C001849284602F0C6F8174E3946304602F08C
:100D9C00C1F8324629462046FFF7F2FE0320F8BD83
:100DAC00002303760320FAE7104B83600820F6E754
:100DBC00C36983600A20F2E7837E0133DBB283765A
:100DCC00102B01D00220EAE7094B83600820E6E7EC
:100DDC00084B83600020E2E7747A000000020020D8
:100DEC0020020020847A000040020020050E000042
:100DFC00DD0B000045570000F8B5037B012B05D037
:100E0C000B2B1CD0184B8360002017E0002343767B
:100E1C00164F174C3946204602F07CF8154D1649F2
:100E2C00284602F077F8154E3946304602F072F833
:100E3C00324629462046FFF7A3FE0320F8BD437E29
:100E4C000133DBB24376012B01D00220F6E7837E1F
:100E5C000133DBB283760E2B03D8094B8360082059
:100E6C00ECE70220EAE700BF610D0000747A000095
:100E7C000002002020020020847A000040020020A2
:100E8C00910E0000F8B5037B012B05D00B2B1CD069
:100E9C00184B8360002017E000234376164F174C45
:100EAC003946204602F036F8154D1649284602F010
:100EBC0031F8154E3946304602F02CF832462946A8
:100ECC002046FFF75DFE0320F8BD437E0133DBB205
:100EDC004376012B01D00220F6E7837E0133DBB28F
:100EEC0083760E2B03D8094B83600820ECE7022095
:100EFC00EAE700BF610D00008C7A000000020020C0
:100F0C0020020020A47A000040020020050E000000
:100F1C00F0B583B00446037B092B04D0244B8360CB
:100F2C00002003B0F0BD037E012B3CD021492248A8
:100F3C0001F0F0FF214B1968214AA2FB0132520D3E
:100F4C00204FA7FB0137BF0B1F4DA5FB01318D09AE
:100F5C001E49A1FB07035B09C3EB03131C48A0FB51
:100F6C000260000900EB40001A4EA1FB05C14909C3
:100F7C00C1EB0111A5EB81010091A7EB8303A2EB5F
:100F8C00C0021549304601F0C5FF144D14492846DE
:100F9C0001F0C0FF2A4631460748FFF7F1FD114B1F
:100FAC00A3600820BDE71049034801F0B3FFC1E777
:100FBC00C90A00004C7A000000020020DC0100206D
:100FCC00B17C219573B2E745D34D6210898888882E
:100FDC00ABAAAAAA20020020587A000040020020E6
:100FEC00B07A0000DD0B0000407A00002DE9F043E0
:100FFC0083B00446037B082B4ED0092B00F0A9804C
:10100C00012B03D0554B836000203DE04369544EC7
:10101C00A6FB0326760D534AA2FB0612120902EB1D
:10102C004202A6EBC206504FA7FB0327BF0B4F4D46
:10103C00A5FB07125209C2EB0212A7EB82074C4A1E
:10104C00A2FB03239B09A5FB03256D09C5EB051525
:10105C00A3EB8505037E012B19D04649464801F0C8
:10106C0059FF464C00953B4632464549204601F017
:10107C0051FF444D4449284601F04CFF2A46214675
:10108C003D48FFF77DFD032003B0BDE8F0833F49E9
:10109C00394801F03FFFE4E74169314BA3FB0123E1
:1010AC005B0D304AA2FB0302120902EB4202A3EBD6
:1010BC00C2022D4EA6FB0136B60B2C4BA3FB0650E1
:1010CC004009C0EB0010A6EB8006294FA7FB0117C7
:1010DC00BF09A3FB07135B09C3EB0313A7EB830740
:1010EC0001322B4B83FB0213D517C5EBA30505EB84
:1010FC004505A2EBC505237E012B25D01D491E48B5
:10110C0001F008FFDFF87480009733462A461C492B
:10111C00404601F0FFFEDFF86C901B49484601F099
:10112C00F9FE4EF6602303FB06F61A4B03FB05652E
:10113C004FF47A7303FB075565614A4641460E48E6
:10114C00FFF71EFD03209FE710490B4801F0E2FE5C
:10115C00D8E7114B8360082096E700BF450B0000D1
:10116C00B17C2195ABAAAAAA73B2E7458988888875
:10117C00D34D62104C7A00000002002020020020A7
:10118C00587A000040020020BC7A0000407A00002F
:10119C00ABAAAA2A80EE3600A91100002DE9F04373
:1011AC0083B00446037B082B4ED0092B00F0A9809A
:1011BC00012B03D0554B836000203DE04169544E18
:1011CC00A6FB0136760D534BA3FB06231B0903EB41
:1011DC004303A6EBC306504FA7FB0137BF0B4F4D84
:1011EC00A5FB07235B09C3EB0313A7EB83074C4B4E
:1011FC00A3FB01318909A5FB01356D09C5EB05156B
:10120C00A1EB8505037E012B19D04649464801F018
:10121C0081FE464C00953B4632464549204601F03E
:10122C0079FE444D4449284601F074FE2A46214675
:10123C003D48FFF7A5FC032003B0BDE8F0833F4910
:10124C00394801F067FEE4E74369314EA6FB0326FB
:10125C00760D304AA2FB0612120902EB4202A6EBF3
:10126C00C2062D49A1FB0321890B2C4DA5FB0102C4
:10127C005209C2EB0212A1EB8202294FA7FB031306
:10128C009B09A5FB03177F09C7EB0717A3EB870780
:10129C00013285FB02351544D317C3EB6515C5EB3D
:1012AC000515A2EB8505237E012B25D01D491E4873
:1012BC0001F030FEDFF8748000972B4632461C4953
:1012CC00404601F027FEDFF86C901B49484601F0C0
:1012DC0021FE4EF6602303FB05F5194B03FB065666
:1012EC004FF47A7505FB076767614A4641460E481D
:1012FC00FFF746FC03209FE710490B4801F00AFE5C
:10130C00D8E7104B8360082096E700BF450B000020
:10131C00B17C2195ABAAAAAA73B2E74589888888C3
:10132C00D34D62104C7A00000002002020020020F5
:10133C00587A000040020020C87A0000407A000071
:10134C0080EE360055130000F0B583B00446037BE5
:10135C00012B05D0082B48D0484B836000203DE082
:10136C004169474EA6FB0136760D464BA3FB06237F
:10137C001B0903EB4303A6EBC306434FA7FB013743
:10138C00BF0B424DA5FB07235B09C3EB0313A7EB74
:10139C0083073F4BA3FB01318909A5FB01356D097F
:1013AC00C5EB0515A1EB8505037E012B18D039493A
:1013BC00394801F0AFFD394C00953B46324638496F
:1013CC00204601F0A7FD374D3749284601F0A2FD14
:1013DC002A4621463048FFF7D3FB032003B0F0BD6B
:1013EC0032492D4801F096FDE5E74169244EA6FBF4
:1013FC000136760D234BA3FB06231B0903EB43039A
:10140C00A6EBC306204FA7FB0137BF0B1F4DA5FB57
:10141C0007235B09C3EB0313A7EB83071C4BA3FB4D
:10142C0001318909A5FB01356D09C5EB0515A1EB4A
:10143C008505037E012B19D0012303761C49164820
:10144C0001F068FD154C00953B4632461449204688
:10145C0001F060FD134D1449284601F05BFD2A464E
:10146C0021460D48FFF78CFB0320B7E711490A48CA
:10147C0001F050FD00232376E4E700BF450B00008C
:10148C00B17C2195ABAAAAAA73B2E7458988888852
:10149C00D34D62104C7A0000000200202002002084
:1014AC00587A000040020020D47A0000407A0000F4
:1014BC00EC7A0000E07A00002DE9F04182B004469D
:1014CC00037B082B4DD0092B00F0A980012B03D0F6
:1014DC007C4B836000203CE0037E012B3CD07A499E
:1014EC007A4801F017FD7A4B1C687A4AA2FB043249
:1014FC00520D794EA6FB0436B60B7849A1FB043489
:10150C00A4097749A1FB06304009C0EB00137548CC
:10151C00A0FB0250000900EB4000734DA1FB0471CD
:10152C004909C1EB0111A4EB81010091A6EB8303E6
:10153C00A2EBC0026D49284601F0ECFC6C4C6D49E5
:10154C00204601F0E7FC224629466048FFF718FBCD
:10155C00032002B0BDE8F08167495C4801F0DAFC79
:10156C00C1E75B4B19685B4BA3FB01235B0D5D4A29
:10157C00A2FB0302120902EB4202A3EBC202564E7B
:10158C00A6FB0136B60B564BA3FB06504009C0EB2D
:10159C000010A6EB8006514FA7FB0117BF09A3FB58
:1015AC0007135B09C3EB0313A7EB83070132534B00
:1015BC0083FB0213D517C5EBA30505EB4505A2EB81
:1015CC00C505237E012B25D03F49404801F0A2FCE4
:1015DC00454C009733462A464449204601F09AFC74
:1015EC00DFF80C814349404601F094FC4EF6602331
:1015FC0003FB06F6424B03FB05654FF47A7303FBC2
:10160C000755334B1D60424621463048FFF7B8FA68
:10161C0003209EE738492D4801F07CFCD8E72C4B81
:10162C001B682C4DA5FB03256D0D2E4AA2FB051244
:10163C00120902EB4202A5EBC2052749A1FB0321CB
:10164C00890B274EA6FB01025209C2EB0212A1EB39
:10165C0082022249A1FB03139B09A6FB03177F09F6
:10166C00C7EB0717A3EB8707013286FB0236B318CB
:10167C00D617C6EB6316C6EB0616A2EB8606237EC0
:10168C00012B1AD01049114801F044FCDFF85880A6
:10169C00009733462A461549404601F03BFC144D51
:1016AC001849284601F036FC2A4641460748FFF700
:1016BC0067FA154BA36008204BE70F49034801F06C
:1016CC0029FCE3E7250B00004C7A00000002002007
:1016DC00DC010020B17C219573B2E745D34D62103B
:1016EC0089888888ABAAAAAA20020020587A000010
:1016FC0040020020F47A0000407A0000ABAAAA2A2B
:10170C0080EE3600B07A0000191700002DE9F04188
:10171C0082B0037B012B05D0082B4ED0564B836037
:10172C00002042E0037E012B42D05449544801F082
:10173C00F1FB544B1968544AA2FB0132520D534E23
:10174C00A6FB0136B60B524BA3FB0131890951485C
:10175C00A0FB06346409C4EB04134F4CA4FB0254E5
:10176C00240904EB44044D4DA0FB01704009C0EB6F
:10177C000010A1EB80000090A6EB8303A2EBC40247
:10178C004749284601F0C6FB464C4749204601F024
:10179C00C1FB3B4E224629463046FFF7F1F9224663
:1017AC0029463046FFF7ECF9032002B0BDE8F08182
:1017BC003E49334801F0AEFBBBE7324B1B68324D60
:1017CC00A5FB03256D0D344AA2FB0512120902EB91
:1017DC004202A5EBC2052D49A1FB0321890B2D4C1F
:1017EC00A4FB01625209C2EB0212A1EB8202284E49
:1017FC00A6FB03139B09A4FB03167609C6EB06167E
:10180C00A3EB8606013284FB02341444D317C3EBDA
:10181C006414C4EB0414A2EB8404037E012B25D0C6
:10182C001649174801F076FB1C4F009623462A46B2
:10183C001B49384601F06EFBDFF868801A494046B8
:10184C0001F068FB4EF6602303FB04F4184B03FB1A
:10185C0005454FF47A7404FB06560A4B1E6042464B
:10186C0039460748FFF78CF903209EE70F490448D7
:10187C0001F050FBD8E700BF250B00004C7A0000AC
:10188C0000020020DC010020B17C219573B2E745F9
:10189C00D34D621089888888ABAAAAAA200200209E
:1018AC00587A000040020020007B0000407A0000C3
:1018BC0080EE36000123037000487047F4020020CC
:1018CC0030B585B004460D4600931346084A0949C5
:1018DC0004F01CFD0DF10F00FFF7ECFF0146009525
:1018EC00054B9DF80F20204604F0D4FB05B030BD0D
:1018FC00EB610000651A0000DD5E00002DE9F0418F
:10190C0004460F4616461D4604F0EFFB4FF0000848
:10191C0004E00744BFB240441FFA80F8636829789A
:10192C00204698474FF6FF72904222D001354FF671
:10193C00FE729042F2D0034632463946204604F0FD
:10194C00A3F994F87030032BE5D801A252F823F0D8
:10195C001F1900006D19000073190000791900009F
:10196C000644B6B2D7E73F1ABFB2D4E7361AB6B2BE
:10197C00D1E74046BDE8F08110B5024C4460FFF75A
:10198C00BDFF10BDE1600000014BC365704700BF97
:10199C003B5800002DE9F041054614460E2947D06E
:1019AC001E460F2904D00B2937D00020BDE8F0814A
:1019BC0004F0CEFB7179C900CBB295F82210194412
:1019CC005FFA81F8C1F3031141F01001284604F0CD
:1019DC00AAFB08F00F01284604F0A5FBB17941F0F1
:1019EC00B001284604F09FFB3779FF00FFB2366840
:1019FC0007EB0803842B02D9C8F18407FFB23246E7
:101A0C003946284604F09DFB621E12F0FF04F6D105
:101A1C00284604F0A4FB0120C8E722B90C4904F0C5
:101A2C00A5FB0120C2E70B4904F0A0FB0120BDE798
:101A3C0004F08EFB8121284604F075FBA108284692
:101A4C0004F078FB284604F08AFB0120AEE700BFC7
:101A5C00708300007883000070B506460C4615466E
:101A6C00FFF798FF48BB0A2C09D00D2C10D0092C7D
:101A7C0024D11349304604F0E1FB01201EE030462E
:101A8C0004F0E1FB0F49304604F070FB012015E037
:101A9C004DB90D49304604F069FB33689B7C86F8E0
:101AAC00223001200AE00949304604F05FFB33681C
:101ABC00DB7C86F82230012000E0012070BD00BFE5
:101ACC00B4830000908300008083000088830000B2
:101ADC0000230360074A8260C2600261426180F8A1
:101AEC00233080F826308361FF2380F8243080F87F
:101AFC00283070471563000008B50B6801330B6084
:101B0C00014B1B68984708BD00000020014B186072
:101B1C00704700BF0000002000B583B002460B46A2
:101B2C000021019101A9034800F0C8F803B05DF849
:101B3C0004FB00BF051B000010B584B004460190E7
:101B4C0002910021039101A9054800F0B7F8039B0D
:101B5C00029A934201DA0022E254039804B010BDB9
:101B6C00856300002DE9F04383B004460846154612
:101B7C00238B13F0080F05D103F007060023009305
:101B8C00019369E0012909D043F02003238385F3F5
:101B9C001188BFF36F8F03B0BDE8F08343F01003DF
:101BAC002383F4E7204604F042FC57E0D4F8149069
:101BBC004A466946204604F053FC00275AE0236944
:101BCC001F680621204604F00BFC4FF0000951E081
:101BDC0023695F680421204604F002FC4FF00009E1
:101BEC0048E023699F680521204604F0F9FB4FF07B
:101BFC0000093FE0002246E0002244E043F00803E5
:101C0C00238385F31188BFF36F8F002944D1009B88
:101C1C002BB14B4642466946204604F097FC17B15F
:101C2C0025492046B8474FF02003EFF3118583F385
:101C3C001288BFF36F8F238B23F008032383238B2E
:101C4C0013F0100F2ED023F0100323830120268BCA
:101C5C0006F0070600289AD00228A3D0002896D0B8
:101C6C000128A3D00328AAD00428B1D00528B8D0C5
:101C7C000027B946238B03F00708B045BAD0A268F9
:101C8C00002AB9D001221146002AB7D1009A002AA5
:101C9C00B4D1002FB2D1D2E74A464146204604F0D7
:101CAC00A7FBB4E713F0200F04D023F02003238309
:101CBC000220CCE70020CAE7876500002DE9F04F31
:101CCC0093B006460D469246039300249AF8000002
:101CDC00002800F0D684252808D00AF1010A2946EC
:101CEC00B0470028C0F2CE840134EFE700230693FE
:101CFC0007930B93089309930A930AF101089AF836
:101D0C000130252B01D001272CE00AF102088DF8B7
:101D1C002330A8E19DF8203043F004038DF82030E7
:101D2C00FFB108F101081CE09DF8203043F00803D6
:101D3C008DF82030F4E79DF8203043F010038DF837
:101D4C002030EDE79DF8203043F020038DF8203053
:101D5C00E6E79DF8203043F040038DF82030DFE7B4
:101D6C0000274FB398F80030203B102BF8D801A275
:101D7C0052F823F0431D00006D1D00006D1D000086
:101D8C00511D00006D1D00006D1D00006D1D00003B
:101D9C006D1D00006D1D00006D1D00006D1D00000F
:101DAC00351D00006D1D0000211D00006D1D000083
:101DBC006D1D00005F1D00009DF8203003F04403F2
:101DCC00442B6DD0CDF814809DF8203043F0800367
:101DDC008DF8203098F800302A2B68D005A804F034
:101DEC005CFC059B984512D09DF8203043F0800395
:101DFC008DF820300990C3F34003002860DB0022EB
:101E0C0013439DF8202063F341028DF82020059B9D
:101E1C0005931B782E2B14BF002301239DF8212042
:101E2C0063F341028DF82120002B4BD0059B5A1CEB
:101E3C0005925B782A2B48D005A804F02EFC0A905A
:101E4C009DF82030C3F34003002847DB00221343E6
:101E5C009DF8202063F341028DF82020DDF81480DA
:101E6C0098F800304C3B2E2B00F2DC80DFE803F0BE
:101E7C00CADADADADADADADADADADADADADADADAC6
:101E8C00DADADADADADADADADADADADA38DA6ADAB8
:101E9C0051DADADADADADADAC0DADADADADAB60037
:101EAC009DF820306FF386138DF820308AE79DF86B
:101EBC00213043F001038DF8213043460133A7E76D
:101ECC0001229DE7DDF81480CAE79DF8213043F02C
:101EDC0004038DF8213002F10108C1E70122B6E7B5
:101EEC0008F1010298F80130682B08D09DF82130D8
:101EFC00022161F3C6038DF8213090462BE09DF84A
:101F0C002130012262F3C6038DF8213008F102085A
:101F1C0021E008F1010298F801306C2B08D09DF8F3
:101F2C002130032161F3C6038DF82130904612E075
:101F3C009DF82130042262F3C6038DF8213008F19C
:101F4C00020808E09DF82130052262F3C6038DF8E3
:101F5C00213008F1010818F8013B8DF82330A3F16A
:101F6C004102372A00F25081DFE812F026014E01BF
:101F7C004E014E012601260126014E014E014E0155
:101F8C004E014E014E014E014E014E014E014E01CD
:101F9C004E014E014E014E014E0113014E014E01F8
:101FAC004E014E014E014E014E014E0126014E01D5
:101FBC00130163002601260126014E0163004E0128
:101FCC004E014E014E012F0113013F014E014E01F6
:101FDC003F014E0113014E014E0113019DF82130BA
:101FEC00062262F3C6038DF8213008F10108B2E72E
:101FFC009DF82130072262F3C6038DF8213008F1D9
:10200C000108A8E79DF82130082262F3C6038DF879
:10201C00213008F101089DF8203043F002038DF8BF
:10202C00203098E79DF821306FF3C6038DF82130EE
:10203C0091E79DF82220012161F302028DF8222004
:10204C009DF8212002F07802402A00F0AA80632B30
:10205C0000F0AE809DF82030C3F34002174367F3C5
:10206C0041038DF820309DF8213013F0010F00F062
:10207C00DA80039B1A1D03921F68002FC0F2CB80DD
:10208C009DF8213013F0040F00F0DF80039B1A1D24
:10209C000392D3F800B0BBF1000FC0F2CD80002347
:1020AC0009930A939DF8223003F007039DF8211041
:1020BC00C1F3C301012B00F0D180022B00F016817B
:1020CC00042B00F06781032B00F07E819DF820909B
:1020DC0019F00303029340F07D819DF82330253BDA
:1020EC00532B00F23382DFE813F08101310231020D
:1020FC00310231023102310231023102310231023C
:10210C00310231023102310231023102310231022B
:10211C00310231023102310231023102310231021B
:10212C00310231023102310231023102310231020B
:10213C0031023102310231023102310231023102FB
:10214C0031023102310231023102310231023102EB
:10215C00C701310231023102310231023102310246
:10216C00310231023102A101AB01310231023102E3
:10217C003102AB0131023102310231020802C701D6
:10218C00EA01310231028F013102C7013102310201
:10219C00C7019DF82220022161F302028DF8222052
:1021AC004EE79DF8201041F001018DF820104EE70C
:1021BC00171E18BF01274DE79DF82230042262F349
:1021CC0002038DF82230012744E79DF822300322C8
:1021DC0062F302038DF822309DF8213003F078036E
:1021EC00402B7FF437AF012734E79DF822300322D0
:1021FC0062F302038DF822309DF8213013F0780F32
:10220C003FF428AF012725E79DF8203043F0010368
:10221C008DF820301EE79DF8203043F004038DF834
:10222C0020307F422CE79DF92030002B02DB4FF051
:10223C00FF3725E7099F23E79DF821306FF3410312
:10224C008DF821304FF0FF3B29E713F0020F02D03D
:10225C00DDF828B023E74FF0FF3B20E7CB1E042B23
:10226C0004D8DFE803F00B1D29353500039B1A1D3C
:10227C0003921A68D317CDE9062306E0039B1A1DB7
:10228C0003921A68D317CDE90623012928D0022915
:10229C007FF41CAFBDF91820D317CDE9062315E741
:1022AC00039B073323F0070303F108020392D3E9DE
:1022BC000023CDE90623E8E7039B073323F007034C
:1022CC0003F108020392D3E90023CDE90623DCE7EE
:1022DC00039B1A1D03921A68D317CDE90623D4E782
:1022EC009DF81830069300230793EFE6CB1E042BC2
:1022FC0004D8DFE803F00B1F35414100039B1A1D86
:10230C0003921B680693002307931EE09DF823306D
:10231C00632B07D0039B1A1D03921B6806930023A3
:10232C00079312E0039B1A1D03921B68069300236C
:10233C0007930AE0039B073323F0070303F108021A
:10234C000392D3E90023CDE9062301291CD00229ED
:10235C007FF4BCAEBDF81830069300230793B5E6A6
:10236C00039B073323F0070303F108020392D3E91D
:10237C000023CDE90623E8E7039B1A1D03921B6893
:10238C00069300230793E0E79DF81830069300238B
:10239C0007939BE608290BD0039B073323F0070315
:1023AC0003F108020392D3E90023CDE906238DE65D
:1023BC00039B073323F0070303F108020392D3E9CD
:1023CC000023CDE9062381E6039B1A1D03921B68AB
:1023DC0006937BE6434652462946304604F0DAF92A
:1023EC000028C0F24F810444C2466FE429462520E0
:1023FC00B0470028C0F246810134DDF808900DF199
:10240C00460B4FF0000AA7E0DDF818A0BBF1000F57
:10241C0008DB5946504604F0B1FA0AEB000BDDF824
:10242C00089099E0504604F0A1FAF6E7069B8DF867
:10243C003030DDF808900DF1310B0DF1300A8BE0E6
:10244C0019F0080F05D119F0100904D04FF020092C
:10245C0001E04FF02B09DDE90623002A73F100019E
:10246C0002DBCDE9062309E0524263EB4303CDE9DD
:10247C0006234FF02D0901E0DDF808900DF146031D
:10248C0000930CAB08AADDE9060104F019F98246A9
:10249C00BBF1000FC0F290800DF14603A3EB0A03D1
:1024AC009DF820206FF386128DF820209B4540F27A
:1024BC008680ABEB030309930DF1460B4CE00698B9
:1024CC0030B9DDF80890DFF8C4B1ABF1050A43E090
:1024DC000DF1460300930CAB08AA002104F0F0F8B0
:1024EC0082469DF8223043F010038DF82230782379
:1024FC008DF82330DDF80890CAE7069A9DF8213054
:10250C00C3F3C303072B06D8DFE803F0040C0E104B
:10251C0012171C1E1460DDF808900DF1460B4FF0DD
:10252C00000A19E01470F6E71480F4E71460F2E77F
:10253C002046E117C2E90001EDE72046E117C2E9A8
:10254C000001E8E71460E6E71460E4E7DDF80890C2
:10255C000DF1460B4FF0000ABAF1000F00F08E801F
:10256C00ABEB0A02B9F1000F00D001329DF822103A
:10257C0011F0100F26D00232099B134411F0400FBA
:10258C0001D00A9A1344002F32DDFF1A9DF8203037
:10259C0013F0040F2CD113F0400F18D0B9F1000F29
:1025AC0018D029464846B04700286BDB0134DDF8CB
:1025BC000890302302930FE00DF1460BCCE70DF1A0
:1025CC00460BC9E711F0080FD6D00132D4E720230F
:1025DC00029301E0302302933B465F1E002B07DD84
:1025EC0029460298B04700284CDB01343B46F4E7FF
:1025FC00B9F1000F05D029464846B047002841DB09
:10260C0001349DF82230C3F30012C3F3C00313430B
:10261C0005D029463020B047002833DB01349DF823
:10262C00223013F0100F06D029469DF82300B04736
:10263C00002827DB0134099B03F1FF39002B07DD50
:10264C0029463020B04700281CDB01344B46F3E709
:10265C005B4652462946304604F09CF8002811DBB4
:10266C000444002F07DD29462020B047002809DB51
:10267C000134013FF5E7C246FFF728BBC246FFF71E
:10268C0025BB204613B0BDE8F08F00BFD1830000FE
:10269C001B4B1B68002B32D130B585B0184B012277
:1026AC001A60184B93E8070004AB03E90700164BBC
:1026BC0063B104F0DBF94FF02003EFF3118583F3E2
:1026CC001288BFF36F8F114B1C680AE0002383F351
:1026DC001188BFF36F8FEEE723460CB1236843B12B
:1026EC001C4634B1A368002BF6D0064A10789847E4
:1026FC00F2E785F31188BFF36F8F05B030BD7047DB
:10270C00040000207C030020796A00007403002080
:10271C0070B588B006462A4C6D460146284604F032
:10272C0054F895E8070084E807002078002845D085
:10273C00244B00221A60B6F1FF3F0CD102F034FAA0
:10274C004FF02003EFF3118583F31288BFF36F8FE3
:10275C001D4B1C6816E0A368590CD8031B4C1C4A73
:10276C00002300194FF0000444EB0101FDF7B0FC0D
:10277C000121301A04F0E7FFE0E723460CB123688F
:10278C0043B11C4634B16368002BF6D00C4A107868
:10279C009847F2E785F31188BFF36F8F084B93E8E6
:1027AC00070008AB03E907000A4B0BB104F04BF927
:1027BC00FFF76EFF02F096FB014B187808B070BD66
:1027CC007C03002004000020740300203F420F0013
:1027DC0040420F00536A0000014910220A60704702
:1027EC0010ED00E072B6404080F31188BFF36F8F9C
:1027FC00BFF34F8F30BF62B6BFF36F8F704700BF10
:10280C0072B6494081F3118820BF80F3118862B6FB
:10281C00704700BF43B2002B08DB00F01F005B09C0
:10282C00012202FA00F0024A42F82300704700BF6E
:10283C0000E100E04209054B53F8222000F01F0094
:10284C00012303FA00F01040704700BF00E100E0E4
:10285C00013143B2002B08DB4901C9B203F16043DB
:10286C0003F5614383F80013704700F00F00490132
:10287C00C9B2014B1954704714ED00E030BFFFF79B
:10288C00FDBF00BF08B50B4B0B4A22F07F029A60CC
:10289C00BFF34F8FBFF36F8FD3F8882022F47002F1
:1028AC00C3F8882001F074FF02F08CFC00F012FADF
:1028BC0001F07AFF00ED00E0000000000A4A936886
:1028CC00C3F8A80009490968C3F8AC1008494B685B
:1028DC0043F080534B60002383F31188BFF36F8F59
:1028EC009368D3F8AC0070473C090020E8840000E2
:1028FC0000ED00E013498A684FF030001044EFF30C
:10290C00098C80E8F01F202080F31288BFF36F8FB2
:10291C000D4F4FF00066CA698A603E60D2F8A8007D
:10292C000023C2F8A83080F3118804B5104600F0DB
:10293C0073FABDE8044002F1300090E8F01F8CF30C
:10294C00098870473C09002004ED00E01EF0040FDC
:10295C000CBFEFF30880EFF30980816911F8021CBA
:10296C000229FFD001B503F039FF01BD10B4A2F16B
:10297C0020040D4921F0010142F8081C42F8203CCA
:10298C00019B42F81C3C029B42F8183C039B42F80A
:10299C00143C4FF0807342F8043C04650023C0F8EB
:1029AC00A83010BC704700BF93660000164B9A68A5
:1029BC00DAB110F1160F1AD010B4D2F89830A3F186
:1029CC002004844205D8834208D98B4208D80021C0
:1029DC0000E0002131B9002010BC70470021F9E75C
:1029EC000121F7E7D2F89800F6E700207047D2F8FB
:1029FC0098308B4294BF0021012109B90020704707
:102A0C00D2F89800704700BF3C09002008B50D466D
:102A1C001446084B986000F0FFF9204685F30988AE
:102A2C00002163B681F31188BFF36F8F002200235E
:102A3C0003F029FE3C09002001B572B60B4A9069DF
:102A4C0000281EBF0021916104F009FD62B6EFF36E
:102A5C000580A0F110004FEAC0000549014409C9E6
:102A6C009847BDE801400349084700003C09002095
:102A7C007C780000852A0000044B9968D86988424C
:102A8C0003D003494FF080520A6070473C09002084
:102A9C0004ED00E010B51446124B9A6A9A6A9B6AD0
:102AAC0013F4007F0BD00F4B9A6B9B6A13F4004FFF
:102ABC0005D021B10B4A936A23F400439362094B6E
:102ACC009A6A9B6A13F4807F01D1064B9B6A054A74
:102ADC00936A43F47F439362012103F091FE2070CB
:102AEC00002010BD00ED00E0074B9A6A9A6A9A6AC2
:102AFC009A6A9A6A9A6A9A6A6FEA02426FEA124270
:102B0C009A620020704700BF00ED00E070B50546EA
:102B1C001646204B9A6A9A6A9B6A13F0020F0CD0E5
:102B2C001C4B586B9B6A13F0800F25D039B1194A96
:102B3C00936A23F08003936201E06FF01500154B4C
:102B4C009A6A9A6A9B6A13F0100F04D1114B9C6A13
:102B5C0014F0020404D00F4B5C6814F400640ED122
:102B6C000C4A936A43F0FF0393620121284603F059
:102B7C0047FE3070204670BD6FF01500DFE7294628
:102B8C00FFF714FF04460028EAD080F309880224DA
:102B9C00E6E700BF00ED00E010B5044600230B7023
:102BAC001B4BD86A10F002002DD1DB6A002B2BDBFB
:102BBC00174BDB6A13F0804327D0A36933F8022C40
:102BCC004DF602739A4210D003F1604303F626636C
:102BDC001B7863B90F4B1B787BB90F4B1B889BB2CF
:102BEC0093B12046FFF780FF0EE020680CE00A4608
:102BFC0001212046FFF78AFF06E00A460121204604
:102C0C00FFF748FF00E0002010BD1846FCE700BFAE
:102C1C0000ED00E029ED00E02AED00E070B58AB08F
:102C2C000C46224B5968C1F30801002383F3118829
:102C3C00BFF36F8F02F07F43B3F17F4F15D102F0DA
:102C4C000C03082B14D012F0080F0BD000260DF13A
:102C5C002702204603F0D9FD05469DF8273053B1D5
:102C6C000AB070BD04460126F1E700263446EEE7B3
:102C7C0000263446EBE72022214601A803F092FE01
:102C8C004EB1089BC3F308025AB96FEA53236FEA9B
:102C9C004323089305E0089B23F4FF7323F00103FF
:102CAC00089301A9284603F095FDD9E700ED00E053
:102CBC00024A536943F010035361704700ED00E082
:102CCC00EFF30880EFF3098101B57246FFF7A6FF19
:102CDC0001BD00BF002206E002F00F01094B0B44BE
:102CEC00202119760132262A0ADC53B2002BF3DBA1
:102CFC0003F1604303F56143202183F80013F1E7EE
:102D0C00704700BFFCEC00E0002080F31488BFF398
:102D1C006F8F04F05BFD00200D490860BFF34F8FEF
:102D2C000C4880F3088800F029F8202080F31188E3
:102D3C0009484FF40261401880F30988EFF31480BE
:102D4C000221084380F31488BFF36F8FFFF79AFDBD
:102D5C0094ED00E0800D0020000F0020064B186859
:102D6C00C0F307200023834205DA034A9360002155
:102D7C0011610133F7E7704790ED00E010B572B6C2
:102D8C00002484F31388FFF7E9FF234608E003F1DE
:102D9C0020010E4A4FF0FF3042F821000133DBB224
:102DAC00072BF4D9002308E003F16001074A4FF028
:102DBC00FF3042F821000133DBB2072BF4D962B6A5
:102DCC00BFF34F8FBFF36F8F10BD00BF00E100E06A
:102DDC0008B5084B9B68834202D002F0CBF908BDC2
:102DEC00EFF30583002BF8D0034A536843F080536C
:102DFC005360F2E73C09002000ED00E008B5034BFE
:102E0C00034A0121034803F086FD08BD00000120A0
:102E1C0000000020D483000008B5D0F89830203B87
:102E2C000448036020234360034B8360012103F0BB
:102E3C0076FD08BD8803002000000B15064A906043
:102E4C000B6823F01F03034343F01003D3608B681C
:102E5C0043F001031361704790ED00E010B5034C93
:102E6C000123227803F02FFD207010BD780900207B
:102E7C0008B50023084A127803F025FD10F1160F4F
:102E8C0008D00346072B05DC044A9360002111612E
:102E9C000133F7E708BD00BF7809002090ED00E092
:102EAC00034B05225A60BFF34F8FBFF36F8F7047F0
:102EBC0090ED00E0BFF35F8F014B00225A6070472A
:102ECC0090ED00E038B50E4B1D68082D15D8FFF7B6
:102EDC00F1FF0024A5420AD9094B596804EB4402BE
:102EEC00930019442046FFF7A9FF0134F2E7054B84
:102EFC001D70FFF7D5FF002038BD4FF0FF30FBE70A
:102F0C00F083000078090020014B1860704700BF67
:102F1C00080000200EB400B584B005AB53F8042BA8
:102F2C0001906FF000410291039301A90548FEF74F
:102F3C00C5FE019B00221A7004B05DF804EB03B0CF
:102F4C00704700BF396A00004FF02002EFF3118385
:102F5C0082F31288BFF36F8F044A0121C2F8401527
:102F6C0083F31188BFF36F8F0020704700E001409E
:102F7C00C0B24FF08043C3F81C05BFF34F8F054917
:102F8C00CA6802F4E062044B1343CB60BFF34F8F6B
:102F9C0000BFFDE700ED00E00400FA0530B108B514
:102FAC008001034B43F00103984708BD704700BFF5
:102FBC00107A000000487047E4030020034BC01A4D
:102FCC008010034B03FB00F0704700BFA4030020EC
:102FDC00B76DDBB638B505460C46FFF7EFFF01467B
:102FEC004022034803F0C4FD01462846A04738BDE3
:102FFC001C78000030B583B005460C46FFF7DEFFA9
:10300C000146402300932346054A064803F0CAFDB7
:10301C00011E01DB03B030BD2846A047FAE700BF14
:10302C00F96B00001C78000008B510B101280DD018
:10303C0008BD0021084803F024FD836813F0070F36
:10304C00F6D10021044803F081FDF1E7012102488B
:10305C0003F07CFDECE700BF1C78000010B54FF0CE
:10306C002003EFF3118483F31288BFF36F8F134A9D
:10307C00136843F00203136013F0010F08D100230F
:10308C0084F31188BFF36F8F9BB903F0B7FD10BDAC
:10309C004FF08043D3F80C24D3F80C3412F0010F0A
:1030AC0001D10023ECE7FFF785FF03F03CFD012382
:1030BC00E6E70021024803F049FDE8E7F4030020AD
:1030CC001C78000008B50A4BBFF35B8F53E8002F48
:1030DC0022F0020143E800100028F7D1BFF35B8F08
:1030EC0012F0010F00D008BD03F08DFDFBE700BF0F
:1030FC00F403002000B585B0CDF800D0CDF804D095
:10310C0000230293012303936B46074A03F066FDE9
:10311C00002805DB4FF480420023684601F09CFC3C
:10312C0005B05DF804FB00BF276C000008B5074B29
:10313C001B781BB1002001F01FF808BD4FF4A570DF
:10314C0004F030FB014B01221A70F3E779090020DF
:10315C0070B50646002201211046FFF779FB0020CE
:10316C00FFF758FB114800F0F3FF114B98421AD1AE
:10317C0004F00DF9002403E00123AB601C44E4B21D
:10318C00012C0ED82146304603F07BFC0546214627
:10319C00304603F081FC074903F0FDF90028EBDA17
:1031AC0000E0002070BD6FF00400FBE7353000003C
:1031BC000000AD0B3C84000070B50546012807D11A
:1031CC004FF08043D3F81C3403F00303012B58D089
:1031DC0004F030F928B92E4B1B78002B41D000237A
:1031EC0000E001231C46002B3DD04FF02003EFF3F1
:1031FC00118683F31288BFF36F8F24B94FF080438D
:10320C000222C3F808234FF08042D2F8183403F09E
:10321C000303D2F8182412F4803F2BD100221AB1E8
:10322C00012B29D0012D27D0FCB13046FFF7E8FA4D
:10323C004FF08043D3F81835002BE4D1154B1B68A5
:10324C00002BE0D0134B00221A601B6801234FF0B7
:10325C008042C2F81835104AC2F880310F4A136008
:10326C00D1E70123BEE70026C7E72120002101F0AA
:10327C004FFFDDE70122D2E724B186F31188BFF3BB
:10328C006F8F70BD4FF080430222C3F80423F8E720
:10329C007B0900200401004000E100E00800004030
:1032AC0010B50446104B0121BFF35B8F53E8002F80
:1032BC0043E800100028F9D1BFF35B8F1AB1631EED
:1032CC00012B0CD910BD094803F0E6FB084900237B
:1032DC004B60CB6001238B6003F079F9EFE720465C
:1032EC00FFF76AFFEEE700BFF80300201C78000030
:1032FC009403002010B504460A2807D0074B186821
:10330C00E1B283685B689847204610BD034B186890
:10331C0083685B680D219847F0E700BFFC03002031
:10332C0010B5044C2046FFF7EFFD2046FEF7EEFBF0
:10333C0010BD00BF0133000008B50648064B1860ED
:10334C0004F03FF818B1FFF7EBFF002008BD6FF059
:10335C001200FBE734780000FC03002070B44368D3
:10336C005E68324B13403248834227D012D8062B6A
:10337C0026D004D9B3F5801F09D1012016E00BB378
:10338C00022B01D1042011E06FF015003FE06FF02B
:10339C0015003CE02748834216D0B3F5A00F01D1AD
:1033AC00032003E0B3F5800F3DD1022012F0100F83
:1033BC000CD112F0200F2CD0012408E00720F5E7E7
:1033CC000620F3E70020F1E70520EFE70324C2F322
:1033DC00402312F4807F0CBF0125002512F4007FDE
:1033EC0006D012F4006F16D001228A40C6F80825C8
:1033FC0001F01F0143EA450343EA840343EA002337
:10340C0001F5E0714FF0A04242F82130002070BC71
:10341C0070470024DBE712F4806FE9D001228A4068
:10342C00C6F80C25E4E76FF01500F0E70600F00095
:10343C00060010000200400070B582B0002301931A
:10344C0000932E4B1C680CB900210AE069462C48ED
:10345C0003F073FC0190294B00221A601B68F3E700
:10346C000131072926D801F140039B009AB20123B0
:10347C008B402448D0F804030342F1D002F180437E
:10348C0003F5C0431B68002BEAD001F5A2731D485D
:10349C0050F82300C0F30420012303FA00F0019B31
:1034AC000343019302F1804303F5C04300221A60E9
:1034BC001B68D5E7019E16B9DCB902B070BD124B82
:1034CC00596819B10D4649B10D6807E00D4605E084
:1034DC006DB12B4605B12B6829461D460029EBD052
:1034EC008A683240F4D04B6805489847F0E72B4681
:1034FC00F2E7034803F0EFFBDFE700BF7C6100401D
:10350C0064780000006000400004002010B5144BEB
:10351C00D3F80443E4B2002300E00133072B1DD899
:10352C0003F5A2720E4951F82220C2F304229042F4
:10353C00F3D124FA03F212F0010FEED00A4603F590
:10354C00A27051F8201021F0010142F82010012145
:10355C009940C2F80813D8B200F038FF10BD00BF74
:10356C000060004070B582B004460D460DF10700B6
:10357C0000F048FF1C4B984232D19DF8073003F104
:10358C0040029200194E03F5A27356F8231021F451
:10359C00473121F4407146F8231056F823102402C9
:1035AC0004F4F8542D0405F440352C430C4346F830
:1035BC00234002F1804303F5C043002018601B68D0
:1035CC009DF8071001F5A27356F8232042F0010272
:1035DC0046F8232001238B40C6F8043302B070BD9B
:1035EC006FF01200FAE700BF0000AD0B0060004066
:1035FC0008B50B4B1B780BB1002008BD084B012202
:10360C001A70002205210620FFF722F90620FFF789
:10361C0001F9044B4FF00042C3F80423ECE700BF60
:10362C007A0900200060004043681A68B1F5164F13
:10363C006FD03AD8B1F5165F6ED00AD9B1F5E14F1B
:10364C0075D024D947F6122399422BD14FF400039D
:10365C0013E0B1F5966F61D007D9B1F5166F63D051
:10366C00B1F5965F10D13C4B07E0B1F5967F58D081
:10367C00B1F5167F05D14FF41C33C2F82435002068
:10368C0070476FF0150070476FF015007047B1F57B
:10369C00615F4ED0B1F5964F01D1304BEDE76FF035
:1036AC00150070476FF015007047B1F5613F42D0BF
:1036BC0009D9B1F5612F46D01FD9294B994248D170
:1036CC004FF08053D9E7B1F5963F37D005D9B1F516
:1036DC00E13F0FD14FF0EB73CFE74DF6C02399428A
:1036EC002ED0B1F5614F02D14FF46B03C5E76FF0EB
:1036FC00150070476FF0150070471A4B994225D092
:10370C00B1F5E12F02D14FF0E863B6E76FF0150089
:10371C0070474FF41D03B0E7134BAEE74FF49E23F5
:10372C00ABE74FF4A033A8E74FF41D23A5E70F4BED
:10373C00A3E70F4BA1E74FF06C739EE70D4B9CE793
:10374C004FF4650399E74FF0706396E74FF0806391
:10375C0093E76FF01500704700B0130000A04E0007
:10376C0040420F0090D003000050270000C07500AD
:10377C0000F03A0000903A012DE9F04105460F4661
:10378C00D0F8108003F056FE20B9164B1B78ABB165
:10379C00002300E001239BB14FF02003EFF31184D1
:1037AC0083F31288BFF36F8F2646284603F051FC33
:1037BC0050B984F31188BFF36F8FEDE70123EAE76B
:1037CC00284603F095FC0646414601F8107F01227D
:1037DC00284603F058FC86F31188BFF36F8FBDE8C1
:1037EC00F08100BF7B09002038B504460D4601F17D
:1037FC00120000F055FE0C4B984211D1AB7C04F535
:10380C0090710C34094AA23342F8331002EBC30313
:10381C005C60A97C01238B40C2F80435002038BDC4
:10382C006FF00400FBE700BF0000AD0B00F001409F
:10383C0021F07F4100F5A870014B43F82010704730
:10384C000010014000F5A870014B53F820007047A0
:10385C00001001404FF480338340024AC2F84433D5
:10386C00704700BF001001404FF480338340024A80
:10387C00C2F84833704700BF00100140014BD3F829
:10388C00040570470010014010B501238340DC4350
:10389C00104ABFF35B8F52E8001F01EA040C42E8A8
:1038AC0000CEBEF1000FF6D1BFF35B8F4FF4803228
:1038BC0002FA00F002F1804202F58052C2F80803CD
:1038CC00BFF35F8FBFF36F8F0B4214BF012000203B
:1038DC0010BD00BF2004002070B5044603F0EAFCC4
:1038EC0005464FF48033A340174AD2F80423134201
:1038FC0005D10026284603F0E6FC304670BD0123B6
:10390C00A340DB43114ABFF35B8F52E8001F01EA6F
:10391C00030042E80006002EF7D1BFF35B8F59B9C4
:10392C0004F150039B009BB203F1804303F58833F1
:10393C001B6813B1012300E001231E46002BD9D0D4
:10394C00204603F0A8FCD5E7001001401C04002021
:10395C0001B9704701238340114ABFF35B8F52E8D2
:10396C00001F194342E8001CBCF1000FF7D1BFF354
:10397C005B8F4FF4803383400A4AC2F80433BFF3A1
:10398C005B8F094B1B68BFF35B8F23FA00F010F0C1
:10399C00010FDED0054B4FF40032C3F80021D8E7FD
:1039AC0020040020001001401C04002000E100E075
:1039BC00F8B5074614461E461046194603F077FC28
:1039CC000546154B1A68A01A1C605E60A5F500131D
:1039DC00B3F5400F08D3002401F000FD3846FFF783
:1039EC0031FFA8420CD0F8BD0C4B19680B0A0A0623
:1039FC00521943F100030A49C1E900230124EBE702
:103A0C001CB13846FFF726FFEDE74FF400013846AE
:103A1C00FFF70EFFF5E700BF58000020240400203C
:103A2C004000002038B50D4B1B681D0A1C06BFF367
:103A3C005F8FFFF723FF0346201845F10001B3F514
:103A4C00801F0AD2064BD3E90023994208BF90424B
:103A5C0003D210F1807041F1000138BD2404002024
:103A6C00400000202DE9F843064614461D4610463A
:103A7C00194603F01CFC0746FFF7D4FFA94208BF08
:103A8C00A0421ED2B4EB000865EB01094FF0807226
:103A9C0000234B4508BF42452ED3194B03EB0613AD
:103AAC00D3E90223AB4208BFA24218D039463046B4
:103ABC0003F00EFC394603F0EAFB241845F100052F
:103ACC000DE00123B3400F4ABFF35B8F52E8001F98
:103ADC00194342E800100028F8D1BFF35B8F084B64
:103AEC00320103EB0616C6E9024508999950099B69
:103AFC0073600020BDE8F8836FF01500FAE700BF93
:103B0C00480000201C0400202DE9F04782B0044638
:103B1C00FFF7E2FE10B902B0BDE8F087FFF782FFB5
:103B2C0006460F4603F0C6FB8246134B03EB041309
:103B3C00D3E902894F4508BF46450BD200265046B3
:103B4C0003F0C1FB002EE6D0009542464B462046C2
:103B5C00B047E0E7084A230102EB0411D6584D6840
:103B6C000020D0504FF0FF324FF0FF33C1E9022359
:103B7C002046FFF779FEE2E74800002010B50D4B18
:103B8C00D3F8043313F0020F0AD00B4B1B683BB174
:103B9C00094B00221A601B68084A13680133136032
:103BAC000024002C00DD10BD2046FFF7ADFF0134D2
:103BBC00F7E700BF0010014004110140240400206D
:103BCC0030B583B000231F4AC2F80835002B27DD1F
:103BDC001C4C0225C4F804531B4B4FF40032C3F8A1
:103BEC008021002201211120FEF732FE1120FEF768
:103BFC0011FEC4F804530123144A13602360144AC1
:103C0C00136000240194134B0093134A00232046A5
:103C1C0003F099FB2846FFF743FB204603B030BD69
:103C2C000E4A02EB03124FF0FF304FF0FF31C2E9A6
:103C3C0002014FF480329A400249C1F80423013347
:103C4C00C4E700BF0010014000E100E00810014093
:103C5C0020040020BD390000FFFF7F004800002039
:103C6C0010B582B0B0F1FF3F07D0441E002C07DD29
:103C7C00114B9C4205DD114C03E000F50000F4E70C
:103C8C000024FFF7CFFE0E4BD3E90023801AB0F5CA
:103C9C00000F00D3002404440134B4F5000F00D30A
:103CAC00064C0020019007490091121943F10003C2
:103CBC0003F049FB02B010BDFEFF7F00FFFF7F0049
:103CCC0058000020BD39000008B5FFF7ABFE024BD1
:103CDC001B68C01A08BD00BF58000020064B1B68AB
:103CEC00B3F1FF3F03D0062B04D000207047034BE9
:103CFC001B78F8E70120704730010010E00F00F04E
:103D0C00094B1A7808331B68C3F30313062A01D036
:103D1C0000207047033B002B04D8DFE803F00100C0
:103D2C000120704700207047E00F00F0064B1B6825
:103D3C00B3F1FF3F03D0062B04D000207047034B98
:103D4C001B78F8E70120704730010010E00F00F0FD
:103D5C00094B1A7808331B68C3F30313062A01D0E6
:103D6C0000207047033B002B04D8DFE803F0010070
:103D7C000120704700207047E00F00F0064B1B68D5
:103D8C00B3F1FF3F03D0062B04D000207047034B48
:103D9C001B78F8E70120704730010010E00F00F0AD
:103DAC00094B1A7808331B68C3F30313062A01D096
:103DBC0000207047033B002B04D8DFE803F0010020
:103DCC000120704700207047E00F00F0094B1A7873
:103DDC0008331B68C3F30313062A01D00020704775
:103DEC00033B002B04D8DFE803F0010001207047EF
:103DFC0000207047E00F00F00D4B1A68B2F1FF3F46
:103E0C0005D00C4B1B68062A08D0002070470A4BC3
:103E1C001A7808331B68C3F30313F4E7033B012B35
:103E2C0004D8DFE803F0010100207047012070473F
:103E3C003001001034010010E00F00F0064B1B683D
:103E4C00B3F1FF3F03D0062B04D000207047034B87
:103E5C001B78F8E70120704730010010E00F00F0EC
:103E6C00064B1B68B3F1FF3F03D0062B04D0002098
:103E7C007047034B1B78F8E70120704730010010A6
:103E8C00E00F00F0084B1B68084A1268062B01D0A3
:103E9C0000207047052A03D8032A03D3002070475B
:103EAC0001207047012070473001001034010010D0
:103EBC00084B1B68084A1268062B01D0002070477B
:103ECC00062A03D8032A03D3002070470120704729
:103EDC00012070473001001034010010024BD3F860
:103EEC000034002BFAD0704700E0014008B5034BBA
:103EFC00C3F80405FFF7F2FF08BD00BF00E0014066
:103F0C00014B024A1A607047200000200090D00339
:103F1C0038B5FFF7E3FE28B1704B1B68C3F30423DD
:103F2C006F4A1360FFF7ECFE10B16E4B6E4A1A60CD
:103F3C00FFF7FCFE28B16D4B1B68C3F342336C4A90
:103F4C001360FFF705FF20B16A4AD36823F0807332
:103F5C00D360FFF713FF40B14FF080430022C3F84A
:103F6C000C21C3F81021C3F83825FFF719FF10B145
:103F7C00614B03221A60FFF729FF58B15F4B0522F2
:103F8C001A60783301221A60703B00221A60043BDD
:103F9C003F221A60FFF730FF002846D04FF08052C6
:103FAC00D2F80414564BC3F82015D2F80814C3F8F1
:103FBC002415D2F80C14C3F82815D2F81014C3F831
:103FCC002C15D2F81414C3F83015D2F81814C3F801
:103FDC003415D2F81C14C3F84015D2F82014C3F8C9
:103FEC004415D2F82414C3F84815D2F82814C3F891
:103FFC004C15D2F82C14C3F85015D2F83014C3F861
:10400C005415D2F83414C3F86015D2F83814C3F828
:10401C006415D2F83C14C3F86815D2F84014C3F8F0
:10402C006C15D2F84424C3F87025FFF707FF28B1AC
:10403C00344B1B6803F04F03334A1360FFF710FF38
:10404C0060B14FF08043D3F8003413F0010F05D06A
:10405C004FF080436FF00102C3F80024FFF712FF0A
:10406C0020B12A4A136843F480631360FFF720FFE2
:10407C0038B14FF01023D3F808224FF08043C3F827
:10408C0058254FF01023D3F80032002B08DB4FF0EB
:10409C001023D3F80432002B02DBFFF731FF38BDBD
:1040AC000120FFF723FF4FF010241525C4F8005210
:1040BC00FFF714FFC4F80452FFF710FF0020FFF7BE
:1040CC0015FFBFF34F8F1249CA6802F4E062114B1F
:1040DC001343CB60BFF34F8F00BFFDE724030010E9
:1040EC004035014074C007400DF0ADBA44020010D9
:1040FC003C050040F0ED00E0A005004010560040EB
:10410C0000C0004058020010E40E00403C17004074
:10411C0000ED00E00400FA050B4BD96841F0807209
:10412C00DA600A4B186840F001021A605A68074BB3
:10413C005B689B1AB3F50A5FF9D3044B186003F55F
:10414C005D43F033D9607047F0ED00E0001000E003
:10415C00064B1B793BB9054B186001221A710022E2
:10416C005A71034870470348704700BF2804002069
:10417C000000AD0B0C00AD0B08B510B1012827D019
:10418C0008BD4FF08042D2F8183403F00303D2F884
:10419C00182412F4803F13D14FF080430022C3F84F
:1041AC001825114B00221A601B684FF08043022225
:1041BC00C3F80423FFF7B0FF0C4B01221A60DFE7B2
:1041CC00012BE9D14FF080430122C3F81825E8E711
:1041DC00074B00221A601B684FF080430122C3F882
:1041EC0004231A60CCE700BF040100400800004023
:1041FC000001004030B583B0044618B1012813D03B
:10420C0003B030BD4FF080430222C3F8082303F5FE
:10421C00827300221A601B68394B01221A60012C30
:10422C000FD042F2107552E001234FF08042C2F8D9
:10423C00083302F58072002111601268314A136054
:10424C00EDE701238DF8073042F2107518E04FF0BE
:10425C008042D2F8183403F00303CDF80730D2F8BB
:10426C00183413F4803F20D10023002B42D09DF84A
:10427C000730012B3ED1012003F085F8013D39D0E8
:10428C00002CE4D0012C01D00023EEE74FF080424B
:10429C00D2F80C3403F001038DF80730D2F80C344B
:1042AC0013F4803F03D10023DFE70123DDE7012373
:1042BC00DBE74FF08043D3F8183413F4803F15D16B
:1042CC000023BBB1012003F05EF8013D12D0002C9D
:1042DC00EFD0012C01D00023F3E74FF08043D3F84B
:1042EC000C3413F4803F03D10023EAE70123E8E701
:1042FC000123E6E7012C83D1034B00225A717FE79F
:10430C000C000040040000402804002008B51B4BA2
:10431C001B6883B1194B00221A601B684FF0804355
:10432C000122C3F80823164B5B7923B9144B5A713D
:10433C001B6800209847134B1B689BB1114B002244
:10434C001A601B684FF08043D3F81824D3F8183444
:10435C0012F0030F07D101234FF08042C2F8183539
:10436C000832136008BD4FF080430222C3F80823C3
:10437C00034B1B6801209847F4E700BF0001004085
:10438C002804002004010040044BDA6C0123834014
:10439C001A4214BF01200020704700BF30040020D7
:1043AC00012303FA00F0024AD36C0343D364704731
:1043BC0030040020012303FA00F0034AD36C23EAF3
:1043CC000003D364704700BF3004002038B50446A6
:1043DC0002F0E6FF08B9094838BD4FF02003EFF3AF
:1043EC00118583F31288BFF36F8F2046FFF7E2FF2E
:1043FC0085F31188BFF36F8F0148EDE70400AD0B17
:10440C000000AD0B2DE9F84380460024FF25174F23
:10441C0013E02046FFF7C4FF88F80040144F86F3E2
:10442C001188BFF36F8F124B9F421BD0012303FAED
:10443C0009F325EA03050134E4B29DB14FF02003E2
:10444C00EFF3118683F31288BFF36F8FA14625FA21
:10445C0004F313F0010FE2D02046FFF795FF00287C
:10446C00DDD1D6E73846BDE8F88300BF0200AD0BBE
:10447C000000AD0B01238340034A1268134214BFA2
:10448C0001200020704700BF80040020012303FAA4
:10449C0000F0024A13680343136070478004002045
:1044AC002DE9F84381460024154EDFF85C8011E0BD
:1044BC002046FFF7EBFF89F80040DFF8488087F3D0
:1044CC001188BFF36F8F0F4B984516D026EA05065F
:1044DC000134E4B28EB14FF02003EFF3118783F374
:1044EC001288BFF36F8F0125A5403542E7D02046D7
:1044FC00FFF7C0FF0028E2D1DAE74046BDE8F883B9
:10450C00FFFF0F000000AD0B0200AD0B10B5144CFB
:10451C00032323616361134AA261134BE3614FF4DC
:10452C00806323620023A3626362E36222660F4A04
:10453C0062661022A2662367E36663670C49E01D7E
:10454C0002F0F1F9BFF35F8F0A49204602F0EBF954
:10455C00BFF35F8F2023A371BFF35F8F10BD00BF2C
:10456C0084040020BC8400003C0500202C050020A5
:10457C00C8840000CC840000034B044A934201D24F
:10458C001833FAE7704700BF1C7800007C780000F5
:10459C0070B50646114B53F8204009E0404217E035
:1045AC00EB681870EA68537843F0010353700834D1
:1045BC00731C0A4A52F82330A3420DD9656823684C
:1045CC0028469847002DF2D00028EBD00028E5DBD8
:1045DC00FF28E5DDFF20E3E770BD00BFD4840000B9
:1045EC0038B5054628B303782BB3144C00E01834C7
:1045FC00134B9C4208D0204602F0E3FE0028F6D074
:10460C002368AB42F3D112E00C4C00E018340C4B95
:10461C009C420BD0204602F0D4FE0028F6D0216834
:10462C00284602F0B5F90028F0D100E0002420461D
:10463C0038BD0446FBE70024F9E700BF1C780000F6
:10464C007C780000F0B589B00446154BB02505FB0D
:10465C000035144B4FF4B07606FB003606AF03461C
:10466C00114A0821384601F0ADFE04EB44040F4812
:10467C0000EBC4040597012304930F230393002339
:10468C000293019300940A4B4FF4A07231462846D2
:10469C0000F0FEF86B7B23F004036B7309B0F0BDE4
:1046AC0060000020A00D0020EC8400003C090020DC
:1046BC007774000070B586B000F088FC1B4D1C4B65
:1046CC00DD611C4B05930123049300240394029495
:1046DC0001940094184B4FF480621849284600F05E
:1046EC00D7F806466B7B23F004036B73284602F065
:1046FC0019FF002C02DD304606B070BD2046FFF7D6
:10470C00A1FF0F4BB02202FB043204EB4401084B17
:10471C0003EBC103DA601C7504EB8411094A02EB4C
:10472C00411202F502625A600134E2E710010020E6
:10473C003C090020F8840000554700008009002047
:10474C0060000020000F002008B50A4B01221A70EF
:10475C000220FFF71DFF00F06FFF0320FFF718FF8B
:10476C0000F0FAF8FBF73CFF034A137B23F001033C
:10477C00137308BD7B0900201001002008B5014609
:10478C00014A0248FEF742F955470000100100208B
:10479C0008B50348034A121A002102F027F908BD94
:1047AC00400000207C09002000B5ADB01C4B83F309
:1047BC0008881C4C636943F400736361E02384F83C
:1047CC0022300025E57725766576A57684F820508D
:1047DC00636A43F4E023636284F82350FEF768FABB
:1047EC00FDF7FAFF4FF0FF33A362E362FEF76AFBBB
:1047FC00FEF704FB01248DF80D408DF80C40269536
:10480C002795094BC3F808D0FFF7B6FE2846FFF7EB
:10481C00BFFE2046FFF7BCFEFFF74CFFFFF7AEFFD5
:10482C002017002000ED00E03C0900204FF0200391
:10483C00EFF3118183F31288BFF36F8F0A4B9B6ADE
:10484C00834204D11A6F084B9A6207E0134613B1E6
:10485C001A6F8242FAD10BB1026F1A6781F3118879
:10486C00BFF36F8F704700BF3C09002038B514466A
:10487C001D4654EA050302D102F0E2FD38BD2B4679
:10488C000249183000F000FDF8E700BF6975000020
:10489C002DE9F04F85B004460F4615461E46DDF84F
:1048AC0038A0DDF83C90DDF84080DDF84CB000F12C
:1048BC0058038365C365129B0422119902F0C4FD51
:1048CC002A463946204602F0A3FD0546CDF808805D
:1048DC00CDF80490CDF800A0334602463946204668
:1048EC00FEF744F8002363652666C4F864A0C4F898
:1048FC006890C4F86C804FF02003EFF3118283F3BF
:10490C001288BFF36F8F134B996A21679C6282F3F5
:10491C001188BFF36F8FBBF1000F13D01F225946C4
:10492C0004F1740002F008F8002384F89330094B6A
:10493C009B685BB1D3F8A430C4F8A430284605B00A
:10494C00BDE8F08F002384F87430F0E7C4F8A4308D
:10495C00F4E700BF3C0900202DE9704386B0234CDE
:10496C00234B9C4215D2E36A0593236A0493E369B3
:10497C000393A36902936369019323690093E3682A
:10498C00A26861682068FFF783FF23685C65303498
:10499C00E6E700F009F9154C1BE0266823EAE373FF
:1049AC004FEAE3794FEAC93141EA5341D80340F267
:1049BC00E7354FF47A72002340194FF0000545EBB0
:1049CC000101FBF785FB02460B463046FFF74EFF15
:1049DC003034074B9C4204D2636AB3F1FF3FF7D0EB
:1049EC00DBE700F07FFA06B0BDE870833C000020E6
:1049FC003C00002008B502F090FE044B9861FDF7D6
:104A0C0087FE00B108BDFDF7EDFEFBE73C09002079
:104A1C0038B504464FF02003EFF3118583F3128869
:104A2C00BFF36F8F02F019FE48B10022C0F8AC2022
:104A3C0002F078FD2946074800F09AF838BDA368C3
:104A4C00E268934203D001221344A360F2E70022F0
:104A5C00FAE700BF6809002030B583B01D464FF05F
:104A6C002003EFF3118183F31288BFF36F8F8368F8
:104A7C0043B1013B836081F31188BFF36F8F00203A
:104A8C0003B030BD144654EA050306D0CDE9004509
:104A9C000246054800F0D0F9F2E781F31188BFF324
:104AAC006F8F6FF00F00EBE76809002038B5B3F19A
:104ABC00FF3F08BFB2F1FF3F00D138BD02491830AB
:104ACC0000F0E2FBF9E700BF6975000008B5084B80
:104ADC001B6803B908BDFFF7F7F80346044A1068D2
:104AEC000344044A1361002102F02DFEF2E700BFDB
:104AFC00700900203C0900202DE9F041064688464B
:104B0C0000234FF02002EFF3118782F31288BFF3DA
:104B1C006F8F09E0134BC3F80080FFF7D7FF87F3C3
:104B2C001188BFF36F8F0123CBB900230E4A136199
:104B3C00750CF40340F2E7304FF47A72002320181E
:104B4C004FF0000145EB0101FBF7C2FA074B18606F
:104B5C00002EDFDD0228B8BF02201860DAE7BDE8BE
:104B6C00F08100BF6C0900203C0900207009002076
:104B7C0008B5084621B9EFF3058313B9012100E00C
:104B8C00002111F0010F07D0064BDA699B689A429D
:104B9C0002D0FDF793FE03E080F31188BFF36F8F13
:104BAC0008BD00BF3C09002000234FF02002EFF3AA
:104BBC00118182F31288BFF36F8F53B9054B9A683A
:104BCC00D37B013BD37381F31188BFF36F8F012328
:104BDC00F3E770473C09002038B504460F4802F053
:104BEC009AFC054670B184B90D4B9B685A7B12F048
:104BFC001F0F0AD1AA6942B9DA897F2A05D9084A56
:104C0C00D3610AE0064BDD68EDE7054B9B68AB42D0
:104C1C0001D0FFF75BFF024BDD6138BD5C09002062
:104C2C003C09002038B50546427B90F90D30002B2D
:104C3C0028DB6B7B63F07F036B731A4B53F8204FAD
:104C4C009C422DD06CB12146284602F01EFC002857
:104C5C0020DC34B1134B5B6A9C4202D02468002CDC
:104C6C00F0D1104B5A6A03F1200129606A6015607B
:104C7C005D620C4B9868A84214BF00200120FFF71E
:104C8C00ABFF38BD02F07F0242730146064802F0CA
:104C9C003AFCCEE763686B602C601D606560E8E7EA
:104CAC000024CFE73C0900205C09002010B54FF030
:104CBC002003EFF3118483F31288BFF36F8F1C4B27
:104CCC009B681C4A126893421DD01A4A002111603D
:104CDC00194A126822B3DA897F2A21D85A7B12F03A
:104CEC001F0F1DD193F90E10144A1268914217DB55
:104CFC00134A934214D00E4A126982420ADD101AEA
:104D0C000B4B18610FE0FFF7E1FE84F31188BFF342
:104D1C006F8F0CE01846FFF785FFFFF7D7FE02E018
:104D2C00034B00221A6184F31188BFF36F8F10BDFF
:104D3C003C09002068090020700900206C09002043
:104D4C006000002038B5437B90F90D20002A2DDB44
:104D5C00044613F01F0F05D182690AB1002202E04C
:104D6C00012200E000220AB363F07F036373144B4B
:104D7C0053F8205F9D4220D06DB12946204602F0A9
:104D8C0084FB002813DC35B10D4B5B6A9D4202D0CD
:104D9C002D68002DF0D10A4B5A6A03F120012160D5
:104DAC00626014605C620020FFF716FF38BD6B6810
:104DBC00636025601C606C60F5E70025DCE700BFD4
:104DCC003C09002010B54FF02003EFF3118483F35E
:104DDC001288BFF36F8F437B13F0040F04D184F35D
:104DEC001188BFF36F8F10BD23F004034373FFF7DB
:104DFC00A9FF21460148FFF7BBFEF4E76C09002030
:104E0C0010B50446427B90F90D30002B08DB084BA3
:104E1C009868A04214BF00200120FFF7DDFE10BDF2
:104E2C0002F07F0242730146024802F06CFBEEE78F
:104E3C003C0900205C09002010B50C461146064BBD
:104E4C009868064B1860DDE9022302F0E5FB20466A
:104E5C00FDF734FD10BD00BF3C090020680900209F
:104E6C0038B50446183002F03AFC00234FF020020B
:104E7C00EFF3118582F31288BFF36F8F10E0637B21
:104E8C0043F010036373154B9868A04214BF0020C5
:104E9C000120FFF7A1FE85F31188BFF36F8F01236B
:104EAC0063B9627B94F90D30002BE8DA02F07F02D3
:104EBC00627321460A4802F026FBE0E7074B9B6829
:104ECC00A34200D038BD4FF02003EFF3118083F3E1
:104EDC001288BFF36F8F02F001FBF3E73C0900204F
:104EEC005C09002010B500234FF02002EFF3118471
:104EFC0082F31288BFF36F8F6BB90C4B9A68D37B1C
:104F0C000133D3730020FFF767FE84F31188BFF3DE
:104F1C006F8F0123F0E74FF02003EFF3118083F341
:104F2C001288BFF36F8F02F0D9FA10BD3C09002034
:104F3C00F8B5437B13F0080F45D1054643F0080341
:104F4C0003F0DF03437313F0800F14D1AB685BB134
:104F5C00284602F098FA294602F0D5FA6B7B23F02A
:104F6C0002036B730023AB6005F1180002F0B7FB72
:104F7C0005F158071CE003F07F0343730146124808
:104F8C0002F0C1FAE2E7204602F07DFA214602F077
:104F9C00BAFA637B23F0020363730026A66004F164
:104FAC00180002F09CFBC4F8AC602046FFF7CAFE68
:104FBC003C68BC4201D0002CE5D10120FFF70CFE6F
:104FCC002846FFF733FCF8BD5C09002008B5054BFB
:104FDC0003F120021A625A6200210846FFF78CFD89
:104FEC0008BD00BF3C090020F8B54FF02003EFF3DB
:104FFC00118683F31288BFF36F8F1C4CA1684B7B17
:10500C0003F07F034B7304F12007384602F07BFA60
:10501C00A5686B7B63F07F036B73246ABC4223D05F
:10502C006CB12146284602F030FA002816DC34B167
:10503C000E4B5B6A9C4202D02468002CF0D10B4BC7
:10504C005A6A03F1200129606A6015605D620120D3
:10505C00FFF7C2FD3046FDF731FCF8BD63686B60AD
:10506C002C601D606560F2E70024D9E73C09002044
:10507C002DE9F04104460D4654EA050137D06FF096
:10508C0001010A1A4FF0FF3161EB0503012A73F19C
:10509C00000330DB6FF00106361A4FF02003EFF3FC
:1050AC00118883F31288BFF36F8F164FB868164BB5
:1050BC001860FFF7A5FEB86822462B461349183036
:1050CC0000F0E2F8BA68537B43F010035373404688
:1050DC00FDF7F4FB002502F061FB341A65F10005C5
:1050EC00012C75F100030ADA0020BDE8F081FFF70E
:1050FC007BFF0020F9E702F051FB0619CDE72046B3
:10510C00F3E700BF3C090020680900206975000026
:10511C0038B5B1F1FF3F08BFB0F1FF3F1AD0FFF730
:10512C00A7FF0446C5176901430141EAD062181A6A
:10513C0062EB05039A0042EA90728100134608194B
:10514C0045EB0303DA0042EA5072C100C80B40EA97
:10515C00424038BD034B9868FFF782FE4FF0FF309A
:10516C00F7E700BF3C090020014B9868704700BF6F
:10517C003C09002038B54FF02003EFF3118583F381
:10518C001288BFF36F8F437B13F0080F04D085F3A5
:10519C001188BFF36F8F38BD0446FFF7C9FE084B6B
:1051AC009B68A34204D085F31188BFF36F8FF2E79D
:1051BC00EFF30583002BF6D12846FDF77FFBF2E7D2
:1051CC003C09002008B50648064A121A064901F0A7
:1051DC00E9FB064A0649074801F0E4FB08BD00BF9D
:1051EC00000000203C00002034850000000000007E
:1051FC003485000000000020034B1868984200D052
:10520C0070470020FCE700BF2400002030B1044AA6
:10521C005268904201D0006870470020704700BF70
:10522C002400002008B5044B1B680BB1002008BDFE
:10523C00FEF74AFDFBE700BF7409002010B5FFF72D
:10524C00DBFF0446FFF7EEFF8CB1D4E90423121AFE
:10525C0063EBE073012A73F1000111DB1046B2F12C
:10526C00004F73F1000304DB6FF0004001E06FF0BE
:10527C000040044B1B6913B1834200DA184610BD81
:10528C000020F6E73C0900202DE9F04F83B0B3F184
:10529C00FF3F08BFB2F1FF3F00F0968082461446F4
:1052AC001D46816000234FF02002EFF3118B82F337
:1052BC001288BFF36F8F2EE0012200234BE0FFF723
:1052CC00B1FF221845EBE073013243F10003CAF839
:1052DC001020CAF8143042E0009BC21A019B61EB0B
:1052EC000303CCF81020CCF81430DCF80430CAF8E6
:1052FC000430CAF800C0C3F800A0CCF804A0BCF17C
:10530C00000F49D0FFF778FF824550D08BF31188FE
:10531C00BFF36F8F0123002B56D16FF00103B3EB5A
:10532C0004084FF0FF3060EB0509B8F1000F79F17C
:10533C000003C4DB264A13685268E31845EB0202EB
:10534C006FF00101CE1A60EB020732463B46012E8C
:10535C0077F10001B0DBCAF81020CAF81430FFF75F
:10536C004BFF8446BCF1000FC9D0DCE90401DAE93B
:10537C000423CDE9002382428B41ADDB009B1A1A3A
:10538C00019B63EB0103CAF81020CAF81430604685
:10539C00FFF73CFF8446E5E70E4B5A68CAF800302D
:1053AC00CAF80420C2F800A0C3F804A0AAE7FFF7CB
:1053BC0045FF034618B1084A12698242A6D0002163
:1053CC001846FEF74DFCA1E703B0BDE8F08F00BF17
:1053DC00C0010020240000203C090020F8B5044640
:1053EC00FFF764FC4FF02003EFF3118583F3128871
:1053FC00BFF36F8F284B1C60FFF7FEFE044650B3C3
:10540C00D0E90467244B1B68D917B34271EB070230
:10541C0021DB224AD2E90001801941EBE671C2E995
:10542C0000019B1B1C4A136000220023C4E90423C7
:10543C00204602F03DF985F31188BFF36F8FA36806
:10544C00204698474FF02003EFF3118583F3128821
:10545C00BFF36F8FD0E744B10F4B1968D4E9042325
:10546C00521A63EBE173C4E904230C480A490C6833
:10547C00D0E90023121943EBE473C0E900230024A4
:10548C000C60FFF7DBFE2146FEF7EAFB85F3118883
:10549C00BFF36F8FF8BD00BF74090020C00100205E
:1054AC0010B500214FF02003EFF3118483F3128821
:1054BC00BFF36F8F0022002369B9FEF705FC074B81
:1054CC00D3E90023121843F1000384F31188BFF3CE
:1054DC006F8F0121F0E71046194610BDC001002066
:1054EC0038B504464FF02003EFF3118583F312888F
:1054FC00BFF36F8FD0E90A2352EA030105D0B3F151
:10550C00FF3F08BFB2F1FF3F1AD1236B0133236376
:10551C00236A0BB12046984704F11803A469A342EF
:10552C0012D08CB1204601F0BAFF0023C4F8AC3085
:10553C0085F31188BFF36F8F204601F0F3FF38BD60
:10554C000449FFF7A1FEE0E785F31188BFF36F8FE5
:10555C00F5E700BFED5400002DE9F04F87B014467D
:10556C001D46DDE91089B3F1FF3F08BFB2F1FF3FE3
:10557C0035D0064613462A46B9F1FF3F08BFB8F1AD
:10558C00FF3F12D058EA09010FD06FF00107B7EBBB
:10559C00080702974FF0FF3161EB09070397DDE92C
:1055AC000201002871F100011CDB6FF00101B1EB6D
:1055BC00030A4FF0FF3161EB020BBAF1000F7BF1E4
:1055CC00000123DB304602F08AF8C6E90A89002381
:1055DC00336322462B4617493046FFF755FE07B07A
:1055EC00BDE8F08F18F1FF31049149F1FF310591BD
:1055FC00DDE9047838464146012F78F1000702DBDB
:10560C0080468946D1E701200021F9E713F1FF33E9
:10561C00009342F1FF330193DDE9000102460B4692
:10562C00002871F1000102DB14461D46CAE7002276
:10563C001346F9E7ED54000008B5034A0349044842
:10564C0000F0B2FE08BD00BFE87A00000085000043
:10565C000C85000070B513468568046912F4805FF0
:10566C0007D012F4406F04D012F0010F01D082F475
:10567C00406323F4805213F0010F08D0012303FA86
:10568C0001F62368334323602B68984770BD0123D0
:10569C0003FA01F6236823EA06032360F4E730B526
:1056AC0083B00C46056983685B6801A9984703467B
:1056BC0018B92968019A4A4001923BB9012101FAB3
:1056CC0004F4019B1C4214BF0B460023184603B084
:1056DC0030BD10B44FF0A0424FF08063C2F80C35CF
:1056EC000123C2F868374FF040231A21C3F808157C
:1056FC004FF00061C2F80C150320C2F86C071B2197
:10570C00C3F80C150021C2F870171C24C3F81045FF
:10571C004FF00054C2F80845C2F87407C3F854158A
:10572C005522C3F8C0254FF00042C3F824250722A8
:10573C00C3F8002510BC70470420704710B582B028
:10574C0003681B7C446B03FB01F1C90089B2214443
:10575C000091002100F0A6FD02B010BD2DE9F04132
:10576C00064690F8387090F83950036893F8118019
:10577C0000242A4621463046FFF7E0FF0134E4B20C
:10578C000135EDB2A74201D9A845F2D8BDE8F081A8
:10579C0008B503681A7C90F8383002FB03F2D2008B
:1057AC000021406B01F022F908BD10B5044680F8C9
:1057BC003910036B1B689847236B5B68204698472E
:1057CC0010BD10B5044690F8933023B90021204643
:1057DC00FFF7EBFF10BDFFF7DBFFF7E738B504462B
:1057EC00FFF7BCFF94F8393094F838501D44EDB2F3
:1057FC0023685B7CAB4208D994F8933053B92946A3
:10580C002046FFF7D2FF012038BD204600F070FD86
:10581C000020F9E72046FFF7BBFFF0E7405C70473C
:10582C004218435C507800EB032080B27047002094
:10583C00704738B504460D4600212846FFF7EEFFA9
:10584C00207001212846FFF7E9FF607002212846ED
:10585C00FFF7E4FFA07003212846FFF7DFFFE0709D
:10586C0004212846FFF7DAFF207105212846FFF7AF
:10587C00D5FF607106212846FFF7D0FFA0710721E4
:10588C002846FFF7CBFFE07108212846FFF7C6FF3B
:10589C00207209212846FFF7C1FF60720A212846B1
:1058AC00FFF7BCFFA0720B212846FFF7B7FFE07291
:1058BC000C212846FFF7B2FF20730D212846FFF775
:1058CC00ADFF60730E212846FFF7A8FFA0730F21D0
:1058DC002846FFF7A3FFE07310212846FFF79EFF31
:1058EC00207411212846FFF79BFF60821321284664
:1058FC00FFF796FFA08215212846FFF791FFE08263
:10590C0038BD70B4047B0668327842FA04F5EAB20A
:10591C006318DBB2072B0AD9C4F10804E4B2721C79
:10592C0002607278A2402A43D2B2083BDBB24FF03D
:10593C00FF3404FA01F1037322EA010070BC7047D2
:10594C0038B5044600F160050166002380F86C3020
:10595C0090F878102846FFF7D4FF84F86A0094F882
:10596C0079102846FFF7CDFF84F86B0094F892303D
:10597C0084F86E30B3FA83F35B0984F86F3038BD6A
:10598C0010B50C46FFF7BDFF40B2013CE4B2012359
:10599C0003FA04F464B2001B40B210BD012B08D012
:1059AC00022B09D013B1401A80B27047104480B258
:1059BC007047084480B27047801A80B27047012B40
:1059CC0008D0022B09D013B1024490B2704708449E
:1059DC0080B27047821A90B27047401A80B27047FA
:1059EC002DE9F04F89B006460C46079290F96850A5
:1059FC005FFA85FB90F96930DBB2039319E00594EB
:105A0C0020E096F86E3086F89230CDF80080BDF824
:105A1C0014300699304600F0C6F9BC423DD3ABEBCE
:105A2C0005052C44E4B2039B0133DBB203934FF026
:105A3C00000B96F96A50EDB2A5EB0B07FFB2BC4216
:105A4C00DDD30597B6F866A04FFA8BF19DF90C9053
:105A5C0096F8708043464A460491B6F86400FFF706
:105A6C00AEFF069043464A4604995046FFF796FF10
:105A7C000246079B002BC4D196F86D30002BCCD17D
:105A8C0096F86F3086F89230CDF80080BDF814305F
:105A9C000699304600F087F9BFE75C4486F8684009
:105AAC0086F8699009B0BDE8F08F2DE9F04F85B00C
:105ABC00044600F16005FFF743FF94F96B7094F80E
:105ACC007A102846FFF75CFF804694F87B10284636
