:1000000008070020F1160000BD440000851600001E
:1000100000000000000000000000000000000000E0
:10002000000000000000000000000000F1140000CB
:100030000000000000000000891400000000000023
:1000400065150000651500006515000065150000C8
:1000500065150000651500006515000065150000B8
:1000600065150000651500006515000065150000A8
:100070006515000065150000651500006515000098
:100080006515000065150000651500006515000088
:100090006515000065150000651500006515000078
:0800A000651500006515000064
:1000A8007047C0461C2101231B04984201D3000C51
:1000B80010391B0A984201D3000A08391B099842D3
:1000C80001D30009043902A2105C40187047C046E9
:1000D8000403020201010101000000000000000009
:1000E800002B11D1002A0FD1002900D1002802D0FD
:1000F8000021C943081C07B4024802A14018029015
:1001080003BDC0469DFFFFFF03B4684601B50298D2
:1001180000F02EF8019B9E4602B00CBC7047C0460A
:10012800F0B515042D0C0F0001002E00C6468446BC
:100138000004140C000C090C46434D436043614312
:100148004019340C241800B5A54203D98020400278
:1001580080464144250C6D18614659437A43300462
:1001680049192404000C2018891804BC9046F0BDD5
:10017800F0B557464E464546DE46E0B504000D004C
:100188009246994683B08B4230D82DD04946504686
:1001980000F0BAF829000600200000F0B5F8331A7C
:1001A8009846203B9B4633D45A4653469340424692
:1001B8001F00534693401E00AF423AD8AF4200D1C9
:1001C80078E05B46A41BBD41002B00DA75E00022F5
:1001D80000230092019301235A469340019301237F
:1001E80042469340009328E08242CFD90022002360
:1001F800009201930C9B002B01D01C605D6000985D
:10020800019903B03CBC90469946A246AB46F0BD66
:10021800424620239B1A5246DA40414613004A467A
:100228008A40170042461F43534693401E00AF4280
:10023800C4D900220023009201934346002BD9D051
:10024800FB0772081A4346467B080EE0AB4201D111
:10025800A2420CD8A41A9D41012024196D41002105
:10026800013E24184D41002E06D0AB42EED9013E86
:1002780024196D41002EF8D1009801995B460019A8
:100288006941002B24DB2B005A464446D3402A0000
:10029800E2401C005B461500002B2ADB26009E402E
:1002A800330026004746BE403200801A994100902C
:1002B80001919FE7A342BCD883E74246202300214F
:1002C8009B1A0022009101920122DA40019286E7EE
:1002D800424620239B1A2A0046469A402300F340B0
:1002E800444613432A00E2401C005B461500002BDD
:1002F800D4DA42462F002023260097409B1ADE407E
:100308003B003343CDE7C04610B5002903D1FFF7C2
:10031800C9FE203002E0081CFFF7C4FE10BDC0462D
:1003280070B5130085680469DA0408D5C022120183
:10033800134204D0DA0702D5C02212015340094AF9
:100348001A40DB0707D501238B4026683343236017
:100358002B68984770BD01238B4026689E43266012
:10036800F6E7C046FFEFFFFF10B504000B78022B3D
:1003780014D008D8002B04D10E4803F0A6FD07209E
:1003880000E0012010BD033BDBB2022B10D80A4865
:1003980003F09BFD002323710620F3E74B780A2B1B
:1003A80001D00720EEE7054803F08FFD0720E9E7B5
:1003B8000120E7E708500000F84F00003050000027
:1003C80010B504000B78022B0BD0052B1DD0002B89
:1003D80001D0012010BD01680F4803F076FD072009
:1003E800F8E74B780A2B01D00720F3E70368591E7A
:1003F80001600A4803F069FD2368002B01D007203B
:10040800E8E7043323710620E4E7054803F05DFDBF
:10041800032323710620DDE75450000094500000A8
:10042800D050000010B504000B78042B21D00FD851
:10043800002B18D0032B09D1124803F046FD23687E
:100448003C3323600123237106200BE0012009E0DF
:10045800052B06D10C4803F038FD02232371062032
:1004680000E0012010BD0168084803F02EFD0720B8
:10047800F8E7074803F029FD0023236023710620CD
:10048800F0E7C046905100006451000000510000A0
:100498003851000010B504000B78002B03D0032B53
:1004A80007D0012010BD0168074803F00EFD0720A2
:1004B800F8E7064803F009FD23683C33236001236D
:1004C80023710620EEE7C046C0510000F851000035
:1004D80010B504000B78042B25D00BD8002B14D0B2
:1004E800032B05D10168144B994214DD07200BE05A
:1004F800012009E0052B06D1104803F0E6FC022391
:100508002371062000E0012010BD01680C4803F0AB
:10051800DCFC0720F8E70B4803F0D7FC23683C33E2
:1005280023600720F0E7084803F0CFFC002323608E
:1005380023710620E8E7C046DB050000E052000012
:10054800285200005C520000B052000010B5037938
:10055800042B12D89B000A4AD3589F46FFF79AFFEC
:1005680010BDFFF72DFFFBE7FFF7FEFEF8E7FFF7EB
:1005780059FFF5E7FFF7ACFFF2E70120F0E7C046C7
:100588001053000010B504480023036003490B70A2
:100598000371FFF7DBFF10BDB4010020B00100209C
:1005A800F0B583B0FFF7EEFF04F0E7FBFA22920004
:1005B8000023FFF7B5FD4B04C00B03431C00CD0B14
:1005C800544802F0E3FC544F38608026760032002D
:1005D8000221FFF7A5FE386832000321FFF7A0FECD
:1005E800386832001E21FFF79BFE67E04A4B186807
:1005F800056983685B6801A99847041E03D12B68C5
:10060800019A53400193002C05D10834019B1C40EA
:10061800631E9C41E4B2404B1868066983685B68B6
:1006280001A99847051E03D13368019A53400193E5
:10063800002D05D10435019B1D406B1E9D41EDB277
:10064800354B1868066983685B6801A998470028D4
:1006580003D13368019A53400193002806D18020C2
:10066800C005019B1840431E9841C0B26B1E5A1E1C
:100678009341421E511E8A411343621E511E8A41F4
:10068800D2B2002B2ED1002A2CD104F076FBFA220C
:1006980092000023FFF744FD4B04C00B03431C00EA
:1006A800CD0B1E4B02221A705B780A2B2ED91B4BDE
:1006B800013A5A7019491A4803F0AAFB04F05DFB85
:1006C800FA2292000023FFF72BFD4E04C00B0643CD
:1006D8003200CB0B121BAB41002B87DCEED1632A17
:1006E800ECD983E7012D02D00E4B03221A700128A2
:1006F80002D00C4B05221A70012C02D0094B04229F
:100708001A700849064803F083FBBEE70133034A21
:100718005370CFE724530000C4010020BC0100201F
:10072800B4010020C001002010B50B6801330B6034
:10073800014B1B68984710BD00000020014B186052
:100748007047C0460000002000B583B002000B00CF
:100758000021019101A9024800F032F903B000BD5F
:100768003107000010B584B0040001900291002107
:10077800039101A9064800F023F90398029B9842C7
:1007880002DA241800232370039804B010BDC04671
:10079800A13E0000F0B5CE46474680B583B00400C0
:1007A80008001500238B07271F401A0703D40023CE
:1007B800009301936FE001290CD020221343238377
:1007C800002D02D162B6BFF36F8F03B00CBC904608
:1007D8009946F0BD102213432383F1E7200003F06C
:1007E800B6FB5AE0636999461A006946200003F08F
:1007F800CBFB002398465EE023691B6898460621D8
:10080800200003F07AFB0023994654E023695B68D3
:1008180098460421200003F070FB002399464AE023
:1008280023699B6898460521200003F066FB002396
:10083800994640E0002347E0002345E008210A43A9
:100848002283002D02D162B6BFF36F8F002B44D1F3
:10085800009B002B05D04B4632006946200003F070
:100868000CFC4346002B02D023492000C047EFF37D
:10087800108572B6238B082293432383238BDA06D1
:1008880031D51022934323830120238B07271F4050
:10089800002800D194E70228A0D0002800D18FE7D3
:1008A80001289FD00328A7D00428AFD00528B7D0A7
:1008B800002398469946228B07261640BE42B9D097
:1008C800A368002BB8D00123002BB7D100990029C9
:1008D800B4D141460029B1D1D0E74A4631002000C1
:1008E80003F013FBB4E79A0604D52022934323832D
:1008F8000220CAE70020C8E7B7400000F0B583B07F
:1009080004000E0003F08DFB051E39DBEFF31082A7
:1009180072B60192238B07211940678B274DAF428E
:1009280037D00D0002290DD0002911D004290FD08D
:1009380006290DD0052926D005256D420020002363
:1009480000270AE00137678301200023002704E01D
:100958004B424B41DBB200200127002F06D0002775
:1009680037606768002F1AD03E606660002B19D187
:10097800019B002B02D162B6BFF36F8F002816D1FE
:10098800280003B0F0BD86256D4200200023002713
:10099800E3E70B256D42002000230027DDE76660B2
:1009A8002660E3E702212000FFF7F4FEE8E70023D2
:1009B8000A003100200003F04DFBE1E7FFFF0000D3
:1009C800F0B5DE4657464E464546E0B595B00500BB
:1009D80089461700059300243878002801D100F0D3
:1009E80026FC252808D001374946A847002801DAFF
:1009F80000F01EFC0134EFE71822002108A803F0DC
:100A0800CBFD0C2200210AA803F0C6FD7A1C7B78D6
:100A1800252B01D0012628E0BA1C039208AAD3721C
:100A280030E108A90B7A042003430B72002E1AD078
:100A3800013218E008A90B7A082003430B72F5E786
:100A480008A90B7A102003430B72EFE708A90B7A69
:100A5800202003430B72E9E708A90B7A40200343DF
:100A68000B72E3E70026002E08D01378203BD9B29A
:100A78001029F7D88B00DB49CB589F4608AB197A69
:100A880044230B40442B5ED0079208A9087A8023A0
:100A98005B4203430B72039213782A2B59D007A8A1
:100AA80003F04EFC039B079A934213D008AA117ACD
:100AB80080235B420B4313720B909B07DB0F0028CC
:100AC8004FDB002108AA0B435B00117A0220814307
:100AD8000B431372079B07931B782E3B5A425341D3
:100AE800DBB208A95A0092464A7A9046022240464A
:100AF80090430200504602434A72002B33D0079BB2
:100B08005A1C07925B782A2B2FD007A803F018FCF1
:100B180008AB0C901B7A9B07DB0F00282DDB00210C
:100B280008AA0B435B00117A022081430B4313721E
:100B3800079A13784C3BD9B22E2900D981E08B0053
:100B4800A949CB589F4608A90B7A402083430B72CA
:100B58009AE70A004B7A01210B435372079B013332
:100B6800B9E70121AEE7079AE3E708AA537A042117
:100B78000B435372079B5A1CDBE70121D0E7511C3A
:100B88005378682B08D008AA537A7820834310201A
:100B9800034353720A0026E008A94B7A782083435E
:100BA800082003434B7202321DE0511C53786C2B12
:100BB80008D008AA537A7820834318200343537235
:100BC8000A0010E008A94B7A7820834320200343C9
:100BD8004B72023207E008A94B7A78208343282019
:100BE80003434B720132531C0393127808ABDA7239
:100BF8001300413BD9B2372900D9C5E08B007B49A6
:100C0800CB589F4608A94B7A78208343302003436A
:100C18004B720132E7E708A94B7A782083433820E2
:100C280003434B720132DEE708A94B7A78208343ED
:100C3800402003434B7201320B7A022003430B72AC
:100C4800D1E708A94B7A782083434B72CBE708A9F0
:100C58008B7A07208343012003438B7208AB597AB0
:100C680078230B40402B59D0632A64D008A90A7A0C
:100C78009307DB0F3343012003405B0001308243BD
:100C88001A430A7208AB5B7ADB0700D48BE0059B3A
:100C98001A1D05921B689846002B7BDB08AB5B7A14
:100CA8005A0700D494E0059B1A1D05921B689A46C2
:100CB800002B00DA83E008AB00220B920C929A7AA0
:100CC8005207520F5B7A5B061B0F1900012A00D1ED
:100CD80090E0022A00D1DAE0042A00D131E1032AA7
:100CE80000D148E108AB1A7A0323190011408B465A
:100CF800134200D045E108ABDB7A253BD9B2532932
:100D080000D9F3E18B003A49CB589F4608A98B7A62
:100D180007208343022003438B729FE708A90491AD
:100D2800097A884601218C466146404608430100FD
:100D38000498017298E75A1E9341DEB296E708AA12
:100D4800937A07218B4304210B43937201268DE785
:100D580008AA937A07218B4303210B439372527A93
:100D680078231340402B81D101267FE708AA937A84
:100D780007218B4303210B439372537A78221A423B
:100D880000D173E7012671E708AA137A01210B4302
:100D980013726BE708AA137A04210B4313724346B4
:100DA8005B4298467AE708AB1B7A5BB2002B03DB01
:100DB80001235B42984671E70B9B98466EE708AAA9
:100DC800537A02218B43537201235B429A4672E79E
:100DD8009B0702D50C9B9A466DE701235B429A4616
:100DE80069E7C046345300007853000034540000CB
:100DF80014550000052B37D00FD8032B2CD0042B0B
:100E080018D1059B0733072293431A00083205922D
:100E18001A685B680892099313E00A330F2213409B
:100E2800012B07D8059B1A1D05921B68DA17089332
:100E3800099206E0059B1A1D05921B68DA170893AC
:100E4800099201291CD0022900D04BE7089B1BB24C
:100E5800DA170893099245E7059B1A1D05921B6846
:100E6800DA1708930992ECE7059B073307229343A7
:100E78001A00083205921A685B6808920993E0E73D
:100E8800FF23089A13400893002309932AE7052BA8
:100E980044D00FD8032B2DD0042B18D1059B073332
:100EA800072293431A00083205921A685B68089271
:100EB800099313E00A330F221340012B07D8059B2F
:100EC8001A1D05921B6808930023099306E0059BE9
:100ED8001A1D05921B68089300230993012929D03C
:100EE800022900D0FEE6089B1B041B0C0893002374
:100EF8000993F7E608ABDB7A632B07D0059B1A1D2D
:100F080005921B68089300230993E7E7059B1A1DC0
:100F180005921B68089300230993DFE7059B0733B5
:100F2800072293431A00083205921A685B680892F0
:100F38000993D3E7FF23089A1340089300230993E2
:100F4800D0E6082B0BD0059B0733072293431A00E2
:100F5800083205921A685B6808920993C2E6059BF5
:100F68000733033293431A00083205921A685B6804
:100F780008920993B6E6059B1A1D05921B6808930B
:100F8800B0E6039E33003A004946280003F05DFAB4
:100F9800002800DA4CE1241837001DE549462520D1
:100FA800A847002800DA43E101345E46462302AA36
:100FB800944663449A4600279FE0089F5346002BB7
:100FC80007DB5146380003F0B1FA8246BA445E4660
:100FD80093E0380003F0A1FAF7E70EAF089B3B70E7
:100FE8005E46312302AA944663449A4685E0130775
:100FF80006D410231E001640134202D0202600E01B
:101008002B26089A099B002B02DB0892099307E01C
:10101800002756429F41089609972D2600E05E4614
:10102800462302AA9446634400930EAB0AAA089882
:10103800099903F098F907005346002B00DA8AE073
:10104800462302AA94466344DB1B08A90A7A402077
:1010580082430A729A4500D883E05246D31A0B930A
:10106800462363449A4648E00898002804D15E461F
:10107800734B9A465F1F40E008AE462302AA944687
:10108800634400930EAB0AAA002103F06CF9070031
:10109800B37A10221343B3727823F3725E46CBE718
:1010A800089808AB5B7A5B06190F002B04DB8B00F2
:1010B8006449CB589F4604605E46462302AA94467C
:1010C80063449A46002718E00470F5E70480F3E7C4
:1010D8000460F1E7E31704604360EDE7E317046099
:1010E8004360E9E70460E7E70460E5E75E46462316
:1010F80002AA944663449A460027002F00D193E041
:101108005346DB1B002E00D0013308AA927AD10681
:101118002DD502330B998C466344520602D50C9A9E
:10112800944663444246002A37DDD31A984608ABF2
:101138001B7A5B0731D408AB1B7A5B061BD5002EE4
:101148001CD049463000A847002871DB01345E46B0
:1011580030239B4614E0462302AA944663449A46E9
:10116800CBE7462302AA944663449A46C5E711078B
:10117800D0D50133CEE720239B4601E030239B46A0
:1011880043465A1E9046002B07DD49465846A84755
:1011980000284DDB01344346F3E7002E05D04946CD
:1011A8003000A847002843DB013408AB9B7ADA06F5
:1011B800D20F1B07DB0F134305D049463020A84741
:1011C800002835DB013408AB9B7ADB0606D508AB73
:1011D800D87A4946A84700282ADB01340B9B5E1EB3
:1011E800002B07DD49463020A847002820DB0134C2
:1011F8003300F4E753463A004946280003F025F93E
:10120800002815DB24184346002B0ADD4946202018
:10121800A84700280CDB013401235B429C46E044CC
:10122800F1E7039FFFF7D8FB039FFFF7D5FB2000EB
:1012380015B03CBC90469946A246AB46F0BDC046A8
:10124800315300006456000030B585B0194B1B6857
:10125800002B2CD1174B01221A6001AA164B13CB75
:1012680013C2164B002B0AD001980299039A03F077
:10127800CFF9EFF3108572B6114B1C6809E062B61E
:10128800BFF36F8FF5E7231E02D02368002B09D028
:101298001C00002C06D0A368002BF4D0064A107856
:1012A8009847F0E7002D02D162B6BFF36F8F05B003
:1012B80030BDC04604000020D001002019460000BF
:1012C800C801002070B588B00600294D6C460100A1
:1012D800200003F0D7F82B0007CC07C32878002894
:1012E80043D0244B00221A60731C07D102F000F986
:1012F800EFF3108572B6204B1C6816E01C4B9B68F8
:10130800590CD8031D4A0023801859411C4A002350
:10131800FEF7E6FE301A012103F004FDE6E7231E7E
:1013280002D02368002B09D01C00002C06D063686B
:10133800002BF4D00E4A10789847F0E7002D02D120
:1013480062B6BFF36F8F05AA094B13CB13C20D4BBF
:10135800002B04D005980699079A03F046F9FFF781
:1013680073FF02F05BFA024B187808B070BDC046F4
:10137800D001002004000020C80100203F420F00D7
:1013880040420F00F3450000014910220A607047EF
:1013980010ED00E0BFF34F8F30BF62B6BFF36F8F21
:1013A8007047C04672B620BF002800D162B67047A9
:1013B800030605D41F2318401E3B8340014A1360CF
:1013C8007047C04600E100E043099B00034A9A5871
:1013D8001F230340012098401040704700E100E0BF
:1013E80070B542B2030611D49308144EC0339B0063
:1013F8009D5903242240D200FF2004009440A543B5
:101408008901084090402843985170BD0F2313402C
:10141800083B9B0806339B000948844663445C6884
:1014280003200240D200FC3005009540AC438901FE
:101438000840904020435860E7E7C04600E100E0DC
:1014480000ED00E030BFFDE710B50A498B689C222B
:101458009850043208480068985008484468802327
:101468005B052343436062B6BFF36F8F8B68985860
:1014780010BDC046C4020020A457000000ED00E0E3
:1014880014498A6814481044EFF3098CF0C04346A5
:101498004C4655465E466746F8C072B60F4F104E2A
:1014A800CA698A603E600F4C1419206800232360C3
:1014B800002800D162B6084C10191030F8C89846B8
:1014C800A146AA46B346BC462438F0C88CF309881E
:1014D80070470000C40200203000000004ED00E066
:1014E800000000089C00000004207146014202D060
:1014F800EFF3098001D1EFF3088081690239097897
:101508000229FFD001B502F0C9FF01BD10B5203A8C
:1015180009490124A14391611360029B5360039B15
:101528009360049BD36080235B04D36102659C2392
:101538000022C25010BDC04609410000064B986009
:10154800101C81F30988002162B6BFF36F8F002257
:10155800002302F0D5FDC046C402002001B572B6D2
:101568000A4A9069002803D00021916103F08FFA9C
:1015780062B6EFF305800649401AC00005490144E8
:1015880009C9984709BC9E4603490847C402002078
:1015980010000000C44E0000A5150000044B996817
:1015A800D869884202D00349034A0A60704700009C
:1015B800C402002004ED00E00000001070B50C002B
:1015C8008369023B1A88064B9A4206D000250121FE
:1015D80002F082FF2070280070BD0568F7E7C0465A
:1015E80002DF0000F0B58DB00B0022494968C9053B
:1015F800C90D62B6BFF36F8F140E2406FF252D06A2
:10160800AC4218D10C241440082C17D012070FD55F
:101618001C000027272502AB9C4665442A002000B1
:1016280002F05CFF06002B78002B0AD00DB0F0BD4D
:1016380004000127EEE700270024EBE70027002439
:10164800E8E72022210003A802F086FF002F06D039
:101658000A9BDA0508D1084A13430A9304E00A9B57
:1016680001935B0A5B020A9303A9300002F012FFA0
:10167800DCE7C04600ED00E0FF010000EFF3088062
:10168800EFF3098101B57246FFF7ACFF01BDC04613
:1016980030B5002211E00F230B40083B9B080633AE
:1016A8009B000F4884466344586803242140C900BE
:1016B800FC348C40A04358600132192A0FDC51B227
:1016C8001306E8D48B08074DC0339B005C590320F0
:1016D8000140C900FC30884084435C51ECE730BDD0
:1016E80000ED00E000E100E0002080F31488BFF383
:1016F8006F8F03F08FFB0A4880F3088800F016F814
:1017080072B608480849401880F30988EFF3148036
:101718000221084380F31488BFF36F8F02F0D1FED3
:1017280008070020080800200008000072B60023FF
:10173800002B01D0002312E01A00203292000C493D
:101748000120404250500133DBB2F1E71A00603209
:10175800920007490120404250500133DBB2002B70
:10176800F4D062B6BFF34F8FBFF36F8F7047C04698
:1017780000E100E010B5094B9B68834202D002F0FB
:101788007FF910BDEFF30583002BF8D0044A5168A8
:1017980080235B050B435360F1E7C046C402002079
:1017A80000ED00E0014B18607047C04608000020BB
:1017B800FF2303408021C905054A8B50BFF34F8F93
:1017C800044B054ADA60BFF34F8FC046FDE7C046B9
:1017D8001C05000000ED00E00400FA0510B5022821
:1017E80007D9831E022804D0024A01210A4318019E
:1017F800904710BDF04F0000014840307047C04688
:10180800EC010020074A821A9210D3009B18990114
:101818005B18DB009B18D8031818C00080184042DA
:101828007047C046EC01002070B504000D00FFF7BA
:10183800E9FF01004022034802F062FF0100200096
:10184800A84770BD644E000030B583B005000C0099
:10185800FFF7D8FF0100402300932300054A0648FC
:1018680002F068FF011E01DB03B030BD2800A0476D
:10187800FAE7C04685470000644E000010B500280E
:1018880002D001280CD010BD0021084802F0C9FE82
:1018980083685B07F7D10021044802F01EFFF2E7D6
:1018A8000121024802F019FFEDE7C046644E00002E
:1018B80010B5EFF3108472B6124A022311680B4375
:1018C8001360DB070AD40023002C02D162B6BFF3F1
:1018D8006F8F002B11D102F059FF10BD8022D20565
:1018E800094BD158D358CB0701D40023ECE7FFF7B5
:1018F80083FF02F0E3FE0123E6E70021034802F03C
:10190800ECFEEAE73C0200200C040000644E0000F4
:1019180010B503214942044803F066FAC30700D50D
:1019280010BD02F03DFFFBE73C02002000B585B08A
:101938006B460093019300230293013303936B4694
:10194800064A02F013FF002805DB8022D20100239B
:10195800684601F02BFD05B000BDC046BD4700003C
:1019680070B50600002201210020FFF739FD002094
:10197800FFF71EFD114801F05DF9114B98421AD18D
:1019880003F036F8002403E00123AB600134E4B22D
:10199800012C0ED82100300002F043FE0500210082
:1019A800300002F04AFE074902F08AFB0028EBDA11
:1019B80000E0002070BD05204042FBE785180000CC
:1019C8000000AD0BB056000070B50500012807D126
:1019D8008022D205344BD25803231340012B62D006
:1019E80003F041F8002805D1304B1B78002B41D07B
:1019F800002400E00124002C3ED0EFF3108672B6DC
:101A0800002C05D18022D205C2239B000221D1508F
:101A18008021C9058322D2008B58032003408A58AD
:101A2800D20330D40022002A03D0012B2DD0012D5F
:101A38002BD0002C22D03000FFF7B4FC8022D20536
:101A4800A323DB00D358DBB2002BE1D1184B1B6872
:101A5800002BDDD0164B00221A6001238021C90516
:101A6800A322D2008B501349C02252008B50124A35
:101A78001360CDE70124BEE70026C1E7212000213D
:101A880001F0DCFFDAE70122CDE7002C05D0002EBB
:101A980009D162B6BFF36F8F05E08022D205C1235A
:101AA8009B000221D15070BD1C04000003030020DC
:101AB8000401004000E100E00800004070B50400A7
:101AC80001210F4803F077F9002803D0631E012B8A
:101AD80012D970BD01210B4802F0AFFD05000A4E76
:101AE800301D0C22002102F057FD0123B3603100A4
:101AF8002800FEF703FFE9E72000FFF765FFE8E7A6
:101B080040020020644E0000DC01002070B5040093
:101B1800C5B20B4B1B6828009847012807D00A2C30
:101B280007D0084B186883685B682900984720002D
:101B380070BD044B186883685B680D219847F0E70F
:101B48000C0000204402002010B5044C2000FFF7D0
:101B580029FE2000FEF7F2FD10BDC046151B00004F
:101B680010B50748074B186002F054FF002803D04F
:101B7800FFF7EAFF002010BD13204042FBE7C046F4
:101B88007C4E000044020020F0B5CE46474680B5A2
:101B98000E0043685B6898463B4B13403B498B42B9
:101BA8002AD014D8062B29D005D9802149038B4285
:101BB8000AD1012519E0002B22D0022B01D10425DE
:101BC80013E0162040424DE0162040424AE03049DA
:101BD8008B4217D0A021C9038B4201D1032504E011
:101BE8008021C9038B424CD10225D3060CD493061D
:101BF8003CD50123994609E00725F6E70625F4E7D1
:101C08000025F2E70525F0E703239946540A012148
:101C18008C46210064462140FF34144027007C4252
:101C28007C41E4B2970507D5170522D50122B240B9
:101C3800A127FF004346DA514268127A52011F2059
:101C4800304010431F220240640021434B469B0052
:101C580019432B020B43C132FF329200A021C90560
:101C6800535000200CBC90469946F0BD002399467D
:101C7800CCE75205E0D50122B240064F4346DA517F
:101C8800DAE716204042EDE70600F00006001000F3
:101C9800020040000C05000010B543685868044B6A
:101CA800C458624011406140C150002010BDC04678
:101CB8000405000043685A68014BD1500020704762
:101CC8000C05000043685868024A83584B4083500B
:101CD8000020704704050000F0B5CE46474680B5A1
:101CE800066943689946B36972691343F168994371
:101CF8000122002012E002239C461F232B40A0252E
:101D0800ED05C133FF339B005C590F4F3C406746DC
:101D18003F043C435C5191430130520000290ED0EE
:101D28001142F9D04B461B7A5B011F2505401D4324
:101D38003369C340DB07DED403239C46DDE70CBCD4
:101D480090469946F0BDC046FFFFFCFFF0B5D64669
:101D58004F464646C0B588460369426892465A6966
:101D680099690A43DF689743A222D200514649681D
:101D78008A581B6953403A009A4394463D00012211
:101D880000260DE01F232340A020C005C133FF33E8
:101D98009B001C5815490C401C50954301365200B5
:101DA800002D1CD01542F9D053461B7A5B011F2425
:101DB80034401C431742E5D11F232340C133FF336E
:101DC8009B00A020C0051858000C03230340022BD9
:101DD800D8D143461B68134341460B60D2E760469F
:101DE8001CBC90469946A246F0BDC046FFFFFCFFCA
:101DF80070B584B00023039302932E4B1D68002D09
:101E080001D1002109E002A92B48FFF79FFF0390A9
:101E1800284B00221A60F4E70131032921D80B006E
:101E280040339B009AB201238B40244CC120800090
:101E380020581842F0D013191B68002BECD00B0067
:101E48004533FF339B001B591B0A1F2018400123F1
:101E580083400398019003430393131900221A60E7
:101E6800DAE7039E002E03D1002D1FD104B070BD08
:101E7800134B5968002903D00C1E0AD00C6808E0DF
:101E88000C0006E0002C0FD0231E00D02368210090
:101E98001C000029E8D08B681A0032403342F1D088
:101EA8004B6805489847EDE72300F0E70248FFF73D
:101EB80013FFDBE77C610040AC4E0000006000408F
:101EC8004802002010B5154AC1239B00D3580F249F
:101ED8001C40002300E00133032B1ED81A004532B2
:101EE800FF3292000D495158090A1F220A409042B8
:101EF800F1D12200DA40D207EDD508481900453162
:101F0800FF3189000C58012294430C509A40C22199
:101F180089004250D8B200F0B5FF10BD0060004003
:101F2800F0B583B004000E006B46D81D00F0C6FF64
:101F3800194B98422DD16B46DA1DDB791F004037CB
:101F4800BF00164D4533FF339B00595914480140D3
:101F5800595158592402F82149010C403104C0262E
:101F6800B60231400C4304435C51AC46674400213F
:101F78003960107802004532FF329200515901232E
:101F8800194351518340C1229200AB50002003B045
:101F9800F0BD13204042FAE70000AD0B006000409E
:101FA800FFE0FCFFF8B50D00066943681C7A640180
:101FB8001F273B000B401C432000FFF783FF2740EF
:101FC800A021C9053B00C133FF339B005A5819486B
:101FD80002405A50F368EB40DB0729D57369EB40A0
:101FE800DB0710D5B369EB40DB0705D43369EB4059
:101FF800DB0706D5012100E003212000FFF790FF51
:1020080017E00221F9E73369EB40DB070ED403211F
:10201800A020C0053B00C133FF339B001A58054C74
:10202800224009040A431A50002002E00221EFE787
:102038000020F8BDFFFFFCFF10B50C4B1B78002BF0
:1020480001D0002010BD094B01221A700022012185
:102058000620FFF7C5F90620FFF7AAF9044AC123AD
:102068009B0080210906D150EBE7C0460003002001
:1020780000600040064B1B68002B05D1054B1B7800
:10208800002B03D0012000E0012070470020FCE76E
:102098001C210040020300200023024A1360024A68
:1020A800137070471C2100400203002096231B0276
:1020B800994200D17EE047D896239B01994200D1EE
:1020C8007AE00BD9E123DB01994200D17FE02BD9DB
:1020D800494B994235D180231B041AE09623DB0033
:1020E800994200D16AE00AD996231B01994200D18E
:1020F8006AE096235B01994213D1404B09E096238D
:102108005B0099425DD02D33FF33994206D19C2361
:102118009B023B493B4A8B500020704716204042A7
:10212800FBE716204042F8E7E1239B01994250D093
:102138009623DB01994201D1334BEAE7162040424E
:10214800EBE716204042E8E7E1239B02994243D09F
:102158000AD9E1231B03994245D01FD92B4B994239
:1021680046D180235B05D4E796235B02994235D09C
:1021780005D9E1235B0299420DD1254BC9E7254BCF
:1021880099422DD0E1231B02994201D1224BC0E78D
:1021980016204042C1E716204042BEE71F4B994235
:1021A80023D0E123DB02994201D11D4BB1E7162070
:1021B8004042B2E71B4BACE71B4BAAE79E23DB026E
:1021C800A7E7A0235B02A4E79D231B03A1E7174B06
:1021D8009FE7EC239B039CE7154B9AE7154B98E781
:1021E800E5231B0495E7144B93E78023DB0490E772
:1021F8001620404291E7C046127A000000B0130052
:10220800002000402405000000A04E0040420F00BE
:1022180000E0D701C0DA000000F0EB0090D0030026
:1022280000705F0700509D000050270000F0750007
:1022380000B0AF0300903A0100D0BE0E084B1B68F7
:10224800002B09D0064B00221A60064AA323DB00A4
:10225800D3580B700020704701204042FBE7C0466E
:102268000821004000200040024A9023DB00D0589B
:10227800D05070470020004030B583B005000C00F6
:102288004B79012B32D18B79032B32D1CB79002BAF
:1022980005D0012B0ED08620404203B030BD01ABE3
:1022A80000221A702379002B08D0022B1AD086201E
:1022B8004042F2E701AB01221A70F3E701AB0022BA
:1022C8005A7021682800FFF7F1FE002814D101AAEE
:1022D8005378127813430A490A4A8B502B6906CC63
:1022E80006C3DAE701AB0E225A70EAE786204042BD
:1022F800D3E786204042D0E786204042CDE7C0465B
:10230800002000406C050000F8B50F0016000024FE
:102318002500331B002B0CDDFFF7ACFE002808D08E
:10232800FFF7BAFE631C395D034A04481150DCB25A
:10233800EEE72800F8BDC046002000401C0500005C
:1023480030B500231800D41A002C0EDD074C246881
:10235800002C0AD0054800240460581C044DA3240E
:10236800E4002C59CC54C3B2ECE730BD082100403E
:10237800002000400E4B00221A700E4B01321A60EA
:102388000D4AC1239B008021D150EFF3108372B610
:102398000A4A1278002A04D00949802252000420EF
:1023A8008850002B02D162B6BFF36F8F7047C046CA
:1023B8000103002008200040002000400203002004
:1023C80000E100E0014B01221A7070470103002070
:1023D800024AC1239B000421D150704700200040CD
:1023E800024AC2239B000421D150704700200040BC
:1023F80010B50B4AC1239B00D3581B060BD5094BBC
:102408001B78002B01D0002006E0FFF733FE0028E0
:1024180003D0012000E0002010BD0020FCE7C046EA
:102428000020004001030020024B1868431E984119
:10243800C0B2704708210040034AC1239B00802195
:102448008900D1507047C04600200040034AC2238B
:102458009B0080218900D1507047C0460020004071
:1024680010B504000D4AC1239B00D3581B0607D49E
:102478000A4AC1239B00D3585B0707D4002010BD2C
:10248800FFF7B6FF0028F3D00120F8E72000FFF798
:10249800CBFF0028F3D00120F1E7C0460020004020
:1024A800024B1960024B1A607047C0466402002054
:1024B8006802002010B5114B1B78002B03D0104B7D
:1024C8001B68002B0ED10F4B1B68002B02D00D4B45
:1024D80000221A600C4B1B68002B02D00B4A1168B3
:1024E800984710BD0A4AC2239B008021D150094B4E
:1024F80001221A60014B00221A70F2E70103002042
:102508001C210040242100406402002068020020B1
:10251800002000400C20004070B50D0002F0A3FA26
:10252800002810D1642401220021164802F030FC52
:1025380000280BD12120002101F080FA013CE4B2EF
:10254800002CF0D102E00F4B01221A60FFF7A4FD26
:102558000D4B01221A600D4A0D4BD550FA24A400E8
:10256800FFF788FD002805D1013002F03DFA013C53
:10257800002CF5D1074B01221A60024B00221A6089
:1025880070BDC0466C0200200820004000200040BA
:102598001C0500000C200040F8B5214A0024A023A7
:1025A800DB00D450A023DB05A121C9008025AD00A4
:1025B8005D50FE3DFF3D1B4E9D511B4E9C511B4ED9
:1025C8000B2797511A4E023F9751802676005E508E
:1025D800E426F6009D51E525ED005C510823535093
:1025E800A223DB000A21D1500169FFF745FE041E32
:1025F80001D02000F8BD0A4AA023DB000421D150F5
:102608000C4B00211960012313600B4A1370002240
:1026180001310220FEF7E4FE0220FEF7C9FEE8E7DA
:1026280000200040240700002C07000014050000CB
:102638000C05000008210040020300200902090AD5
:102648005130FF308000014BC150704700100140ED
:102658005130FF308000014BC058704700100140D6
:102668005030800080B2034B9C46604400230360D6
:102678007047C0460010014080235B028340024936
:10268800D12292008B5070470010014080235B02DA
:1026980083400249D22292008B50704700100140BB
:1026A800014A024BD0587047001001400405000051
:1026B80070B5050001248440E143094802F094FB09
:1026C80080235B02AB400749C22292008B50BFF3C4
:1026D8005F8FBFF36F8F0440601E8441E0B270BD0E
:1026E800740200200010014070B5040002F015F9D2
:1026F800050080235B02A3401449C12292008A5836
:102708001A4205D10026280002F00BF9300070BDEE
:102718000121A140C9430E4802F066FB00280BD1F5
:10272800230050339B009BB2084A944663441B68BD
:10273800002B02D0012000E0012001231E000640EA
:102748000342E0D02000FFF78BFFDCE700100140D8
:102758007002002070B50400002900D170BD012569
:10276800290081400B4802F032FB80235B02A34022
:102778000949C12292008B50084802F01AFBE04038
:102788000542EBD0064A80235B0080218902D150A4
:10279800E4E7C046740200200010014070020020E7
:1027A80000E100E0F8B5CE46474680B58146140002
:1027B8001D001000190002F0ADF880461A4B2000E9
:1027C80029001E685F68801BB9411C605D60174B5B
:1027D8001A004244C0231B049A420BD3002401F080
:1027E80071FA4846FFF734FF404510D00CBC9046BC
:1027F8009946F8BD0E4B1B681D0A1C06424600236D
:1028080012196B410B4C226063600124E7E7002C2E
:1028180003D04846FFF730FFE8E78021090448461F
:10282800FFF70CFFF5E7C046500000200000E0FF6E
:10283800780200203800002070B50F4B1B681D0A75
:102848001C06BFF35F8FFFF72BFF03000021001961
:1028580069418022520393420CD2084B1A685B6884
:102868008B4202D806D1824204D980225204002326
:102878008018594170BDC0467802002038000020F9
:10288800F8B5060014001D001000190002F042F807
:102898000700FFF7D1FF02000B008D421BD9200073
:1028A8002900801A99410A1E2DD128D03201174BD0
:1028B8009B189A68DB68A24201D1AB4214D0390058
:1028C800300002F034F8390002F020F8020000234A
:1028D800A4185D4108E08D4201D18442DFD801216E
:1028E800B1400B4802F073FA084A360193199C600C
:1028F800DD600699B150079A5A600020F8BD802320
:102908005B049842D2D916204042F7E740000020E5
:1029180070020020F0B5D6464F4680B585B0040059
:10292800FFF7E2FE002804D105B00CBC91469A4698
:10293800F0BDFFF781FF03900D0001F0EEFF824626
:102948002201144B9B189E68DF68AF420CD9002502
:10295800504601F0E6FF002DE6D04B4600933200CA
:102968003B002000A847DFE7AF4202D1039B9E420D
:10297800EDD8084B2201D55899184868814600209F
:10298800D05001225242D3178A60CB602000FFF753
:102998007DFEDDE74000002010B50D4AC1239B00F5
:1029A800D3589B070AD50B4B1B68002B06D0094B45
:1029B80000221A60084A1368013313600024002CAF
:1029C80000DD10BD2000FFF7A5FF0134F7E7C04682
:1029D80000100140041101407802002070B582B057
:1029E800204AA123DB000021D1500023002B28DD41
:1029F8001C4CC125AD00022666511B4AC0235B0052
:102A080080218902D150002201211120FEF7E8FC23
:102A18001120FEF7CDFC66510123144A1360236090
:102A2800134A136000230193124B0093124A0023A8
:102A3800002001F0B9FF0220FFF740F8002002B0A3
:102A480070BD19010D4A521801204042C11790600B
:102A5800D160802252029A400248C1218900425026
:102A68000133C3E70010014000E100E00810014015
:102A780074020020AD270000FFFF7F004000002007
:102A880010B582B00400431C07D0013C002C06DDC1
:102A9800124B9C4204DD124C02E0114CF5E7002475
:102AA800FFF7CAFE0F4B1A685B68801A8021090479
:102AB800884200D3002424180134802109048C4260
:102AC80000D3074C2000002112184B410191064900
:102AD8000091002001F068FF02B010BDFEFF7F00EA
:102AE800FFFF7F0050000020AD27000010B5FFF762
:102AF800A3FE034B1A685B68801A994110BDC04653
:102B0800500000200B4B1B68FF221A400A4B196823
:102B180009090F230B40012A01D000207047032B1D
:102B280005D89B00054AD3589F460120F6E70020A8
:102B3800F4E7C046E00F00F0E80F00F04C57000043
:102B48000B4B1A68FF2313400A4A126812090F2117
:102B58000A40012B01D000207047022A05D0042A20
:102B680001D00020F8E70120F6E70120F4E7C0468D
:102B7800E00F00F0E80F00F00B4B1B68FF221A4033
:102B88000A4B196809090F230B40012A01D00020BC
:102B980070470C2B05D89B00054AD3589F46002048
:102BA800F6E70120F4E7C046E00F00F0E80F00F078
:102BB8005C570000014B024A1A6070471800002059
:102BC8000024F40010B5FFF79DFF002806D0134B32
:102BD800134A1A60134B802212021A60FFF7B0FFE3
:102BE800002805D08022D205C123DB000121D15065
:102BF800FFF7C2FF00280DD00B4B1B68012B06D036
:102C0800094B0A4A1A60084B1B68012BFBD1084B79
:102C1800C0221A60FFF7CEFF10BDC0460405004071
:102C2800DFFF07C0186C004000EC064075930000F9
:102C380014EC0640054B1B79002B05D1034B18609B
:102C480001221A71024870470248FCE77C02002002
:102C58000000AD0B0C00AD0B002802D0012825D0D8
:102C680070478021C9058322D2008B580320034076
:102C78008A58D20312D48022D205A323DB00002174
:102C8800D150104B00221A608022D205C1239B002C
:102C98000221D1500C4B01221A60E1E7012BEAD145
:102CA8000A00A323DB000121D150EAE7074B0022E9
:102CB8001A60013BFF3B0132C12189005A501A605A
:102CC800CEE7C04604010040080000400001004073
:102CD80070B5041E02D0012810D070BD8022D20524
:102CE800C2239B000221D150324B00221A60324B82
:102CF80001321A60012C0DD0304D48E001238021AB
:102D0800C905C22292008B502D4A002111602D4A1C
:102D18001360EFE72500294E14E08022D2058323B3
:102D2800DB00D55803210D40D358DB031BD4002307
:102D3800002BD2D0012DD0D1012001F055FE013E4B
:102D4800002ECAD0002CE8D0012C01D00023EFE7D8
:102D58008022D2051C4BD55801210D40D358DB03E6
:102D680003D40023E4E70123E2E70123E0E780221C
:102D7800D2058323DB00D358DB0316D40023002BB2
:102D8800ABD0012001F030FE013D002DA5D0002C74
:102D9800EDD0012C01D00023F1E78022D2050A4BA7
:102DA800D358DB0303D40023E9E70123E7E7012332
:102DB800E5E7C046040100400C0000401027000071
:102DC80000010040040000400C04000010B5194B3D
:102DD8001B68002B0CD0174B00221A608022D205EA
:102DE800C2239B000121D150134B1B680020984738
:102DF800124B1B68002B11D0104B00221A60802246
:102E0800D2058323DB00D158D3588B0707D1012380
:102E18001100A322D2008B50094A136010BD8022F2
:102E2800D205C2239B000221D150034B1B6801200D
:102E38009847F3E7000100407C02002004010040AD
:102E480008000040044BDA6B01238340180010404F
:102E5800431E9841C0B2704784020020012383407A
:102E6800024AD16B0B43D3637047C04684020020EB
:102E780001238340024AD16B9943D1637047C0460E
:102E88008402002070B5040001F0BCFD002801D1C7
:102E9800084870BDEFF3108572B62000FFF7E8FF11
:102EA800002D04D162B6BFF36F8F0348F1E70248E3
:102EB800EFE7C0460400AD0B0000AD0BF8B5CE46F9
:102EC800474680B5804600240F25154F13E02000A3
:102ED800FFF7C4FF43461C70124F002E02D162B6A2
:102EE800BFF36F8F0F4B9F4215D001234A46934083
:102EF8009D430134E4B2002D0DD0EFF3108672B675
:102F0800A1462B00E340DB07E7D52000FFF79AFF37
:102F18000028E2D1DBE738000CBC90469946F8BDA2
:102F28000200AD0B0000AD0B034B044A934201D2E3
:102F38001833FAE77047C046644E0000C44E0000DC
:102F480070B506008200104BD45809E0404216E0E4
:102F5800EB681870EA68537801210B435370083402
:102F6800731C9B00084A9B58A3420CD9656828002B
:102F780023689847002DF2D00028EBD0E6DBFF2825
:102F8800E6DDFF20E4E770BD9057000070B5051E30
:102F980026D00378002B25D0134C00E01834134BAF
:102FA8009C4208D0200001F035FD0028F6D02368A7
:102FB800AB42F3D112E00C4C00E018340B4B9C42AE
:102FC8000BD0200001F026FD0028F6D0216828004B
:102FD80001F0B7FA0028F0D100E00024200070BD0D
:102FE8000400FBE70024F9E7644E0000C44E00002B
:102FF800F0B589B00500A8244443134BE418060231
:10300800124BF61806AF0300114A0821380000F0E9
:1030180068FF68004519ED000E484519802205979C
:10302800012304930E330393002302930193009525
:10303800094B52003100200000F0E8F8637B0422BD
:103048009343637309B0F0BD5800002008070020BF
:10305800A8570000C4020020A34A000030B587B07A
:1030680000F04CFC1C4C1D4BDC6180221C4B059372
:103078000123049300230393029301930093194BB4
:10308800D2001949200000F0C1F80500637B042232
:1030980093436373200001F03BFD0024002C02DD04
:1030A800280007B030BD2000FFF7A2FFA822624326
:1030B8000E4BD21863001B19D900084B5B18DA6055
:1030C8001C75E2020A495218802109018C466244A3
:1030D8005A600134E2E7C04600010020C402002023
:1030E800B4570000FD3000000803002058000020FD
:1030F8000808002010B50124094B1C700220FFF7B6
:103108001FFF00F065FE0320FFF71AFF00F0D4F858
:10311800FDF746FA034A137BA343137310BDC04659
:10312800030300200001002010B50100014A0248F5
:10313800FEF704FAFD3000000001002010B5034836
:10314800034A121A002101F027FA10BD38000020A6
:103158000403002000B5ABB0124B80221201944644
:10316800634483F3088810490B6A104A1A40C02345
:103178001B0413430B6201F0BCF9FEF705F90123A8
:103188006A46537313730A4B9A60FFF7CDFE00200B
:10319800FFF7D6FE0120FFF7D3FEFFF75FFFFFF72B
:1031A800C3FFC0460808002000ED00E0FFFF00FF55
:1031B800C4020020EFF3108172B60C4B9B6A834265
:1031C80004D11A6F094B9A6209E01300002B02D050
:1031D8001A6F8242F9D1002B01D0026F1A670029B9
:1031E80002D162B6BFF36F8F7047C046C402002099
:1031F80010B51900114302D101F03BFC10BD183085
:10320800014900F0CFFCF9E74D4B0000F0B585B05F
:1032180004000F0015001E00030058338365C365C2
:103228000E9B04220D9901F028FC2A003900200089
:1032380001F014FC05000C9B02930B9B01930A9B65
:1032480000933300020039002000FEF75FF90023E5
:10325800636526660A9B63660B9BA3660C9BE36605
:10326800EFF3108272B6134B996A21679C62002AA9
:1032780002D162B6BFF36F8F0F9B002B12D02000D4
:1032880074301F22190001F035F993230022E2540B
:10329800084B9B68002B09D098229B58A350280004
:1032A80005B0F0BD74230022E254F1E79833002200
:1032B800E250F4E7C4020020F0B587B0204C214B5F
:1032C8009C4215D2E368A26861682068E56A0595A2
:1032D800256A0495E5690395A569029565690195CF
:1032E80025690095FFF792FF23685C653034E6E7AF
:1032F80000F0FEF8124C13E0D9175A0CCF0317430D
:10330800DE031148002180197941FA229200002336
:10331800FCF7E6FE02000B002800FFF769FF3034D7
:10332800084B9C4207D2636A5A1CF8D02568002BC8
:10333800E2DA0023E0E700F071FA07B0F0BDC0461A
:103348003400002034000020E703000010B501F02D
:10335800D5FC054B9861FDF7B5FF002800D010BDDE
:10336800FEF718F8FBE7C046C402002070B5040059
:10337800EFF3108572B601F06AFC002809D0A0238B
:103388000022C25001F0C4FB2900074800F092F85F
:1033980070BDA368E268934203D001229B18A36022
:1033A800F2E70022FAE7C046F002002030B583B009
:1033B800EFF3108172B68468002C09D0013C846058
:1033C800002902D162B6BFF36F8F002003B030BD71
:1033D8001C00144306D0009201930200054800F037
:1033E800CFF9F3E7002902D162B6BFF36F8F10203F
:1033F8004042EBE7F002002010B51900541C01D13F
:10340800013103D01830024900F0CCFB10BDC04692
:103418004D4B000010B5084B1B68002B00D110BDA8
:10342800FFF764FB0300044A1068C318034A1361DA
:10343800002101F077FCF2E7F8020020C402002026
:10344800F0B5C64600B5060088460023EFF310879E
:1034580072B60CE0134B1860134B42461A60FFF724
:10346800D9FF002F02D162B6BFF36F8F0123002B63
:1034780015D10E4B00221A61750CF4030C4800217B
:1034880000196941FA2292000023FCF729FE054B36
:103498001860002EE0DD0228DCDA0220DAE704BC3E
:1034A8009046F0BDF8020020F4020020C40200207B
:1034B800E703000010B5081E05D1EFF30583002BC4
:1034C8000CD1013300E00023DB0709D5074BDA698B
:1034D8009B689A4204D0FDF7B7FF06E00B00F3E7BC
:1034E800002802D162B6BFF36F8F10BDC40200205E
:1034F8000023EFF3108172B603E062B6BFF36F8F5B
:103508000123002B07D1044B9A68D37B013BD3736B
:103518000029F2D0F4E77047C402002070B5050016
:10352800104801F0EEFA041E0FD0002D10D10E4BFA
:103538009B685A7BD2060BD1A269002A08D1DA8986
:103548007F2A05D9084AD3610AE0074BDC68ECE713
:10355800054B9B68A34201D0FFF75CFF024BDC617F
:1035680070BDC046E4020020C402002070B505000A
:10357800427B0D23C356002B2ADB6A7B80235B42E8
:1035880013436B731A4B1C6A20339C422ED0002CB9
:103598000ED02100280001F08BFA002820DC002C36
:1035A80006D0134A526A944202D02468002CEED105
:1035B8000F4B5A6A1900203129606A6015605D62F4
:1035C8000B4B9868401B45426841FFF7A7FF70BD49
:1035D8007F231A4042730100064801F08AFACCE7BB
:1035E80063686B602C601D606560E9E70024CEE7C6
:1035F800C4020020E402002010B5EFF3108472B674
:103608001D4B9B681D4A126893421DD01B4A00211E
:1036180011601B4A1268002A24D0DA897F2A21D82F
:103628005A7BD2061ED10E215956164A126891426B
:1036380018DB154A934215D00F4A126982420BDDF6
:10364800101A0D4B186110E0FFF7E4FE002C11D1A1
:1036580062B6BFF36F8F0DE01800FFF787FFFFF723
:10366800D9FE02E0044B00221A61002C02D162B696
:10367800BFF36F8F10BDC046C4020020F0020020C7
:10368800F8020020F40200205800002070B5040061
:10369800427B0D23C356002B30DBD30606D183694A
:1036A800002B01D0002302E0013300E00023002BAF
:1036B80024D080235B421A436273154B1D6A203362
:1036C8009D4222D0002D0ED02900200001F0F0F9F3
:1036D800002814DC002D06D00D4A526A954202D00B
:1036E8002D68002DEED10A4B5A6A1900203121604D
:1036F800626014605C620020FFF710FF70BD6B68A9
:10370800636025601C606C60F5E70025DAE7C04659
:10371800C402002010B5EFF3108472B6437B59073A
:1037280005D4002C0CD162B6BFF36F8F08E00422D9
:1037380093434373FFF7AAFF21000248FFF7BAFE3D
:1037480010BDC046F402002010B50400427B0D23D2
:10375800C356002B07DB084B9868001B44426041A6
:10376800FFF7DCFE10BD7F231A40427301000348B7
:1037780001F0BFF9EFE7C046C4020020E4020020D0
:1037880010B50C001100064B9868064B1860029A99
:10379800039B01F039FA2000FDF756FE10BDC04624
:1037A800C4020020F002002070B50400183001F0B7
:1037B8008BFA0023EFF3108572B60BE07F231A40D3
:1037C80062732100134801F094F90AE062B6BFF36E
:1037D8006F8F0123002B12D1627B0D23E356002B40
:1037E800ECDB637B1022134363730B4B9868001B5D
:1037F80043425841FFF792FE002DE7D0E9E7064B18
:103808009B68A34200D070BDEFF3108072B601F040
:1038180059F9F8E7E4020020C402002010B500239B
:10382800EFF3108472B603E062B6BFF36F8F012323
:10383800002B0AD1084B9A68D37B0133D37300203D
:10384800FFF76CFE002CEFD0F1E7EFF3108072B6B3
:1038580001F038F910BDC046C4020020F8B50500D3
:10386800437B1A0746D408221343DBB22022934332
:1038780043735AB2002A15DBAB68002B0BD0280023
:1038880001F014F9290001F034F96B7B022293430B
:103898006B730023AB602800183001F015FA2F0075
:1038A80058371CE07F22134043730100124801F08F
:1038B80020F9E1E7200001F0F9F8210001F019F9F9
:1038C800637B0222934363730026A66020001830AE
:1038D80001F0FAF9A023E6502000FFF7D7FE3C6874
:1038E800BC4201D0002CE5D10120FFF717FE2800CB
:1038F800FFF760FCF8BDC046E402002010B5054B98
:103908001A0020321A625A6200210020FFF798FD3F
:1039180010BDC046C4020020F8B5EFF3108672B699
:103928001D4CA1684A7B7F2313404B732700203727
:10393800380001F0DEF8A5686A7B80235B421343F8
:103948006B73246ABC4225D0002C0ED021002800BD
:1039580001F0AEF8002817DC002C06D00E4A526A97
:10396800944202D02468002CEED10B4B5A6A1900FD
:10397800203129606A6015605D620120FFF7CEFD85
:103988003000FDF761FDF8BD63686B602C601D6059
:103998006560F2E70024D7E7C4020020F0B5C64608
:1039A80000B504000D0003000B4331D0022252423F
:1039B800D317121BAB41002B2EDD02267642361B95
:1039C800EFF3108872B61A4F1A4BBA681A601000D3
:1039D800FFF7BAFEB868183022002B00164900F02D
:1039E800E1F8BA68537B10210B4353734046FDF747
:1039F8002BFD3400002501F0BCF902000023A41AB5
:103A08009D41002D12DC0FD0002004BC9046F0BD73
:103A1800FFF782FF0020F8E7002B01D1002ACCD164
:103A280001F0A7F90619CBE7002CEDD02000ECE750
:103A3800C4020020F00200204D4B000010B50B001E
:103A4800421C0BD0FFF7AAFFC117FA2292000023ED
:103A5800FCF766FB4904C00B084310BD0133F1D1E4
:103A6800034B9868FFF7A0FE01204042F5E7C046E7
:103A7800C4020020014B98687047C046C402002069
:103A880070B50400EFF3108572B62E00437B1B0758
:103A980005D5002D02D162B6BFF36F8F70BDFFF759
:103AA800DDFE094B9B68A34205D0002EF6D162B615
:103AB800BFF36F8FF2E7EFF30583002BF5D12800F2
:103AC800FDF7C2FCF1E7C046C402002010B5064865
:103AD800064A121A064900F03FFD064A06490748F9
:103AE80000F03AFD10BDC046000000203400002060
:103AF800F057000000000000F05700000000002010
:103B0800034B1868984200D070470020FCE7C04675
:103B18001C000020002804D0034A5268904201D0BB
:103B2800006870470020FCE71C00002010B5044B1B
:103B38001B68002B01D0002010BDFEF7D7FFFBE764
:103B4800FC02002070B5FFF7DBFF0400FFF7EEFF73
:103B5800002C19D0226963690400C517121BAB41F8
:103B6800002B04DD1000002B07DD0C480DE0002BB6
:103B780001D1002AF6D1002007E0002B05D18023CF
:103B88001B069A4201D3F0E70448054B1B69002B3A
:103B980002D0834200DA180070BDC046FFFFFF7FE5
:103BA800C4020020D0B5CE4600B585B0040000920E
:103BB8000193009E019F3B003200013206D0A160B4
:103BC8000023EFF3108272B6914645E00133F6D137
:103BD80005B004BC9146D0BD002B01D1002A52D1BA
:103BE800012200234FE0FFF7A1FF0290C3170393C0
:103BF800009E019F029A039BB6185F410122002391
:103C080092197B41226163613FE0921BBB412261B3
:103C18006361FFF77FFF002811D0066947692269B1
:103C280063699F4202DCF0D19642EED9B61A9F41F1
:103C3800066147614368636020601C604460002837
:103C480026D0FFF75DFF844229D04B46002B02D1D6
:103C580062B6BFF36F8F0123002BB9D10222524203
:103C6800D31700980199121A8B41002BBBDB124B1A
:103C78001E685F6836184F4102225242D317921BC2
:103C8800BB41002BA8DD22616361FFF739FFC2E762
:103C98000A4B5A682360626014605C60D1E7FFF7E2
:103CA80051FF002803D0064B1B698342CDD0002169
:103CB800FEF7E6FEC9E7C046A80100201C00002068
:103CC800C4020020F0B5C64600B50400FFF794FC16
:103CD800EFF3108572B6A8462C4B1C6009E062B65B
:103CE800BFF36F8FA36820009847EFF3108572B673
:103CF800A846FFF705FF041E20D002694069234B40
:103D08001B68D917884219DC16D0214D1600D71721
:103D18002868696880197941286069609B1A1B4A7C
:103D280013600022002322616361200000F0B6FFC7
:103D38004346002BD3D0D5E79A42E6D9002C0BD0C6
:103D4800124B19680A00CB1720696169801A9941DA
:103D580002000B00226163610D480C490A68D31701
:103D68000468456812196B410260436000230B60C8
:103D7800FFF7E8FE0021FEF783FE4346002B02D141
:103D880062B6BFF36F8F04BC9046F0BDFC02002002
:103D9800A801002070B50023EFF3108672B600204A
:103DA800002103E062B6BFF36F8F0123002B0BD114
:103DB800FEF79CFE04000025044B1868596800199A
:103DC8006941002EEED0F0E770BDC046A801002082
:103DD80010B5034A0349044800F077F810BDC046FF
:103DE80058520000BC570000C857000010B5064CD8
:103DF800064B9C4206D2A2686168200001F001F8D7
:103E08001434F5E7002010BD3400002034000020F1
:103E180070B582B004000579FCF798FB062801D03C
:103E280002B070BD267901236A461371257101A974
:103E38002000FCF78BFB00236A461371267101A949
:103E48002000FCF783FBEBE700280DD04268032332
:103E58001340012B04D0032B09D10368002B09D090
:103E6800002383600020704716204042FBE716209D
:103E78004042F8E716204042F5E703004068032275
:103E880002409960032A03D1186800225A607047DB
:103E98000020FAE70020704710B50C68002C0AD003
:103EA8008A684B689A4206DA013B9A4207D0531C4B
:103EB8008B60A05402E08B6801338B6010BD531CEB
:103EC8008B60A21800231370F8E70FB400B583B015
:103ED80004A901C90191FCF737FC03B008BC04B080
:103EE80018470CB400B583B004AB04CB0193FCF7BE
:103EF80039FC03B008BC02B0184707230B40018BFC
:103F0800072291430B4303837047F0B5C64600B5BB
:103F180006000F0090468168002903D00C1E06D0C9
:103F28000C6804E00C0002E0230021001C000029BA
:103F38000AD04D6843463A003000A847002CF3D019
:103F4800231EF2D02368F0E704BC9046F0BD038B33
:103F58000722110019401A4204D10368002B01D02E
:103F6800032004E0022903D0012906D0002070476D
:103F7800438B002BF8D10420F9E70368002B01D00C
:103F88000520F4E70020F2E770B50400008B072352
:103F98000340002A05DB5A1F012A0DD9042B32D011
:103FA80070BD230005CB05C1002323606360012198
:103FB8002000FFF7A2FFF3E70A00200060C860C2F4
:103FC800002222606260062B18D10B68002B07D0F4
:103FD800628B01326283002BF8D01B68002BF5D16D
:103FE80002212000FFF789FF2000FFF7B0FF00281B
:103FF800D6D0238B202213432383D1E7002120002E
:10400800FFF77BFFF0E700212000FFF776FF200095
:10401800FFF79DFF0028C3D0238B2022134323835F
:10402800BEE710B50C0000280BD000290CD0081DE5
:10403800FFF70AFF002803D1A3680322934306D1A0
:1040480010BD16204042FBE716204042F8E7162034
:104058004042F5E7F0B583B001900F0016001D004F
:10406800081D1900FFF709FF041E04D02B003200B9
:1040780039000198A04703B0F0BDF0B5C64600B5B9
:1040880080460C0017001E0005E0656033003A000A
:104098004046FFF7DFFF2168002905D00D6825603D
:1040A80063688B42F2D1F0E704BC9046F0BD10B5CE
:1040B800EFF3108272B641610121FCF76BFB10BD72
:1040C80070B505000C0000280ED000290FD00B6831
:1040D800002B0FD04B68002B0FD01C22002100F0C2
:1040E8005BFA2C61002070BD16204042FBE71620C9
:1040F8004042F8E716204042F5E716204042F2E732
:1041080010B50400080011001A00A047FFF7B2FC20
:10411800FDF730FBF0B5131D9B001C58002C1AD17D
:1041280001239340C4682343C360043292001150B2
:10413800CB00C318802212028468944207D3996086
:10414800806880221202904203D3D960F0BD998022
:10415800F6E7D980FAE7E2008218866880231B0216
:104168009E421CD39368CD00451980273F02BE426A
:1041780017D3AB60802636028768B74213D3EC604A
:10418800DB00C318802424028568A5420DD3D960BA
:10419800806880231B02984209D39160D6E79388F0
:1041A800E1E7AB80E6E7EC80EAE7D980F0E79180C9
:1041B800CCE770B504000D00826880231B029A4288
:1041C80007D3CB00C3185B685B08012B02D0002320
:1041D80000E00023002B18D1EB00E318802109022E
:1041E8008A4213D35B685B08802109028A420FD395
:1041F80008200830C008181A0130FBF753FF1F22A7
:10420800121A29002000FFF785FF70BD5B88EAE7D6
:104218000420EEE7F0B5C64600B58023DB029A42DB
:1042280029D30825551BCC1D07239C4349199943BD
:104238000B1B9846DD0827000460A5600023E36097
:1042480080231B029D4218D308200830C008281A72
:104258000130FBF727FF2023181A011D89000731B9
:10426800CB089C460023834209DA1A1D92000026D7
:10427800D6510133F7E70425D4E70420E5E7634680
:104288005B0080221202954241D3636080231B02A7
:104298009D423ED30023236080231B029D423BD3D3
:1042A80001236268134363606346EA1A50000723D8
:1042B80099436318802109028D4232D358608021C6
:1042C8000902A06888422ED3614619600723454633
:1042D8009D43651980231B02A168994226D30023B8
:1042E8006B6080231B02A168994222D32A60802335
:1042F8001B02A2689A421ED301236A6813436B60AB
:1043080061462000FFF755FF04BC9046F0BD63806E
:10431800BCE700232380BFE763880122134363803F
:10432800C2E75880CBE761461980CFE700236B804E
:10433800D7E72A80DBE76B88012213436B80DFE72E
:1043480010B504000268002011780B00303B092BDF
:1043580007D883001B185B0001325B18303B18003C
:10436800F2E7226010BDF0B5DE4657464E46454698
:10437800E0B583B006000C0001929A460C9DD378F4
:104388004122524293469B446F2B0FD006D9702B83
:104398000FD0782B10D1683B984625E0582B02D0D7
:1043A8000A23984620E0483B98461DE00823984693
:1043B8001AE01023984617E00A23984614E05B4653
:1043C800192B1FD8D2B23732D2B2013D2A704A46D1
:1043D800002330002100FBF783FEA74218D815D030
:1043E800554515D906000C00C14600274246002352
:1043F80030002100FBF774FE092AE0D8D2B230322F
:10440800D2B2E2E7D2B25732D2B2DEE7B145E7D94B
:10441800019B1B789B0604D54346082B09D0102B1B
:104428000DD0280003B03CBC90469946A246AB4646
:10443800F0BD01998B78082213438B70F1E701993D
:104448008B78102213438B70EBE7F0B5C64600B5A6
:1044580007000E009846002407E0551C107831002C
:10446800B84700280ADB01342A004245F5D3434601
:10447800002B02D11378002BEFD1200004BC90460A
:10448800F0BD704710B504000C22002100F084F83C
:10449800200010BD10B500F0CBFA10BD10B501001A
:1044A8000068FFF7F7FF10BD10B500210120FFF7E6
:1044B800F1FF10BD10B5FCF7C5FFFDF76FF810BD93
:1044C800704710B5FFF7FCFFFEF738FEFFF7FEFA5E
:1044D800FDF7DEF8FEF73EFE0020704710B500231A
:1044E8001370032901D0002010BD1100FDF766F8F4
:1044F800FAE7704710B50300002A0BD00C78002C9F
:1045080008D01C7001310133013AF5E70021197018
:104518000133013A002AF9D110BD030000201A78AE
:10452800002A02D001330130F9E770470300002068
:104538001A78002A04D0884202D201330130F7E702
:10454800704703780A78934204D1002B02D00130D7
:104558000131F6E7981A704710B503004B409B07E6
:1045680001D0030015E003009C070AD0002A12D0EE
:104578000C781C70013A01310133F5E710C910C3FA
:10458800043A032AFAD804E00C781C70013A013185
:104598000133002AF8D110BD30B5CCB203009D0715
:1045A80005D0002A13D01C70013A0133F7E7FF2524
:1045B8000D4029020D4329042943032A05D902C3C2
:1045C800043AFAE71C70013A0133002AFAD130BDE7
:1045D800012040427047EFF3108372B6002B02D1DE
:1045E80062B6BFF36F8F0020704784B001900291CC
:1045F8000392C0B2062801D004B070478022D205C9
:10460800A023DB000121D150BFF34F8F20BFFDE76E
:1046180084B001900291039262B6BFF36F8F04B029
:1046280070470B0002694900C918890038315018D1
:1046380070474068C900401870470269C800401AAE
:1046480080001018704710B5C9B2FFF7EAFF8368F9
:104658000720184010BD30B5EFF3108372B602681A
:10466800C02425001540144201D08D4208D10122F2
:1046780002600020002B02D162B6BFF36F8F30BDFD
:1046880001204042F6E730B5EFF3108372B60568B3
:10469800C0242C4007222A40012A09D08C420AD083
:1046A80001204042002B02D162B6BFF36F8F30BDAC
:1046B80001600020F6E778204042F3E7EFF310822C
:1046C80072B6C02301680B4002210B430360002A25
:1046D80002D162B6BFF36F8F7047F8B504000D00C2
:1046E800FFF79FFF06684768002303600830FFF75D
:1046F800E5FF002E03D03A0029002000B047F8BD9E
:1047080070B504001600CDB22900FFF78AFF083003
:104718003100FFF7A0FF002806DB29002000FFF783
:1047280088FF43689847002070BD10B58022FFF7C6
:10473800E7FF10BDF0B583B0070015000193CCB2B8
:104748002100FFF76EFF060008300899FFF79BFF6E
:10475800002809DB3560019B736021003800FFF7F2
:1047680068FF03689847002003B0F0BD10B582B019
:1047780080240094FFF7DEFF02B010BD10B51400CE
:10478800C9B2FFF75AFF0021A04710BD10B501209C
:10479800FEF762FA10BD10B50020FEF75DFA10BDF5
:1047A80010B50120FEF794FA10BD10B50020FEF7F1
:1047B8008FFA10BD10B51000FEF7D8FD10BD00200F
:1047C800704743685A68A223DB00D3580B60002067
:1047D800704743685A68A123DB00D1500020704716
:1047E80070B50069051D4368002B1DD00E0000241C
:1047F8000AE00B6843606C68A64210D16B600EE05B
:104808006C600CE01C001B68002B0BD09E42F9D199
:10481800002CEED00B6823606B689E42F0D000231A
:104828000B6001E0002A0CD0002A0DD043680B6011
:1048380041606B68002B01D0002006E06960002011
:1048480003E01620404200E0002070BD70B5046906
:1048580045682D7A6D011F260E403543A026760245
:10486800B24229D08025AD01AA4232D001258D401F
:10487800E6683543E560A0256D02AA422FD00122E3
:104888008A40656995432A006261C022D202934238
:104898002AD001228A40A56995432A00A261802274
:1048A800D202934225D001238B4022699A431300F8
:1048B8002361FDF777FB70BD1F263540C135FF35F5
:1048C800AD00A026F605AD59ED07CBD586204042B0
:1048D800F1E701258D40E668AE433500CAE70122BD
:1048E8008A4065692A43CFE701228A40A5692A439D
:1048F800D4E701238B4022691343D9E7036905CB29
:1049080005C100207047012070477047401A000217
:10491800000A70470002000A7047EFF3108072B671
:104928007047002802D162B6BFF36F8F7047F8B5A1
:1049380006000D022D0AFDF78BFE07001AE0123063
:1049480000F01FFA23E03000FDF78AFE3000FDF783
:1049580093FE29003000FDF771FEFDF7A1FE8442A9
:1049680020D0811C2800FFF7D1FF80231B04984228
:1049780018D92F00FDF794FE040001003000FDF760
:104988005DFE21003800FFF7C1FF0128D7D0A71C22
:1049980039002800FFF7BAFF80231B049842D2D9B8
:1049A8003D00D0E72800F8BDF0B583B0040017003B
:1049B8001D00FDF77DFE0600099B0193089B0093EF
:1049C8003A002B002000FDF75BFF050031002000B6
:1049D800FDF7C0FE280003B0F0BD10B50020FCF7BD
:1049E800E7FE10B5804710BD10B500F0CAF910BD3C
:1049F80010B50020FCF7E8FC002800D010BDFCF73B
:104A0800D7FCFBE7012383400F201840431E984141
:104A1800C0B27047002809D0C3681888C005C00D07
:104A28000138FF3843425841C0B270470020FCE7C4
:104A3800F8B505000E00EFF3108772B6FFF71AF805
:104A4800040031002800FFF7C8FF002F02D162B62A
:104A5800BFF36F8F2000FCF78DFEF8BDD01D072334
:104A6800984308187047EFF30580431E9841C0B279
:104A7800704710B5FEF74EFE10BD10B500248460D7
:104A8800037342738173C4738461C46110BD10B52C
:104A9800FCF7DAFBFFF739FF10BD10B5EFF3108311
:104AA80072B6FEF753FCF9E700207047806870473C
:104AB8000E23C3560E200856834201D0C01A7047F1
:104AC8000020FCE710B5002805D1EFF30583002B83
:104AD8000AD1013300E00023002B07D1002802D1BE
:104AE80062B6BFF36F8F10BD0023F5E7FCF7ACFC8F
:104AF800F9E74A680B6813605A6000230B604B6043
:104B0800704703000068834200D070470020FCE72C
:104B180070B504000023EFF3108572B607E020009B
:104B2800FEF7B4FD0AE062B6BFF36F8F0123002BD6
:104B380007D12000FFF7B8FF0028F0D0002DF2D0F1
:104B4800F4E770BD70B504000500183D0023EFF3CD
:104B5800108672B61CE02800FFF7A8FF2900FFF7AF
:104B6800C8FF6B7B022293436B730023AB60220068
:104B7800183A537B04218B430C318B435373280021
:104B8800FEF784FD002E02D162B6BFF36F8F0123BA
:104B9800002B0BD12300183B5B7B28221A42F1D152
:104BA8002300183B9B68002BD5D1E0E770BD70B59A
:104BB80005000E00FEF7C8FD6B7B022213436B73E2
:104BC800002E18D0AE603468A6421BD0002C0DD041
:104BD80021002800FFF76CFF00280DDC002C05D011
:104BE8007268944202D02468002CEFD173682E605A
:104BF8006B601D60756070BD63686B602C601D60C4
:104C08006560F8E70024E1E7F8B5CE46474680B589
:104C180005000F00914698460024EFF3108672B6FF
:104C280003E062B6BFF36F8F0124002C06D1390070
:104C38002800FFF7BCFF002EF3D0F5E74A464346AD
:104C48002800FEF7D9FB0CBC90469946F8BD70B514
:104C580006000023EFF3108572B6002414E0FFF776
:104C680025FF2100FFF745FF637B0222934363730F
:104C78000023A3602000183000F026F8002D02D190
:104C880062B6BFF36F8F0123002B05D13000FFF709
:104C980038FF041EE3D1F1E7200070BD70B50400B1
:104CA800FEF738FF002807D002694369256966695D
:104CB80052197341026143616268236813605A6044
:104CC80000232360636070BD70B505000024EFF316
:104CD800108672B61620404209E02800FFF7DEFF72
:104CE8002000002E02D162B6BFF36F8F0124002C82
:104CF80003D12B68002BF0D1F3E770BD10B500236A
:104D0800EFF3108472B60120404203E062B6BFF3AD
:104D18006F8F0123002B04D1FEF714FF002CF5D070
:104D2800F7E710BDF8B506000F000024EFF3108573
:104D380072B60CE0012401231C40012801DD002C7F
:104D48000FD1002D02D162B6BFF36F8F0124002C62
:104D58000ED1FEF7F7FE431CECD0B042EBDB01248A
:104D6800E9E7B04200DD30003900FDF789FEE8E7E9
:104D7800F8BD10B5FFF70EF810BD10B5FFF70AF82B
:104D880010BD10B5002800D110BDFCF727FDFBE7CA
:104D980010B5EFF3108372B604688C4206D0002079
:104DA800002B02D162B6BFF36F8F10BD02600120E5
:104DB800F6E7006870470300EFF3108272B60068E8
:104DC8001960002A02D162B6BFF36F8F70470300E3
:104DD800EFF3108272B6006801431960002A02D10D
:104DE80062B6BFF36F8F70470300EFF3108272B69D
:104DF800006801401960002A02D162B6BFF36F8FC4
:104E0800704710B503000C33C3600361FFF702FA63
:0C4E180010BD704700480047CD2B000083
:084E240054B3FF7F0100000000
:104E2C00DF45000000000000F53D00000000000020
:104E3C0069190000644E0000A12500007C4E0000A2
:104E4C00691B000000000000E5290000944E0000E2
:084E5C0041200000AC4E0000F3
:104E640084560000A05600008C5600002400002048
:104E7400EC010020E24F0000EC56000000000000AE
:104E8400F45600002C00002010000020DA4F00002F
:104E94004057000000000000000000003000002027
:104EA40000000000D64F000024530000E05600002C
:104EB400BC5600002800002048020020D04F00000B
:104EC400D52D0000EB49000000000000B1440000B3
:104ED4007C4E0000BD24000000000000B14400002E
:104EE40000000000B144000000000000B1440000D4
:104EF40000000000F91D000000000000B1440000A3
:104F040000000000B144000000000000B1440000B3
:104F140000000000B144000000000000B1440000A3
:104F240000000000B144000000000000B144000093
:104F340000000000B144000000000000B144000083
:104F440000000000B144000000000000A12900009E
:104F540000000000B144000000000000B144000063
:104F640000000000B144000000000000B144000053
:104F740000000000B144000000000000B144000043
:104F840000000000B144000000000000B144000033
:104F9400040000000D0000000100000008000000F3
:104FA4002800000060000000700000000D000000F8
:104FB4000C0000000E00000050000000740000000F
:0C4FC4009C000000FFFFFFFFFFFFFFFF4D
:104FD000FF7FFF7FFF7FFF7FFF7FFF7FFF7FFF7FE1
:0A4FE000FF7FFF7FFF7FFF7FFF7F51
:064FEA00FFFFFFFFFFFFC7
:104FF0000438FDD870470000416C61726D20636C0D
:1050000065617265640A0000416C61726D205374C1
:1050100061746520456E7472792D20436F756E74CE
:1050200020646F776E20657870697265640A00008D
:10503000416C61726D205374617465205469636BB7
:10504000204576656E74202D204E657720416C6179
:10505000726D0A00436F756E74646F776E205374BF
:10506000617465202D20456E747279206576656EB9
:1050700074202D20436F756E74646F776E20746991
:105080006D6520696E207365636F6E6473202D20DB
:1050900025640A00436F756E74646F776E205374D5
:1050A000617465205469636B206576656E742D208C
:1050B000436F756E74646F776E2074696D652069D7
:1050C0006E207365636F6E6473202D2025640A0063
:1050D00053544152545F5041555345206576656E97
:1050E0007420726563656976656420696E20436F1C
:1050F000756E74646F776E2073746174650A000056
:105100005061757365205374617465202D20456E60
:10511000747279202D20436F756E74646F776E20E2
:1051200074696D6520696E207365636F6E647320AA
:105130002D2025640A00000052657365742074698F
:105140006D65206576656E74207265636569766548
:105150006420696E20506175736520737461746595
:105160000A00000053544152545F504155534520AA
:105170006576656E7420726563656976656420691D
:105180006E2050617573652073746174650A000048
:10519000496E6372656D656E742074696D65206516
:1051A00076656E7420726563656976656420696EE4
:1051B0002050617573652073746174650A00000086
:1051C00049646C65205374617465202D20456E74AC
:1051D0007279202D20436F756E74646F776E207422
:1051E000696D6520696E207365636F6E6473202D31
:1051F0002025640A00000000496E6372656D656ECB
:10520000742074696D65206576656E7420726563BF
:10521000656976656420696E2049646C65207374E5
:105220006174650A000000005345545F54494D45C0
:10523000205374617465202D20436F756E74646F04
:10524000776E2074696D6520696E207365636F6E7B
:105250006473202D2025640A00000000496E6372EB
:10526000656D656E742074696D65206576656E7414
:1052700020726563656976656420696E2053657484
:105280005F54696D65207374617465202D20436FD0
:10529000756E74646F776E2074696D6520696E2019
:1052A0007365636F6E6473202D2025640A0000000F
:1052B00052657365742074696D65206576656E74DA
:1052C00020726563656976656420696E2053657434
:1052D0005F54696D652073746174650A0000000095
:1052E00053544152545F5041555345206576656E85
:1052F0007420726563656976656420696E207365E4
:10530000745F74696D652073746174650A000000D0
:10531000640500007C0500006A05000076050000B9
:10532000700500004750494F5F300000286E696CDF
:1053300029000000480A00006C0A00006C0A000006
:10534000540A00006C0A00006C0A00006C0A00009D
:105350006C0A00006C0A00006C0A00006C0A000075
:105360003C0A00006C0A00002A0A00006C0A0000D7
:105370006C0A0000600A0000300C00004A0C0000BB
:105380004A0C00004A0C00004A0C00004A0C0000C5
:105390004A0C00004A0C00004A0C00004A0C0000B5
:1053A0004A0C00004A0C00004A0C00004A0C0000A5
:1053B0004A0C00004A0C00004A0C00004A0C000095
:1053C0004A0C00004A0C00004A0C00004A0C000085
:1053D0004A0C00004A0C00004A0C00004A0C000075
:1053E0004A0C00004A0C0000860B00004A0C00002A
:1053F000DE0B00004A0C0000B20B00004A0C00005B
:105400004A0C00004A0C00004A0C00004A0C000044
:105410004A0C00004A0C00001E0C00004A0C000060
:105420004A0C00004A0C00004A0C00004A0C000024
:105430000C0C0000460D0000900D0000900D0000C7
:10544000900D0000460D0000460D0000460D0000C6
:10545000900D0000900D0000900D0000900D0000D8
:10546000900D0000900D0000900D0000900D0000C8
:10547000900D0000900D0000900D0000900D0000B8
:10548000900D0000900D0000900D0000900D0000A8
:10549000140D0000900D0000900D0000900D000014
:1054A000900D0000900D0000900D0000900D000088
:1054B000900D0000460D0000900D0000140D00003E
:1054C000560C0000460D0000460D0000460D000081
:1054D000900D0000560C0000900D0000900D000093
:1054E000900D0000900D0000580D0000140D0000FC
:1054F000740D0000900D0000900D0000740D000070
:10550000900D0000140D0000900D0000900D0000A3
:10551000140D0000A40F0000F4100000F4100000AF
:10552000F4100000F4100000F4100000F41000006B
:10553000F4100000F4100000F4100000F41000005B
:10554000F4100000F4100000F4100000F41000004B
:10555000F4100000F4100000F4100000F41000003B
:10556000F4100000F4100000F4100000F41000002B
:10557000F4100000F4100000F4100000F41000001B
:10558000F4100000F4100000F4100000F41000000B
:10559000F4100000F4100000F4100000F4100000FB
:1055A000F4100000F4100000F4100000F4100000EB
:1055B000F4100000F4100000F4100000F4100000DB
:1055C000F4100000F4100000F4100000F4100000CB
:1055D000F4100000F4100000F4100000F4100000BB
:1055E00026100000F4100000F4100000F410000079
:1055F000F4100000F4100000F4100000F41000009B
:10560000F4100000F4100000F4100000E20F00009D
:10561000F60F0000F4100000F4100000F410000079
:10562000F4100000F60F0000F4100000F410000069
:10563000F4100000F4100000A81000002610000074
:1056400070100000F4100000F4100000C20F000001
:10565000F410000026100000F4100000F410000008
:1056600026100000BE100000D0100000D410000072
:10567000D8100000DC100000E4100000EC10000066
:10568000F0100000434C4F434B0000003519000060
:105690003347000075470000000000004F4600003F
:1056A000B9180000191900009F470000B347000017
:1056B000511800003118000000000000911B00008C
:1056C000CB470000A11C0000DB470000BD1C000010
:1056D000CD1C000055480000E94700000000000014
:1056E000FFFFFFFF00000050000000005541525432
:1056F0005F300000452200002125000071220000DB
:105700008122000005490000112300004923000008
:105710007D230000CD230000F9230000D9230000E1
:10572000E9230000F9230000312400004124000097
:1057300055240000692400000F490000A92400003E
:105740007379735F636C6F636B000000322B000032
:10575000322B0000362B0000322B0000A62B00005D
:10576000A62B0000A62B0000A62B0000A62B0000F5
:10577000AA2B0000AA2B0000A62B0000A62B0000DD
:10578000A62B0000AA2B0000A62B0000A62B0000D1
:105790002C4E0000544E00005C4E0000644E000091
:1057A000644E0000F5FFFFFF69646C652025303210
:1057B000640000006D61696E0000000076322E37D3
:1057C0002E302D6E637331002A2A2A20426F6F74A7
:1057D000696E67205A6570687972204F5320627530
:1057E000696C64202573202573202A2A2A0A000068
:1057F0009D3E000001000000D9450000C7470000A1
:1058000000C20100000103000024F4001C0000207D
:045810001C00002058
:105814000000000000000000000000000000000084
:04000003000016F1F2
:00000001FF
