:10000000200D002091190000CF5100004919000077
:1000100049190000491900004919000000000000BA
:10002000000000000000000000000000D5150000E6
:1000300049190000000000007D150000A95E0000C5
:10004000C1160000C1160000C1160000C116000054
:10005000C1160000C1160000C1160000C116000044
:10006000C1160000C1160000C1160000C116000034
:10007000C1160000C1160000C1160000C116000024
:10008000C1160000C1160000C1160000C116000014
:10009000C1160000C1160000C1160000C116000004
:1000A000C1160000C1160000C1160000C1160000F4
:1000B000C1160000C1160000C1160000C1160000E4
:1000C000C1160000C1160000C1160000C1160000D4
:0C00D000C1160000C1160000C11600009F
:1000DC0053B94AB9002908BF00281CBF4FF0FF31A3
:1000EC004FF0FF3000F06CB9ADF1080C6DE904CEA7
:1000FC0000F006F8DDF804E0DDE9022304B07047F7
:10010C002DE9F047089E0D4604468E46002B40F024
:10011C0082808A42174646D9B2FA82F24AB1C2F1BB
:10012C00200105FA02F320FA01F1974041EA030E8F
:10013C0094404FEA1748230CBEFBF8FCB9B208FBFD
:10014C001CEE43EA0E430CFB01F098420AD9FB1853
:10015C000CF1FF3580F01681984240F21381ACF11E
:10016C00020C3B441B1AA4B2B3FBF8F008FB10338F
:10017C0044EA034400FB01F1A14209D93C1900F106
:10018C00FF3380F00181A14240F2FE8002383C44F2
:10019C00641A40EA0C4000211EB1D4400023C6E989
:1001AC000043BDE8F08702B9FFDEB2FA82F2002A02
:1001BC004FD1CB1B4FEA174E1FFA87F80121B3FB27
:1001CC00FEFC250C0EFB1C3345EA034508FB0CF327
:1001DC00AB4207D97D190CF1FF3002D2AB4200F2D1
:1001EC00E7808446ED1AA3B2B5FBFEF00EFB10556A
:1001FC0043EA054408FB00F8A04507D93C1900F177
:10020C00FF3302D2A04500F2D7801846A4EB0804B5
:10021C0040EA0C40C0E78B4208D9002E00F0AF80BA
:10022C000021C6E900050846BDE8F087B3FA83F162
:10023C0000294BD1AB4202D3824200F2B780841A20
:10024C0065EB030301209E46002EAAD0C6E9004EA2
:10025C00A7E7C2F1200C01FA02F3974020FA0CF048
:10026C004FEA174E21FA0CFC1843BCFBFEF1050CAF
:10027C000EFB11CC1FFA87F845EA0C4501FB08F37D
:10028C00AB4204FA02F409D97D1901F1FF3C80F06C
:10029C008B80AB4240F2888002393D44EB1A85B228
:1002AC00B3FBFEF00EFB103345EA034500FB08F3ED
:1002BC00AB4207D97D1900F1FF3C71D2AB426FD92B
:1002CC0002383D44EB1A40EA014178E7C1F1200CB9
:1002DC008B4022FA0CF71F4320FA0CF405FA01F3B9
:1002EC004FEA174E25FA0CF51C43230CB5FBFEF90F
:1002FC001FFA87F80EFB195543EA054509FB08FA66
:10030C00AA4502FA01F200FA01F308D97D1909F1A4
:10031C00FF3047D2AA4545D9A9F102093D44A5EBC6
:10032C000A05A4B2B5FBFEF00EFB105544EA0544D9
:10033C0000FB08F8A04507D93C1900F1FF352DD278
:10034C00A0452BD902383C4440EA0940A4EB0804F0
:10035C00A0FB02894C45C6464D4619D316D05EB15A
:10036C00B3EB0E0264EB050404FA0CFCCA404CEA35
:10037C000202CC40C6E900240021BDE8F0873146DA
:10038C0030460EE7AC46EDE6184601E74345E6D2AB
:10039C00B8EB020E69EB07050138E0E72846D3E716
:1003AC0060468FE78146BAE7614677E708464BE738
:1003BC00ACF1020C3D4415E702383C4426E700BF83
:1003CC00704700BF10B50B78022B14D0044607D829
:1003DC0023B90F4804F0D9FB072000E0012010BD21
:1003EC00033BDBB2022B10D80A4804F0CEFB0023EF
:1003FC0023710620F3E74B780A2B01D00720EEE798
:10040C00054804F0C2FB0720E9E70120E7E700BF3D
:10041C0038670000286700006067000010B50446CC
:10042C000B78022B0AD0052B1BD00BB1012010BD71
:10043C0001680F4804F0A9FB0720F8E74B780A2B5A
:10044C0001D00720F3E7016801390160094804F085
:10045C009CFB23680BB10720E9E7042323710620DA
:10046C00E5E7054804F091FB032323710620DEE742
:10047C0084670000C46700000068000010B50446E3
:10048C000B78052B23D8DFE803F00322221809117F
:10049C000168104804F079FB072019E00E4804F0BD
:1004AC0074FB002323602371062011E00B4804F039
:1004BC006CFB0223237106200AE0094804F065FB5B
:1004CC0023683C33236001232371062000E00120C4
:1004DC0010BD00BF30680000686800009468000020
:1004EC00C068000010B504460B781BB1032B07D075
:1004FC00012010BD0168074804F047FB0720F8E70E
:10050C00054804F042FB23683C332360012323712C
:10051C000620EEE7F06800002869000010B50446DC
:10052C000B78052B27D8DFE803F003262609171FC5
:10053C000168124804F029FB07201DE0016840F215
:10054C00DB53994201DD072016E03C3101600C4879
:10055C0004F01BFB07200FE00A4804F016FB0023F5
:10056C0023602371062007E0074804F00EFB0223EA
:10057C002371062000E0012010BD00BF5869000067
:10058C008C690000E0690000106A000008B504489E
:10059C000023036003490B70037104F082FA08BD59
:1005AC0044020020400200202DE9F04182B0FFF708
:1005BC00EDFF05F053FF4E01430146EAD0621B1AD2
:1005CC0062EB0102960046EA93769F0032463B1896
:1005DC0041EB0202D10041EA5371D800C30B43EA4C
:1005EC004146CF0B5E4803F097FADFF88481C8F8D8
:1005FC0000004FF48072022104F02EFAD8F80000AB
:10060C004FF48072032104F027FAD8F800004FF45D
:10061C0080721E2104F020FA1AE0012F02D0514AF8
:10062C0003211170012B02D04E4B05221A70012EA2
:10063C0002D04C4B04221A704A494B4804F04BFA36
:10064C0069E00133494A53704849474804F043FA7A
:10065C0005F004FF4B01420143EAD06C131A6CEB1A
:10066C0001024FEA820C4CEA937C4FEA830E6246FD
:10067C001EEB000341EB0202D10041EA5371D8009A
:10068C00C30B43EA4142C80B941B60EB0705642C77
:10069C0075F10003DCDB364B1868076983685B680F
:1006AC0001A99847064618B93A68019B5340019333
:1006BC0016B9019EC6F3C0062D4B1868D0F81080F1
:1006CC0083685B6801A99847074620B9D8F80020D1
:1006DC00019B5340019317B9019FC7F38007244B2B
:1006EC001868D0F8108083685B6801A998470346A6
:1006FC0020B9D8F80010019A4A40019213B9019B15
:10070C00C3F38073721E18BF0122012B08BF012F87
:10071C0083D1002A81D105F0A1FE4B01420143EAAD
:10072C00D066131A66EB0102960046EA93769F0098
:10073C0032463B1841EB0202D10041EA5371D8001A
:10074C00C30B43EA4146CF0B084B02221A705B786D
:10075C000A2B7FF676AF054B01225A7074E700BF67
:10076C00406A000050020020440200204C0200208D
:10077C005402002008B50B6801330B60014B1B6859
:10078C00984708BD00000020014B1860704700BF5F
:10079C000000002000B583B002460B4600210191F9
:1007AC0001A9034800F0C8F803B05DF804FB00BFD2
:1007BC008107000010B584B004460190029100211D
:1007CC00039101A9054800F0B7F8039B029A9342E4
:1007DC0001DA0022E254039804B010BD674B00000C
:1007EC002DE9F04383B0044608461546238B13F0DD
:1007FC00080F05D103F0070600230093019369E06D
:10080C00012909D043F02003238385F31188BFF31A
:10081C006F8F03B0BDE8F08343F010032383F4E73C
:10082C00204604F0F5F957E0D4F814904A4669468E
:10083C00204604F006FA00275AE023691F680621B7
:10084C00204604F0BEF94FF0000951E023695F68BF
:10085C000421204604F0B5F94FF0000948E0236963
:10086C009F680521204604F0ACF94FF000093FE0E9
:10087C00002246E0002244E043F00803238385F382
:10088C001188BFF36F8F002944D1009B2BB14B46CD
:10089C0042466946204604F04AFA17B125492046DB
:1008AC00B8474FF02003EFF3118583F31288BFF3A1
:1008BC006F8F238B23F008032383238B13F0100FEC
:1008CC002ED023F0100323830120268B06F007067D
:1008DC0000289AD00228A3D0002896D00128A3D0B3
:1008EC000328AAD00428B1D00528B8D00027B946CF
:1008FC00238B03F00708B045BAD0A268002AB9D000
:10090C0001221146002AB7D1009A002AB4D1002F37
:10091C00B2D1D2E74A464146204604F05AF9B4E730
:10092C0013F0200F04D023F0200323830220CCE704
:10093C000020CAE7694D00002DE9F04F93B0064640
:10094C000D469246039300249AF80000002800F00C
:10095C00D684252808D00AF1010A2946B047002878
:10096C00C0F2CE840134EFE70023069307930B9378
:10097C00089309930A930AF101089AF80130252B80
:10098C0001D001272CE00AF102088DF82330A8E1F0
:10099C009DF8203043F004038DF82030FFB108F1AE
:1009AC0001081CE09DF8203043F008038DF820303E
:1009BC00F4E79DF8203043F010038DF82030EDE77C
:1009CC009DF8203043F020038DF82030E6E79DF8A9
:1009DC00203043F040038DF82030DFE700274FB381
:1009EC0098F80030203B102BF8D801A252F823F0D5
:1009FC00BF090000E9090000E9090000CD09000069
:100A0C00E9090000E9090000E9090000E909000012
:100A1C00E9090000E9090000E9090000B10900003A
:100A2C00E90900009D090000E9090000E90900003E
:100A3C00DB0900009DF8203003F04403442B6DD0FB
:100A4C00CDF814809DF8203043F080038DF82030D1
:100A5C0098F800302A2B68D005A804F005FB059BFC
:100A6C00984512D09DF8203043F080038DF820304B
:100A7C000990C3F34003002860DB002213439DF868
:100A8C00202063F341028DF82020059B05931B78F1
:100A9C002E2B14BF002301239DF8212063F3410268
:100AAC008DF82120002B4BD0059B5A1C05925B78AE
:100ABC002A2B48D005A804F0D7FA0A909DF82030CC
:100ACC00C3F34003002847DB002213439DF820208A
:100ADC0063F341028DF82020DDF8148098F8003083
:100AEC004C3B2E2B00F2DC80DFE803F0CADADADABA
:100AFC00DADADADADADADADADADADADADADADADA4A
:100B0C00DADADADADADADADA38DA6ADA51DADADAD4
:100B1C00DADADADAC0DADADADADAB6009DF82030C4
:100B2C006FF386138DF820308AE79DF8213043F05F
:100B3C0001038DF8213043460133A7E701229DE7DD
:100B4C00DDF81480CAE79DF8213043F004038DF8DA
:100B5C00213002F10108C1E70122B6E708F10102D8
:100B6C0098F80130682B08D09DF82130022161F3F0
:100B7C00C6038DF8213090462BE09DF821300122E0
:100B8C0062F3C6038DF8213008F1020821E008F168
:100B9C00010298F801306C2B08D09DF8213003210C
:100BAC0061F3C6038DF82130904612E09DF8213098
:100BBC00042262F3C6038DF8213008F1020808E024
:100BCC009DF82130052262F3C6038DF8213008F11F
:100BDC00010818F8013B8DF82330A3F14102372AA4
:100BEC0000F25081DFE812F026014E014E014E0159
:100BFC002601260126014E014E014E014E014E01E9
:100C0C004E014E014E014E014E014E014E014E0160
:100C1C004E014E014E0113014E014E014E014E018B
:100C2C004E014E014E014E0126014E01130163008F
:100C3C002601260126014E0163004E014E014E0194
:100C4C004E012F0113013F014E014E013F014E0198
:100C5C0013014E014E0113019DF82130062262F35F
:100C6C00C6038DF8213008F10108B2E79DF8213058
:100C7C00072262F3C6038DF8213008F10108A8E7BA
:100C8C009DF82130082262F3C6038DF8213008F15B
:100C9C0001089DF8203043F002038DF8203098E7CE
:100CAC009DF821306FF3C6038DF8213091E79DF844
:100CBC002220012161F302028DF822209DF82120CF
:100CCC0002F07802402A00F0AA80632B00F0AE807C
:100CDC009DF82030C3F34002174367F341038DF8AE
:100CEC0020309DF8213013F0010F00F0DA80039BC7
:100CFC001A1D03921F68002FC0F2CB809DF8213083
:100D0C0013F0040F00F0DF80039B1A1D0392D3F83D
:100D1C0000B0BBF1000FC0F2CD80002309930A9301
:100D2C009DF8223003F007039DF82110C1F3C30195
:100D3C00012B00F0D180022B00F01681042B00F067
:100D4C006781032B00F07E819DF8209019F003033E
:100D5C00029340F07D819DF82330253B532B00F20C
:100D6C003382DFE813F081013102310231023102AA
:100D7C0031023102310231023102310231023102CF
:100D8C0031023102310231023102310231023102BF
:100D9C0031023102310231023102310231023102AF
:100DAC00310231023102310231023102310231029F
:100DBC00310231023102310231023102310231028F
:100DCC00310231023102310231023102C7013102EA
:100DDC00310231023102310231023102310231026F
:100DEC003102A101AB013102310231023102AB01FE
:100DFC0031023102310231020802C701EA0131022B
:100E0C0031028F013102C70131023102C7019DF855
:100E1C002220022161F302028DF822204EE79DF878
:100E2C00201041F001018DF820104EE7171E18BF5D
:100E3C0001274DE79DF82230042262F302038DF85E
:100E4C002230012744E79DF82230032262F302038B
:100E5C008DF822309DF8213003F07803402B7FF47D
:100E6C0037AF012734E79DF82230032262F30203E7
:100E7C008DF822309DF8213013F0780F3FF428AF15
:100E8C00012725E79DF8203043F001038DF8203031
:100E9C001EE79DF8203043F004038DF820307F428C
:100EAC002CE79DF92030002B02DB4FF0FF3725E7B4
:100EBC00099F23E79DF821306FF341038DF8213012
:100ECC004FF0FF3B29E713F0020F02D0DDF828B0FA
:100EDC0023E74FF0FF3B20E7CB1E042B04D8DFE8C1
:100EEC0003F00B1D29353500039B1A1D03921A685C
:100EFC00D317CDE9062306E0039B1A1D03921A684B
:100F0C00D317CDE90623012928D002297FF41CAF81
:100F1C00BDF91820D317CDE9062315E7039B07333A
:100F2C0023F0070303F108020392D3E90023CDE970
:100F3C000623E8E7039B073323F0070303F10802BA
:100F4C000392D3E90023CDE90623DCE7039B1A1DAA
:100F5C0003921A68D317CDE90623D4E79DF818300D
:100F6C00069300230793EFE6CB1E042B04D8DFE88F
:100F7C0003F00B1F35414100039B1A1D03921B68A4
:100F8C000693002307931EE09DF82330632B07D0B4
:100F9C00039B1A1D03921B6806930023079312E010
:100FAC00039B1A1D03921B680693002307930AE008
:100FBC00039B073323F0070303F108020392D3E9E1
:100FCC000023CDE9062301291CD002297FF4BCAEF5
:100FDC00BDF81830069300230793B5E6039B07333F
:100FEC0023F0070303F108020392D3E90023CDE9B0
:100FFC000623E8E7039B1A1D03921B680693002344
:10100C000793E0E79DF818300693002307939BE6BF
:10101C0008290BD0039B073323F0070303F10802C5
:10102C000392D3E90023CDE906238DE6039B073316
:10103C0023F0070303F108020392D3E90023CDE95F
:10104C00062381E6039B1A1D03921B6806937BE61D
:10105C00434652462946304604F083F80028C0F235
:10106C004F810444C2466FE429462520B04700282E
:10107C00C0F246810134DDF808900DF1460B4FF0BB
:10108C00000AA7E0DDF818A0BBF1000F08DB5946F9
:10109C00504604F05AF90AEB000BDDF8089099E081
:1010AC00504604F04AF9F6E7069B8DF83030DDF82F
:1010BC0008900DF1310B0DF1300A8BE019F0080F8F
:1010CC0005D119F0100904D04FF0200901E04FF0C0
:1010DC002B09DDE90623002A73F1000102DBCDE9BF
:1010EC00062309E0524263EB4303CDE906234FF09C
:1010FC002D0901E0DDF808900DF1460300930CABCF
:10110C0008AADDE9060103F0C2FF8246BBF1000F1D
:10111C00C0F290800DF14603A3EB0A039DF820204A
:10112C006FF386128DF820209B4540F28680ABEB46
:10113C00030309930DF1460B4CE0069830B9DDF82A
:10114C000890DFF8C4B1ABF1050A43E00DF146039A
:10115C0000930CAB08AA002103F099FF82469DF87E
:10116C00223043F010038DF8223078238DF8233091
:10117C00DDF80890CAE7069A9DF82130C3F3C30343
:10118C00072B06D8DFE803F0040C0E1012171C1EF8
:10119C001460DDF808900DF1460B4FF0000A19E0D1
:1011AC001470F6E71480F4E71460F2E72046E117B8
:1011BC00C2E90001EDE72046E117C2E90001E8E7CA
:1011CC001460E6E71460E4E7DDF808900DF1460BD7
:1011DC004FF0000ABAF1000F00F08E80ABEB0A0260
:1011EC00B9F1000F00D001329DF8221011F0100F50
:1011FC0026D00232099B134411F0400F01D00A9AF9
:10120C001344002F32DDFF1A9DF8203013F0040F29
:10121C002CD113F0400F18D0B9F1000F18D029467B
:10122C004846B04700286BDB0134DDF808903023CA
:10123C0002930FE00DF1460BCCE70DF1460BC9E71D
:10124C0011F0080FD6D00132D4E72023029301E02D
:10125C00302302933B465F1E002B07DD2946029884
:10126C00B04700284CDB01343B46F4E7B9F1000FE2
:10127C0005D029464846B047002841DB01349DF88B
:10128C002230C3F30012C3F3C003134305D0294625
:10129C003020B047002833DB01349DF8223013F0A6
:1012AC00100F06D029469DF82300B047002827DBF5
:1012BC000134099B03F1FF39002B07DD294630204F
:1012CC00B04700281CDB01344B46F3E75B46524623
:1012DC002946304603F045FF002811DB0444002F5B
:1012EC0007DD29462020B047002809DB0134013FE7
:1012FC00F5E7C246FFF728BBC246FFF725BB2046E1
:10130C0013B0BDE8F08F00BF4D6A00001B4B1B688B
:10131C00002B32D130B585B0184B01221A60184B16
:10132C0093E8070004AB03E90700164B63B104F024
:10133C0077F84FF02003EFF3118583F31288BFF396
:10134C006F8F114B1C680AE0002383F31188BFF3E5
:10135C006F8FEEE723460CB1236843B11C4634B1C2
:10136C00A368002BF6D0064A10789847F2E785F36D
:10137C001188BFF36F8F05B030BD7047040000209B
:10138C00600200202D5400005802002070B588B077
:10139C0006462A4C6D460146284603F0FDFE95E8AC
:1013AC00070084E807002078002845D0244B002251
:1013BC001A60B6F1FF3F0CD102F092FE4FF0200301
:1013CC00EFF3118583F31288BFF36F8F1D4B1C68ED
:1013DC0016E0A368590CD8031B4C1C4A00230019B7
:1013EC004FF0000444EB0101FEF772FE0121301AAC
:1013FC0005F005F8E0E723460CB1236843B11C4621
:10140C0034B16368002BF6D00C4A10789847F2E799
:10141C0085F31188BFF36F8F084B93E8070008AB77
:10142C0003E907000A4B0BB103F0E7FFFFF76EFF70
:10143C0002F0F4FF014B187808B070BD6002002078
:10144C0004000020580200203F420F0040420F00D1
:10145C0007540000014910220A60704710ED00E0AB
:10146C0072B6404080F31188BFF36F8FBFF34F8F7C
:10147C0030BF62B6BFF36F8F704700BF72B6494082
:10148C0081F3118820BF80F3118862B6704700BFCA
:10149C0043B2002B08DB00F01F005B09012202FAAB
:1014AC0000F0024A42F82300704700BF00E100E060
:1014BC004209054B53F8222000F01F00012303FAC8
:1014CC0000F01040704700BF00E100E0013143B272
:1014DC00002B08DB4901C9B203F1604303F56143FA
:1014EC0083F80013704700F00F004901C9B2014B9B
:1014FC001954704714ED00E030BFFFF7FDBF00BF7B
:10150C0008B50B4B0B4A22F07F029A60BFF34F8F4A
:10151C00BFF36F8FD3F8882022F47002C3F88820B1
:10152C0002F0D2FB03F0EAF800F012FA02F0D8FB5A
:10153C0000ED00E0000000000A4A9368C3F8A80020
:10154C0009490968C3F8AC1008494B6843F080534B
:10155C004B60002383F31188BFF36F8F9368D3F82C
:10156C00AC007047C8080020F86B000000ED00E0EC
:10157C0013498A684FF030001044EFF3098C80E86F
:10158C00F01F202080F31288BFF36F8F0D4F4FF0A8
:10159C000066CA698A603E60D2F8A8000023C2F8CF
:1015AC00A83080F3118804B5104600F073FABDE83A
:1015BC00044002F1300090E8F01F8CF3098870476A
:1015CC00C808002004ED00E01EF0040F0CBFEFF380
:1015DC000880EFF30980816911F8021C0229FFD001
:1015EC0001B503F0E2FD01BD10B4A2F120040D49D8
:1015FC0021F0010142F8081C42F8203C019B42F802
:10160C001C3C029B42F8183C039B42F8143C4FF0E4
:10161C00807342F8043C04650023C0F8A83010BC69
:10162C00704700BF754E0000164B9A68DAB110F186
:10163C00160F1AD010B4D2F89830A3F120048442BB
:10164C0005D8834208D98B4208D8002100E000213C
:10165C0031B9002010BC70470021F9E70121F7E7F0
:10166C00D2F89800F6E700207047D2F898308B42F9
:10167C0094BF0021012109B900207047D2F89800CD
:10168C00704700BFC808002008B50D461446084B2B
:10169C00986000F0FFF9204685F30988002163B6B5
:1016AC0081F31188BFF36F8F0022002303F0DCFB62
:1016BC00C808002001B572B60B4A906900281EBFFD
:1016CC000021916104F046FD62B6EFF30580A0F1B4
:1016DC0010004FEAC0000549014409C99847BDE80C
:1016EC000140034908470000C80800207C65000041
:1016FC0001170000044B9968D869884203D003494C
:10170C004FF080520A607047C808002004ED00E0DA
:10171C0010B51446124B9A6A9A6A9B6A13F4007FAE
:10172C000BD00F4B9A6B9B6A13F4004F05D021B171
:10173C000B4A936A23F400439362094B9A6A9B6A9F
:10174C0013F4807F01D1064B9B6A054A936A43F4DC
:10175C007F439362012103F03AFD2070002010BDFD
:10176C0000ED00E0074B9A6A9A6A9A6A9A6A9A6A3A
:10177C009A6A9A6A6FEA02426FEA12429A620020EF
:10178C00704700BF00ED00E070B505461646204BD3
:10179C009A6A9A6A9B6A13F0020F0CD01C4B586B16
:1017AC009B6A13F0800F25D039B1194A936A23F044
:1017BC008003936201E06FF01500154B9A6A9A6AE8
:1017CC009B6A13F0100F04D1114B9C6A14F00204A5
:1017DC0004D00F4B5C6814F400640ED10C4A936A6D
:1017EC0043F0FF0393620121284603F0F0FC3070B4
:1017FC00204670BD6FF01500DFE72946FFF714FF98
:10180C0004460028EAD080F309880224E6E700BFEA
:10181C0000ED00E010B5044600230B701B4BD86A9A
:10182C0010F002002DD1DB6A002B2BDB174BDB6A8F
:10183C0013F0804327D0A36933F8022C4DF60273C2
:10184C009A4210D003F1604303F626631B7863B908
:10185C000F4B1B787BB90F4B1B889BB293B1204667
:10186C00FFF780FF0EE020680CE00A4601212046BD
:10187C00FFF78AFF06E00A4601212046FFF748FFE2
:10188C0000E0002010BD1846FCE700BF00ED00E0B2
:10189C0029ED00E02AED00E070B58AB00C46224B31
:1018AC005968C1F30801002383F31188BFF36F8FCC
:1018BC0002F07F43B3F17F4F15D102F00C03082BDC
:1018CC0014D012F0080F0BD000260DF12702204681
:1018DC0003F082FC05469DF8273053B10AB070BD69
:1018EC0004460126F1E700263446EEE7002634468E
:1018FC00EBE72022214601A803F03BFD4EB1089BEB
:10190C00C3F308025AB96FEA53236FEA43230893CF
:10191C0005E0089B23F4FF7323F00103089301A94E
:10192C00284603F03EFCD9E700ED00E0024A53697B
:10193C0043F010035361704700ED00E0EFF30880B3
:10194C00EFF3098101B57246FFF7A6FF01BD00BF99
:10195C00002206E002F00F01094B0B4420211976FE
:10196C000132262A0ADC53B2002BF3DB03F160436D
:10197C0003F56143202183F80013F1E7704700BFA2
:10198C00FCEC00E0002080F31488BFF36F8F04F0B0
:10199C0079FD00200D490860BFF34F8F0C4880F390
:1019AC00088800F029F8202080F3118809484FF4AA
:1019BC000261401880F30988EFF314800221084378
:1019CC0080F31488BFF36F8FFFF79AFD94ED00E05E
:1019DC00200D0020A00E0020064B1868C0F3072035
:1019EC000023834205DA034A93600021116101331D
:1019FC00F7E7704790ED00E010B572B6002484F361
:101A0C001388FFF7E9FF234608E003F120010E4A93
:101A1C004FF0FF3042F821000133DBB2072BF4D931
:101A2C00002308E003F16001074A4FF0FF3042F851
:101A3C0021000133DBB2072BF4D962B6BFF34F8F11
:101A4C00BFF36F8F10BD00BF00E100E008B5084B7D
:101A5C009B68834202D002F029FE08BDEFF3058398
:101A6C00002BF8D0034A536843F080535360F2E7DD
:101A7C00C808002000ED00E008B5034B034A012123
:101A8C00034803F02FFC08BD0000012000000020DB
:101A9C00506A000008B5D0F89830203B0448036029
:101AAC0020234360034B8360012103F01FFC08BD1E
:101ABC006C02002000000B15064A90600B6823F0A6
:101ACC001F03034343F01003D3608B6843F00103FF
:101ADC001361704790ED00E010B5034C01232278A0
:101AEC0003F0D8FB207010BD0409002008B50023BA
:101AFC00084A127803F0CEFB10F1160F08D00346FB
:101B0C00072B05DC044A9360002111610133F7E7D0
:101B1C0008BD00BF0409002090ED00E0034B052236
:101B2C005A60BFF34F8FBFF36F8F704790ED00E09B
:101B3C00BFF35F8F014B00225A60704790ED00E0BD
:101B4C0038B50E4B1D68082D15D8FFF7F1FF002492
:101B5C00A5420AD9094B596804EB44029300194475
:101B6C002046FFF7A9FF0134F2E7054B1D70FFF784
:101B7C00D5FF002038BD4FF0FF30FBE76C6A00004A
:101B8C0004090020014B1860704700BF08000020BA
:101B9C004FF02002EFF3118382F31288BFF36F8FA3
:101BAC00044A0121C2F8401583F31188BFF36F8FEB
:101BBC000020704700E00140C0B24FF08043C3F8F2
:101BCC001C05BFF34F8F0549CA6802F4E062044B51
:101BDC001343CB60BFF34F8F00BFFDE700ED00E078
:101BEC000400FA0530B108B58001034B43F0010342
:101BFC00984708BD704700BF206700000048704739
:101C0C00C8020020034BC01A8010034B03FB00F0EA
:101C1C00704700BF88020020B76DDBB638B50546AB
:101C2C000C46FFF7EFFF01464022034803F07AFC15
:101C3C0001462846A04738BDEC64000030B583B09F
:101C4C0005460C46FFF7DEFF014640230093234672
:101C5C00054A064803F080FC011E01DB03B030BDD1
:101C6C002846A047FAE700BFAD550000EC64000021
:101C7C0008B510B101280DD008BD0021084803F0AB
:101C8C00DAFB836813F0070FF6D10021044803F048
:101C9C0037FCF1E70121024803F032FCECE700BF0E
:101CAC00EC64000010B54FF02003EFF3118483F3C4
:101CBC001288BFF36F8F134A136843F0020313604B
:101CCC0013F0010F08D1002384F31188BFF36F8F39
:101CDC009BB903F06DFC10BD4FF08043D3F80C247E
:101CEC00D3F80C3412F0010F01D10023ECE7FFF70D
:101CFC0085FF03F0F2FB0123E6E70021024803F025
:101D0C00FFFBE8E7D8020020EC64000008B50A4BA2
:101D1C00BFF35B8F53E8002F22F0020143E8001061
:101D2C000028F7D1BFF35B8F12F0010F00D008BD74
:101D3C0003F043FCFBE700BFD802002000B585B0E0
:101D4C00CDF800D0CDF804D00023029301230393E7
:101D5C006B46074A03F01CFC002805DB4FF480425D
:101D6C000023684602F014F905B05DF804FB00BFCF
:101D7C00DB55000008B5074B1B781BB1002001F0A8
:101D8C0057F908BD4FF4A57004F06CFB014B012210
:101D9C001A70F3E70509002070B5064600220121F0
:101DAC001046FFF793FB0020FFF772FB114801F080
:101DBC002BF9114B98421AD104F0F2F8002403E0ED
:101DCC000123AB601C44E4B2012C0ED821463046F2
:101DDC0003F031FB05462146304603F037FB07493B
:101DEC0002F0CAFF0028EBDA00E0002070BD6FF0B3
:101DFC000400FBE77D1C00000000AD0BB86A00007E
:101E0C0070B50546012807D14FF08043D3F81C3438
:101E1C0003F00303012B58D004F087F928B92E4B9B
:101E2C001B78002B41D0002300E001231C46002B23
:101E3C003DD04FF02003EFF3118683F31288BFF3EC
:101E4C006F8F24B94FF080430222C3F808234FF060
:101E5C008042D2F8183403F00303D2F8182412F499
:101E6C00803F2BD100221AB1012B29D0012D27D074
:101E7C00FCB13046FFF702FB4FF08043D3F8183526
:101E8C00002BE4D1154B1B68002BE0D0134B002228
:101E9C001A601B6801234FF08042C2F81835104AB3
:101EAC00C2F880310F4A1360D1E70123BEE7002648
:101EBC00C7E72120002102F0C7FBDDE70122D2E7B2
:101ECC0024B186F31188BFF36F8F70BD4FF0804340
:101EDC000222C3F80423F8E707090020040100409C
:101EEC0000E100E00800004010B50446104B012151
:101EFC00BFF35B8F53E8002F43E800100028F9D1A3
:101F0C00BFF35B8F1AB1631E012B0CD910BD0948AE
:101F1C0003F09CFA084900234B60CB6001238B60D3
:101F2C0002F046FFEFE72046FFF76AFFEEE700BF3F
:101F3C00DC020020EC6400007802002038B5044676
:101F4C00C5B20B4B1B6828469847012807D00A2CB2
:101F5C0007D0084B186883685B6829469847204669
:101F6C0038BD044B186883685B680D219847F0E70F
:101F7C000C000020E002002010B5044C2046FFF7B6
:101F8C0001FE2046FEF700FC10BD00BF491F0000FB
:101F9C0008B50648064B186004F08EF818B1FFF728
:101FAC00EBFF002008BD6FF01200FBE7046500009A
:101FBC00E002002070B443685E68324B1340324834
:101FCC00834227D012D8062B26D004D9B3F5801F14
:101FDC0009D1012016E00BB3022B01D1042011E032
:101FEC006FF015003FE06FF015003CE0274883428E
:101FFC0016D0B3F5A00F01D1032003E0B3F5800F89
:10200C003DD1022012F0100F0CD112F0200F2CD069
:10201C00012408E00720F5E70620F3E70020F1E7AC
:10202C000520EFE70324C2F3402312F4807F0CBF9A
:10203C000125002512F4007F06D012F4006F16D093
:10204C0001228A40C6F8082501F01F0143EA450326
:10205C0043EA840343EA002301F5E0714FF0A04208
:10206C0042F82130002070BC70470024DBE712F4EA
:10207C00806FE9D001228A40C6F80C25E4E76FF0A6
:10208C001500F0E70600F00006001000020040000A
:10209C0070B582B00023019300932E4B1C680CB9D1
:1020AC0000210AE069462C4803F023FB0190294BE0
:1020BC0000221A601B68F3E70131072926D801F1C9
:1020CC0040039B009AB201238B402448D0F80403B0
:1020DC000342F1D002F1804303F5C0431B68002B8F
:1020EC00EAD001F5A2731D4850F82300C0F3042078
:1020FC00012303FA00F0019B0343019302F1804397
:10210C0003F5C04300221A601B68D5E7019E16B97F
:10211C00DCB902B070BD124B596819B10D4649B10A
:10212C000D6807E00D4605E06DB12B4605B12B6837
:10213C0029461D460029EBD08A683240F4D04B6802
:10214C0005489847F0E72B46F2E7034803F09FFA5F
:10215C00DFE700BF7C610040346500000060004098
:10216C00E402002010B5144BD3F80443E4B200236E
:10217C0000E00133072B1DD803F5A2720E4951F86C
:10218C002220C2F304229042F3D124FA03F212F07B
:10219C00010FEED00A4603F5A27051F8201021F081
:1021AC00010142F8201001219940C2F80813D8B25D
:1021BC0001F068F810BD00BF0060004070B582B03F
:1021CC0004460D460DF1070001F078F81C4B9842BF
:1021DC0032D19DF8073003F140029200194E03F5FD
:1021EC00A27356F8231021F4473121F4407146F8BC
:1021FC00231056F82310240204F4F8542D0405F48B
:10220C0040352C430C4346F8234002F1804303F540
:10221C00C043002018601B689DF8071001F5A273DD
:10222C0056F8232042F0010246F8232001238B406C
:10223C00C6F8043302B070BD6FF01200FAE700BFAD
:10224C000000AD0B0060004008B50B4B1B780BB1C8
:10225C00002008BD084B01221A700022052106201F
:10226C00FFF734F90620FFF713F9044B4FF0004247
:10227C00C3F80423ECE700BF06090020006000400F
:10228C002DE9F04F8FB08846914601690E460491B6
:10229C0044680794D1F828A0228B03920025099555
:1022AC000A950B950C950D958DF825304FF0FF3256
:1022BC004FF0FF33084601F06BFE06F11003184691
:1022CC0006930022002301F063FE2046059401F0E2
:1022DC0013FB2E462C46029541E0002201920AB9CE
:1022EC00002C69D06A68A1180398814200F2B4806E
:1022FC0013F0010F59D06B681C44A4B2019B6BBB4B
:10230C00002C6DD158F80B300C936B680A932B7A18
:10231C0003F001028DF8242013F0020F64D0002288
:10232C0009A9059801F016FB514B98425ED14FF468
:10233C0080420023069801F02BFE0290002860D109
:10234C00049B1A6A4A4B9A4240F08E802B7A13F007
:10235C00010F02D00C9B9A4568D000243E464E4596
:10236C0070D206EB46054FEA850B08EB85052B7AF8
:10237C0013F0080F63D1771C4F45AED213F0020F48
:10238C000DD107EB470208EB8202127A12F0040F10
:10239C0007D15A4012F0010F05D000229EE700220F
:1023AC009CE700229AE7012298E758F80B1004EBFF
:1023BC000A0002F0DEFF9EE713F0010F9ED158F8E1
:1023CC000B1001F06043B3F1005F97D06A68079B74
:1023DC005B8B9A4244D8504602F0CBFFAC888DE719
:1023EC00CDF830A00A9492E7202299E70B3398425B
:1023FC0003D06FF00403029324E06FF00F030293F9
:10240C0020E0079C204601F087FAE168A06801F003
:10241C00C3FA6FF00403029314E0A41AA4B20AEBFB
:10242C00040158F8000002F0A4FF013E06EB46033D
:10243C00980008EB83035A689442EED28DE76FF054
:10244C0085030293079801F067FA049801F07CFD6C
:10245C0002980FB0BDE8F08F6FF01B030293F1E709
:10246C006FF015030293EDE76FF004030293E9E7B5
:10247C000000AD0B08B50378012B0CD0022B0DD04E
:10248C0013B1084B0B6201E0074B0B6201F110001A
:10249C0001F05AFD08BD054B0B62F7E7044B0B62CC
:1024AC00F4E700BF0100AD0B0000AD0B0100AE0B5B
:1024BC000200AE0B08B5034640681B69064A00F1E2
:1024CC00080101F0D5F9054B984201D1002008BD57
:1024DC006FF00F00FBE700BF812400000000AD0B84
:1024EC0043681A68B1F5164F6FD03AD8B1F5165F3C
:1024FC006ED00AD9B1F5E14F75D024D947F6122325
:10250C0099422BD14FF4000313E0B1F5966F61D0D3
:10251C0007D9B1F5166F63D0B1F5965F10D13C4B6E
:10252C0007E0B1F5967F58D0B1F5167F05D14FF481
:10253C001C33C2F82435002070476FF0150070472B
:10254C006FF015007047B1F5615F4ED0B1F5964F45
:10255C0001D1304BEDE76FF0150070476FF01500AF
:10256C007047B1F5613F42D009D9B1F5612F46D022
:10257C001FD9294B994248D14FF08053D9E7B1F577
:10258C00963F37D005D9B1F5E13F0FD14FF0EB7342
:10259C00CFE74DF6C02399422ED0B1F5614F02D151
:1025AC004FF46B03C5E76FF0150070476FF0150023
:1025BC0070471A4B994225D0B1F5E12F02D14FF05B
:1025CC00E863B6E76FF0150070474FF41D03B0E7F2
:1025DC00134BAEE74FF49E23ABE74FF4A033A8E7C1
:1025EC004FF41D23A5E70F4BA3E70F4BA1E74FF0CB
:1025FC006C739EE70D4B9CE74FF4650399E74FF026
:10260C00706396E74FF0806393E76FF015007047A7
:10261C0000B0130000A04E0040420F0090D0030009
:10262C000050270000C0750000F03A0000903A01FD
:10263C002DE9F04105460F46D0F8108003F075FDEA
:10264C0020B9164B1B78ABB1002300E001239BB1E2
:10265C004FF02003EFF3118483F31288BFF36F8FD5
:10266C002646284603F02CFA50B984F31188BFF3A0
:10267C006F8FEDE70123EAE7284603F042FB06469D
:10268C00414601F8147F0122284603F033FA86F301
:10269C001188BFF36F8FBDE8F08100BF07090020E0
:1026AC0038B504460D4601F1160000F055FE0C4BF2
:1026BC00984211D1AB7D04F590710C34094AA233C8
:1026CC0042F8331002EBC3035C60A97D01238B40FD
:1026DC00C2F80435002038BD6FF00400FBE700BFE2
:1026EC000000AD0B00F0014021F07F4100F5A87017
:1026FC00014B43F8201070470010014000F5A87002
:10270C00014B53F820007047001001404FF4803308
:10271C008340024AC2F84433704700BF00100140A6
:10272C004FF480338340024AC2F84833704700BFED
:10273C0000100140014BD3F8040570470010014014
:10274C0010B501238340DC43104ABFF35B8F52E882
:10275C00001F01EA040C42E800CEBEF1000FF6D1D6
:10276C00BFF35B8F4FF4803202FA00F002F180422B
:10277C0002F58052C2F80803BFF35F8FBFF36F8F6F
:10278C000B4214BF0120002010BD00BF44030020E9
:10279C0070B5044603F097FB05464FF48033A34015
:1027AC00174AD2F80423134205D10026284603F019
:1027BC0093FB304670BD0123A340DB43114ABFF3AA
:1027CC005B8F52E8001F01EA030042E80006002E6E
:1027DC00F7D1BFF35B8F59B904F150039B009BB247
:1027EC0003F1804303F588331B6813B1012300E028
:1027FC0001231E46002BD9D0204603F055FBD5E70C
:10280C00001001404003002001B9704701238340B0
:10281C00114ABFF35B8F52E8001F194342E8001CBA
:10282C00BCF1000FF7D1BFF35B8F4FF480338340C3
:10283C000A4AC2F80433BFF35B8F094B1B68BFF322
:10284C005B8F23FA00F010F0010FDED0054B4FF434
:10285C000032C3F80021D8E74403002000100140E7
:10286C004003002000E100E0F8B5074614461E4680
:10287C001046194603F024FB0546154B1A68A01A9E
:10288C001C605E60A5F50013B3F5400F08D300245F
:10289C0002F040F83846FFF731FFA8420CD0F8BDE3
:1028AC000C4B19680B0A0A06521943F100030A492A
:1028BC00C1E900230124EBE71CB13846FFF726FFE2
:1028CC00EDE74FF400013846FFF70EFFF5E700BFC8
:1028DC00D000002048030020B800002038B50D4B74
:1028EC001B681D0A1C06BFF35F8FFFF723FF03460F
:1028FC00201845F10001B3F5801F0AD2064BD3E92D
:10290C000023994208BF904203D210F1807041F12C
:10291C00000138BD48030020B80000202DE9F84321
:10292C00064614461D461046194603F0C9FA0746DA
:10293C00FFF7D4FFA94208BFA0421ED2B4EB000897
:10294C0065EB01094FF0807200234B4508BF4245EF
:10295C002ED3194B03EB0613D3E90223AB4208BF6A
:10296C00A24218D03946304603F0BBFA394603F080
:10297C0097FA241845F100050DE00123B3400F4AE6
:10298C00BFF35B8F52E8001F194342E80010002888
:10299C00F8D1BFF35B8F084B320103EB0616C6E987
:1029AC00024508999950099B73600020BDE8F88393
:1029BC006FF01500FAE700BFC000002040030020B4
:1029CC002DE9F04782B00446FFF7E2FE10B902B0E1
:1029DC00BDE8F087FFF782FF06460F4603F073FA57
:1029EC008246134B03EB0413D3E902894F4508BF0E
:1029FC0046450BD20026504603F06EFA002EE6D068
:102A0C00009542464B462046B047E0E7084A230172
:102A1C0002EB0411D6584D680020D0504FF0FF3215
:102A2C004FF0FF33C1E902232046FFF779FEE2E7BE
:102A3C00C000002010B50D4BD3F8043313F0020F77
:102A4C000AD00B4B1B683BB1094B00221A601B6868
:102A5C00084A1368013313600024002C00DD10BDFC
:102A6C002046FFF7ADFF0134F7E700BF001001402F
:102A7C00041101404803002030B583B000231F4AE5
:102A8C00C2F80835002B27DD1C4C0225C4F8045372
:102A9C001B4B4FF40032C3F880210022012111207E
:102AAC00FEF714FD1120FEF7F3FCC4F804530123C8
:102ABC00144A13602360144A136000240194134BCE
:102ACC000093134A0023204603F046FA2846FFF7EA
:102ADC000BFA204603B030BD0E4A02EB03124FF046
:102AEC00FF304FF0FF31C2E902014FF480329A40BF
:102AFC000249C1F804230133C4E700BF00100140B0
:102B0C0000E100E00810014044030020752800009B
:102B1C00FFFF7F00C000002010B582B0B0F1FF3F76
:102B2C0007D0441E002C07DD114B9C4205DD114CD7
:102B3C0003E000F50000F4E70024FFF7CFFE0E4B96
:102B4C00D3E90023801AB0F5000F00D3002404440D
:102B5C000134B4F5000F00D3064C00200190074956
:102B6C000091121943F1000303F0F6F902B010BD05
:102B7C00FEFF7F00FFFF7F00D000002075280000C3
:102B8C0008B5FFF7ABFE024B1B68C01A08BD00BFAF
:102B9C00D0000020064B1B68B3F1FF3F03D0062B7F
:102BAC0004D000207047034B1B78F8E701207047D6
:102BBC0030010010E00F00F0094B1A7808331B6845
:102BCC00C3F30313062A01D000207047033B002BEC
:102BDC0004D8DFE803F001000120704700207047A3
:102BEC00E00F00F0064B1B68B3F1FF3F03D0062B40
:102BFC0004D000207047034B1B78F8E70120704786
:102C0C0030010010E00F00F0094B1A7808331B68F4
:102C1C00C3F30313062A01D000207047033B002B9B
:102C2C0004D8DFE803F00100012070470020704752
:102C3C00E00F00F0064B1B68B3F1FF3F03D0062BEF
:102C4C0004D000207047034B1B78F8E70120704735
:102C5C0030010010E00F00F0094B1A7808331B68A4
:102C6C00C3F30313062A01D000207047033B002B4B
:102C7C0004D8DFE803F00100012070470020704702
:102C8C00E00F00F0094B1A7808331B68C3F30313E9
:102C9C00062A01D000207047033B002B04D8DFE844
:102CAC0003F001000120704700207047E00F00F096
:102CBC000D4B1A68B2F1FF3F05D00C4B1B68062A6E
:102CCC0008D0002070470A4B1A7808331B68C3F3EE
:102CDC000313F4E7033B012B04D8DFE803F00101F5
:102CEC0000207047012070473001001034010010A3
:102CFC00E00F00F0064B1B68B3F1FF3F03D0062B2F
:102D0C0004D000207047034B1B78F8E70120704774
:102D1C0030010010E00F00F0064B1B68B3F1FF3FD1
:102D2C0003D0062B04D000207047034B1B78F8E728
:102D3C000120704730010010E00F00F0084B1B68B9
:102D4C00084A1268062B01D000207047052A03D8C8
:102D5C00032A03D3002070470120704701207047DD
:102D6C003001001034010010084B1B68084A12682F
:102D7C00062B01D000207047062A03D8032A03D360
:102D8C00002070470120704701207047300100106F
:102D9C0034010010024BD3F80034002BFAD07047EA
:102DAC0000E0014008B5034BC3F80405FFF7F2FF40
:102DBC0008BD00BF00E00140014B024A1A60704799
:102DCC00940000200090D00338B5FFF7E3FE28B143
:102DDC00704B1B68C3F304236F4A1360FFF7ECFEC0
:102DEC0010B16E4B6E4A1A60FFF7FCFE28B16D4BAA
:102DFC001B68C3F342336C4A1360FFF705FF20B125
:102E0C006A4AD36823F08073D360FFF713FF40B195
:102E1C004FF080430022C3F80C21C3F81021C3F8F3
:102E2C003825FFF719FF10B1614B03221A60FFF729
:102E3C0029FF58B15F4B05221A60783301221A60C2
:102E4C00703B00221A60043B3F221A60FFF730FFF0
:102E5C00002846D04FF08052D2F80414564BC3F8D9
:102E6C002015D2F80814C3F82415D2F80C14C3F8A2
:102E7C002815D2F81014C3F82C15D2F81414C3F872
:102E8C003015D2F81814C3F83415D2F81C14C3F842
:102E9C004015D2F82014C3F84415D2F82414C3F802
:102EAC004815D2F82814C3F84C15D2F82C14C3F8D2
:102EBC005015D2F83014C3F85415D2F83414C3F8A2
:102ECC006015D2F83814C3F86415D2F83C14C3F862
:102EDC006815D2F84014C3F86C15D2F84424C3F822
:102EEC007025FFF707FF28B1344B1B6803F04F0325
:102EFC00334A1360FFF710FF60B14FF08043D3F8F3
:102F0C00003413F0010F05D04FF080436FF0010235
:102F1C00C3F80024FFF712FF20B12A4A136843F4C8
:102F2C0080631360FFF720FF38B14FF01023D3F804
:102F3C0008224FF08043C3F858254FF01023D3F8E4
:102F4C000032002B08DB4FF01023D3F80432002B97
:102F5C0002DBFFF731FF38BD0120FFF723FF4FF0F5
:102F6C0010241525C4F80052FFF714FFC4F80452BE
:102F7C00FFF710FF0020FFF715FFBFF34F8F12492B
:102F8C00CA6802F4E062114B1343CB60BFF34F8F5E
:102F9C0000BFFDE7240300104035014074C007401A
:102FAC000DF0ADBA440200103C050040F0ED00E01D
:102FBC00A00500401056004000C000405802001010
:102FCC00E40E00403C17004000ED00E00400FA0560
:102FDC000B4BD96841F08072DA600A4B186840F0EC
:102FEC0001021A605A68074B5B689B1AB3F50A5FBB
:102FFC00F9D3044B186003F55D43F033D960704787
:10300C00F0ED00E0001000E0064B1B793BB9054BDE
:10301C00186001221A7100225A7103487047034844
:10302C00704700BF4C0300200000AD0B0C00AD0B33
:10303C0008B510B1012827D008BD4FF08042D2F856
:10304C00183403F00303D2F8182412F4803F13D180
:10305C004FF080430022C3F81825114B00221A6050
:10306C001B684FF080430222C3F80423FFF7B0FF24
:10307C000C4B01221A60DFE7012BE9D14FF08043A2
:10308C000122C3F81825E8E7074B00221A601B68D9
:10309C004FF080430122C3F804231A60CCE700BF31
:1030AC0004010040080000400001004030B583B02E
:1030BC00044618B1012813D003B030BD4FF0804343
:1030CC000222C3F8082303F5827300221A601B68DE
:1030DC00394B01221A60012C0FD042F2107552E0CC
:1030EC0001234FF08042C2F8083302F580720021B0
:1030FC0011601268314A1360EDE701238DF8073037
:10310C0042F2107518E04FF08042D2F8183403F0F8
:10311C000303CDF80730D2F8183413F4803F20D1D4
:10312C000023002B42D09DF80730012B3ED101200B
:10313C0002F032FF013D39D0002CE4D0012C01D03B
:10314C000023EEE74FF08042D2F80C3403F0010379
:10315C008DF80730D2F80C3413F4803F03D10023E0
:10316C00DFE70123DDE70123DBE74FF08043D3F8F2
:10317C00183413F4803F15D10023BBB1012002F0A9
:10318C000BFF013D12D0002CEFD0012C01D00023FD
:10319C00F3E74FF08043D3F80C3413F4803F03D1A2
:1031AC000023EAE70123E8E70123E6E7012C83D1BA
:1031BC00034B00225A717FE70C00004004000040D2
:1031CC004C03002008B51B4B1B6883B1194B002224
:1031DC001A601B684FF080430122C3F80823164B7A
:1031EC005B7923B9144B5A711B6800209847134B19
:1031FC001B689BB1114B00221A601B684FF0804377
:10320C00D3F81824D3F8183412F0030F07D1012384
:10321C004FF08042C2F818350832136008BD4FF0E9
:10322C0080430222C3F80823034B1B6801209847F4
:10323C00F4E700BF000100404C03002004010040F3
:10324C00044BDA6C012383401A4214BF0120002086
:10325C00704700BF54030020012303FA00F0024A18
:10326C00D36C0343D364704754030020012303FA47
:10327C0000F0034AD36C23EA0003D364704700BF09
:10328C005403002038B5044602F093FE08B90948EF
:10329C0038BD4FF02003EFF3118583F31288BFF391
:1032AC006F8F2046FFF7E2FF85F31188BFF36F8F16
:1032BC000148EDE70400AD0B0000AD0B2DE9F84320
:1032CC0080460024FF25174F13E02046FFF7C4FF6C
:1032DC0088F80040144F86F31188BFF36F8F124BA0
:1032EC009F421BD0012303FA09F325EA030501349D
:1032FC00E4B29DB14FF02003EFF3118683F31288F3
:10330C00BFF36F8FA14625FA04F313F0010FE2D03F
:10331C002046FFF795FF0028DDD1D6E73846BDE8FB
:10332C00F88300BF0200AD0B0000AD0B01238340FE
:10333C00034A1268134214BF01200020704700BFDB
:10334C00A4030020012303FA00F0024A136803438C
:10335C0013607047A40300202DE9F8438146002434
:10336C00154EDFF85C8011E02046FFF7EBFF89F883
:10337C000040DFF8488087F31188BFF36F8F0F4B45
:10338C00984516D026EA05060134E4B28EB14FF00A
:10339C002003EFF3118783F31288BFF36F8F01259E
:1033AC00A5403542E7D02046FFF7C0FF0028E2D108
:1033BC00DAE74046BDE8F883FFFF0F000000AD0BD5
:1033CC000200AD0B034610F0010F08D1064813F0B4
:1033DC00020F00D0054813F0040F02D170470448C7
:1033EC00F5E70448FAE700BF0100AD0B0100AE0B96
:1033FC000000AE0B0200AE0B2DE9F84305460C465F
:10340C0016461F46002380F82E30536833B1D3681C
:10341C0003F06043B3F1005F40F031819C4BC4F882
:10342C00083395F82F3003F0FF08002B36D117F036
:10343C00140F0CBF0123002385F82F3005F10C0C61
:10344C00B646BEE80F00ACE80F00DEF80030CCF852
:10345C000030C7F3001385F830302F627378C4F84E
:10346C0088350023C4F80431D4F80421C4F824317D
:10347C00D4F82421C4F86031D4F86021C4F8483160
:10348C00D4F848313946204602F0F8FD3378032B46
:10349C0000F2A880DFE803F055943708AB68C4F855
:1034AC000433DFF8F09181E0336903F06043B3F14A
:1034BC00005F40F0E7804FF48073C4F80032F2688C
:1034CC007368C4F84425C4F848350023C4F8503157
:1034DC00D4F8503101232362A360D4F85031002B6F
:1034EC00FBD00023C4F85031D4F850313269B368A2
:1034FC00C4F84425C4F848354FF48023AB60082346
:10350C00DFF8949132E0F2687368C4F84425C4F88B
:10351C004835336903F06042B2F1005F40F0B5808A
:10352C00B268C4F83435C4F838254FF48453C4F861
:10353C0000320223AB60012323620823DFF8589189
:10354C0014E0F2687368C4F84425C4F8483517F0E1
:10355C00200F2ED04FF48073C4F800324FF4802328
:10356C00AB60012323620823DFF82C9117F0080FBE
:10357C0007D13278032A04D00122E250736803B9D0
:10358C0062612B6893B317F0040F01D00023AB607A
:10359C0017F0400F03D1AB6843F00203AB60AB688C
:1035AC0043F40073AB60AB68C4F804334846BDE821
:1035BC00F8834FF40073C4F800320223AB60D0E7F9
:1035CC00F2687368C4F83425C4F838354FF4805366
:1035DC00C4F800320223AB60012323620023DFF81E
:1035EC00B890C3E70823DFF8B490BFE7434600E088
:1035FC006BBBD4F8482102B10123D4F804212AB1C1
:10360C000023C4F80431D4F804310123D4F8242164
:10361C00002AEDD00022C4F82421D4F82421D4F8B7
:10362C006021D4F8001212B111F4007F03D10123F0
:10363C00236263614346002ADAD011F4807FD7D02D
:10364C000023C4F84831D4F848314346D1E7D4F8C4
:10365C00C404C4F8C404002385F82F3018B1FFF754
:10366C00B1FE8146A2E717F0400F9FD129462046B4
:10367C0002F0A7FC002899D1DFF8249096E7DFF838
:10368C00249093E7DFF81C9090E7DFF818908DE713
:10369C0002029C010B00AD0B0000AD0B0400AD0B46
:1036AC000100AD0B0A00AD0BF0B587B004460D461A
:1036BC00D0F8243143B10023C0F82431D0F82431A0
:1036CC00D0F80431002B5CD0D4F80431002B78D026
:1036DC000023C4F80431D4F804312B6A13F0400FE2
:1036EC0003D195F82E30002B62D02B6A13F0040F07
:1036FC002BD101AE05F10C070FCF0FC63B68336021
:10370C000023C4F86031D4F86021C4F85C31D4F8DB
:10371C005C3195F8303013B195F82E30ABB10023F5
:10372C00C4F80032AB60504BC4F80833220B44F39E
:10373C000733002B09DB02F01F025B09012101FAA0
:10374C0002F26033494941F82320D4F8C434C4F858
:10375C00C43413F0020F6ED001238DF8003095F8AD
:10376C0030300BB985F82F302B6A13F0040F02D0D0
:10377C0095F82E301BB12B6869686846984707B0DE
:10378C00F0BD8B68C0F8083302238B608B68C0F8DF
:10379C000433D0F8603123B1D0F8003213F4007F39
:1037AC0002D1012323626361012385F82E30E6E701
:1037BC002946204602F005FC80F0010085F82E0019
:1037CC0093E70023C4F84831D4F848312B7B03BB72
:1037DC0001AE05F10C070FCF0FC63B68336095F8AF
:1037EC003030002BB1D1C4F80032AB601E4BC4F8A2
:1037FC000833220B44F30733002BA6DB02F01F0225
:10380C005B09012101FA02F26033184941F82320C7
:10381C009BE74FF40073C4F8003240F20223AB6014
:10382C0003F1CE73C4F80833AB68C4F80433012336
:10383C00A3602362A3E713F0040F03D002238DF8D7
:10384C0000308CE713F0010F03D003238DF8003008
:10385C0085E795F82E301BB104238DF800307EE7F8
:10386C0000238DF800307AE702029C0100E100E0B1
:10387C00F8B504460D4606791B48342101FB0601B8
:10388C0091F82D1009B11948F8BD0746342000FBFA
:10389C0006F039183A504B6000238B6081F83030B9
:1038AC0081F82F306B7B81F83230276829463846F7
:1038BC0002F0C8FBB0B1AB68C7F82435342303FB66
:1038CC0006F3094AD35823B1206840F30730FDF7BB
:1038DC00DFFD054B342202FB0636012386F82D3022
:1038EC000348D1E70348CFE7A80300200500AD0B40
:1038FC000000AD0B0400AD0B037902680621C2F881
:10390C000015044A342101FB0323022283F82D20E5
:10391C00704700BFA8030020037902680B493420CC
:10392C0000FB0313002199600948C2F80803D2F880
:10393C00000220F4BC50C2F80002C2F800150122AB
:10394C0083F82D2083F82F10704700BFA8030020A8
:10395C0002029C0138B5134605790A460168034CEE
:10396C00342000FB0540FFF747FD38BDA8030020BD
:10397C0008B502490248FFF797FE08BDA8030020CE
:10398C000030004008B503494FF04020FFF78CFE93
:10399C0008BD00BFDC0300202DE9F04100F01F0042
:1039AC004FF0010808FA00F64FF0A043C3F8086581
:1039BC0001F01F0708FA07F8C3F8088500F5E07056
:1039CC0040F20D6243F8202007F5E07143F8212006
:1039DC00042002F0E1FA0024082C16D84FF0A04382
:1039EC00D3F81035FB4013F0010F0ED14FF0A0456A
:1039FC00C5F80C65042002F0CFFAC5F80865042060
:103A0C0002F0CAFA0134E4B2E6E74FF0A044C4F87D
:103A1C000C85042002F0C0FAC4F80885042002F0DA
:103A2C00BBFAD4F8101521FA07F717F0010F02D0E2
:103A3C000248BDE8F0810248FBE700BF0000AD0B77
:103A4C000100AD0B10B5144C032323616361134AC1
:103A5C00A261134BE3614FF4806323620023A362E2
:103A6C006362E36222660F4A62661022A2662367D3
:103A7C00E36663670C49E01D01F03CFCBFF35F8F0C
:103A8C000A49204601F036FCBFF35F8F2023A37157
:103A9C00BFF35F8F10BD00BF10040020CC6B000083
:103AAC00C8040020B8040020D86B0000DC6B0000B8
:103ABC00034B044A934201D21833FAE7704700BF14
:103ACC00EC6400007C65000070B50646114B53F8A1
:103ADC00204009E0404217E0EB681870EA68537820
:103AEC0043F0010353700834731C0A4A52F8233014
:103AFC00A3420DD96568236828469847002DF2D05B
:103B0C000028EBD00028E5DBFF28E5DDFF20E3E70C
:103B1C0070BD00BFE46B000038B5054628B30378D0
:103B2C002BB3144C00E01834134B9C4208D02046A5
:103B3C0002F0C2FA0028F6D02368AB42F3D112E0AF
:103B4C000C4C00E018340C4B9C420BD0204602F07D
:103B5C00B3FA0028F6D02168284601F000FC0028B2
:103B6C00F0D100E00024204638BD0446FBE70024D9
:103B7C00F9E700BFEC6400007C650000F0B589B08B
:103B8C000446154BB02505FB0035144B4FF4B076AD
:103B9C0006FB003606AF0346114A0821384601F0F1
:103BAC0002F804EB44040F4800EBC404059701230E
:103BBC0004930F23039300230293019300940A4B65
:103BCC004FF4A0723146284600F0FEF86B7B23F0D0
:103BDC0004036B7309B0F0BDD8000020400D002029
:103BEC00FC6B0000C80800206D61000070B586B049
:103BFC0000F088FC1B4D1C4BDD611C4B0593012315
:103C0C00049300240394029401940094184B4FF4F1
:103C1C0080621849284600F0D7F806466B7B23F0E3
:103C2C0004036B73284602F0D9FA002C02DD3046EF
:103C3C0006B070BD2046FFF7A1FF0F4BB02202FB70
:103C4C00043204EB4401084B03EBC103DA601C752E
:103C5C0004EB8411094A02EB411202F502625A602C
:103C6C000134E2E788010020C8080020086C00003D
:103C7C008D3C000020090020D8000020A00E002060
:103C8C0008B50A4B01221A700220FFF71DFF00F045
:103C9C00C3FE0320FFF718FF00F0FAF8FCF784FCD2
:103CAC00034A137B23F00103137308BD070900209B
:103CBC008801002008B50146014A0248FDF7E4FCE2
:103CCC008D3C00008801002008B50348034A121AF5
:103CDC00002101F072FB08BDB8000020080900208B
:103CEC0000B5ADB01C4B83F308881C4C636943F4DE
:103CFC0000736361E02384F822300025E577257694
:103D0C006576A57684F82050636A43F4E0236362F9
:103D1C0084F82350FDF70AFEFDF79CFB4FF0FF33B0
:103D2C00A362E362FDF70CFFFDF7A6FE01248DF8FC
:103D3C000D408DF80C4026952795094BC3F808D0FB
:103D4C00FFF7B6FE2846FFF7BFFE2046FFF7BCFE86
:103D5C00FFF74CFFFFF7AEFFC016002000ED00E0B0
:103D6C00C80800204FF02003EFF3118183F3128871
:103D7C00BFF36F8F0A4B9B6A834204D11A6F084BB7
:103D8C009A6207E0134613B11A6F8242FAD10BB153
:103D9C00026F1A6781F31188BFF36F8F704700BFF2
:103DAC00C808002038B514461D4654EA050302D154
:103DBC0002F0C1F938BD2B460249183000F000FD65
:103DCC00F8E700BF216200002DE9F04F85B00446F2
:103DDC000F4615461E46DDF838A0DDF83C90DDF8A0
:103DEC004080DDF84CB000F158038365C365129B2D
:103DFC000422119902F0A3F92A463946204602F012
:103E0C0082F90546CDF80880CDF80490CDF800A0D5
:103E1C003346024639462046FDF7E6FB0023636530
:103E2C002666C4F864A0C4F86890C4F86C804FF09F
:103E3C002003EFF3118283F31288BFF36F8F134BC0
:103E4C00996A21679C6282F31188BFF36F8FBBF173
:103E5C00000F13D01F22594604F1740001F053FADD
:103E6C00002384F89330094B9B685BB1D3F8A430E2
:103E7C00C4F8A430284605B0BDE8F08F002384F8C0
:103E8C007430F0E7C4F8A430F4E700BFC808002091
:103E9C002DE9704386B0234C234B9C4215D2E36A28
:103EAC000593236A0493E3690393A36902936369FB
:103EBC00019323690093E368A26861682068FFF7A7
:103ECC0083FF23685C653034E6E700F009F9154C94
:103EDC001BE0266823EAE3734FEAE3794FEAC93122
:103EEC0041EA5341D80340F2E7354FF47A7200238C
:103EFC0040194FF0000545EB0101FCF7E9F80246CB
:103F0C000B463046FFF74EFF3034074B9C4204D231
:103F1C00636AB3F1FF3FF7D0DBE700F07FFA06B03E
:103F2C00BDE87083B8000020B800002008B502F08E
:103F3C0050FA044B9861FDF729FA00B108BDFDF762
:103F4C008FFAFBE7C808002038B504464FF0200371
:103F5C00EFF3118583F31288BFF36F8F02F0D9F959
:103F6C0048B10022C0F8AC2002F038F929460748C5
:103F7C0000F09AF838BDA368E268934203D001229E
:103F8C001344A360F2E70022FAE700BFF408002014
:103F9C0030B583B01D464FF02003EFF3118183F34E
:103FAC001288BFF36F8F836843B1013B836081F349
:103FBC001188BFF36F8F002003B030BD144654EA54
:103FCC00050306D0CDE900450246054800F0D0F9BE
:103FDC00F2E781F31188BFF36F8F6FF00F00EBE7FF
:103FEC00F408002038B5B3F1FF3F08BFB2F1FF3F32
:103FFC0000D138BD0249183000F0E2FBF9E700BFF0
:10400C002162000008B5084B1B6803B908BDFEF718
:10401C00B7FD0346044A10680344044A13610021A7
:10402C0002F0EDF9F2E700BFFC080020C808002000
:10403C002DE9F0410646884600234FF02002EFF3AD
:10404C00118782F31288BFF36F8F09E0134BC3F80B
:10405C000080FFF7D7FF87F31188BFF36F8F012321
:10406C00CBB900230E4A1361750CF40340F2E73010
:10407C004FF47A72002320184FF0000145EB010138
:10408C00FCF726F8074B1860002EDFDD0228B8BFBE
:10409C0002201860DAE7BDE8F08100BFF8080020C4
:1040AC00C8080020FC08002008B5084621B9EFF329
:1040BC00058313B9012100E0002111F0010F07D095
:1040CC00064BDA699B689A4202D0FDF735FA03E099
:1040DC0080F31188BFF36F8F08BD00BFC8080020A4
:1040EC0000234FF02002EFF3118182F31288BFF30B
:1040FC006F8F53B9054B9A68D37B013BD37381F314
:10410C001188BFF36F8F0123F3E77047C8080020B5
:10411C0038B504460F4802F05AF8054670B184B918
:10412C000D4B9B685A7B12F01F0F0AD1AA6942B93A
:10413C00DA897F2A05D9084AD3610AE0064BDD6883
:10414C00EDE7054B9B68AB4201D0FFF75BFF024BE1
:10415C00DD6138BDE8080020C808002038B50546E8
:10416C00427B90F90D30002B28DB6B7B63F07F03D7
:10417C006B731A4B53F8204F9C422DD06CB12146D7
:10418C00284601F0FDFF002820DC34B1134B5B6A9C
:10419C009C4202D02468002CF0D1104B5A6A03F1D7
:1041AC00200129606A6015605D620C4B9868A8421A
:1041BC0014BF00200120FFF7ABFF38BD02F07F02D7
:1041CC0042730146064801F0FAFFCEE763686B6064
:1041DC002C601D606560E8E70024CFE7C80800206C
:1041EC00E808002010B54FF02003EFF3118483F39F
:1041FC001288BFF36F8F1C4B9B681C4A126893424A
:10420C001DD01A4A00211160194A126822B3DA89AA
:10421C007F2A21D85A7B12F01F0F1DD193F90E1053
:10422C00144A1268914217DB134A934214D00E4A77
:10423C00126982420ADD101A0B4B18610FE0FFF76E
:10424C00E1FE84F31188BFF36F8F0CE01846FFF783
:10425C0085FFFFF7D7FE02E0034B00221A6184F3BF
:10426C001188BFF36F8F10BDC8080020F408002020
:10427C00FC080020F8080020D800002038B5437B4B
:10428C0090F90D20002A2DDB044613F01F0F05D1E9
:10429C0082690AB1002202E0012200E000220AB386
:1042AC0063F07F036373144B53F8205F9D4220D05F
:1042BC006DB12946204601F063FF002813DC35B1AF
:1042CC000D4B5B6A9D4202D02D68002DF0D10A4B3C
:1042DC005A6A03F120012160626014605C62002064
:1042EC00FFF716FF38BD6B68636025601C606C605F
:1042FC00F5E70025DCE700BFC808002010B54FF03B
:10430C002003EFF3118483F31288BFF36F8F437B89
:10431C0013F0040F04D184F31188BFF36F8F10BD19
:10432C0023F004034373FFF7A9FF21460148FFF76D
:10433C00BBFEF4E7F808002010B50446427B90F968
:10434C000D30002B08DB084B9868A04214BF0020EE
:10435C000120FFF7DDFE10BD02F07F024273014623
:10436C00024801F02CFFEEE7C8080020E808002006
:10437C0010B50C461146064B9868064B1860DDE9E3
:10438C00022301F0A5FF2046FDF7D6F810BD00BFB3
:10439C00C8080020F408002038B50446183001F095
:1043AC00FAFF00234FF02002EFF3118582F31288FD
:1043BC00BFF36F8F10E0637B43F010036373154BF7
:1043CC009868A04214BF00200120FFF7A1FE85F3DE
:1043DC001188BFF36F8F012363B9627B94F90D30A1
:1043EC00002BE8DA02F07F02627321460A4801F0E2
:1043FC00E6FEE0E7074B9B68A34200D038BD4FF0C8
:10440C002003EFF3118083F31288BFF36F8F01F059
:10441C00C1FEF3E7C8080020E808002010B500230F
:10442C004FF02002EFF3118482F31288BFF36F8FE9
:10443C006BB90C4B9A68D37B0133D3730020FFF715
:10444C0067FE84F31188BFF36F8F0123F0E74FF001
:10445C002003EFF3118083F31288BFF36F8F01F009
:10446C0099FE10BDC8080020F8B5437B13F0080F67
:10447C0045D1054643F0080303F0DF03437313F003
:10448C00800F14D1AB685BB1284601F077FE29464A
:10449C0001F095FE6B7B23F002036B730023AB6082
:1044AC0005F1180001F077FF05F158071CE003F047
:1044BC007F0343730146124801F081FEE2E7204678
:1044CC0001F05CFE214601F07AFE637B23F00203CF
:1044DC0063730026A66004F1180001F05CFFC4F8B9
:1044EC00AC602046FFF7CAFE3C68BC4201D0002CF1
:1044FC00E5D10120FFF70CFE2846FFF733FCF8BD91
:10450C00E808002008B5054B03F120021A625A6234
:10451C0000210846FFF78CFD08BD00BFC80800202D
:10452C00F8B54FF02003EFF3118683F31288BFF335
:10453C006F8F1C4CA1684B7B03F07F034B7304F112
:10454C002007384601F03BFEA5686B7B63F07F03C8
:10455C006B73246ABC4223D06CB12146284601F00F
:10456C000FFE002816DC34B10E4B5B6A9C4202D065
:10457C002468002CF0D10B4B5A6A03F120012960FE
:10458C006A6015605D620120FFF7C2FD3046FCF7E2
:10459C00D3FFF8BD63686B602C601D606560F2E74B
:1045AC000024D9E7C80800202DE9F04104460D4647
:1045BC0054EA050137D06FF001010A1A4FF0FF31B0
:1045CC0061EB0503012A73F1000330DB6FF0010688
:1045DC00361A4FF02003EFF3118883F31288BFF3E0
:1045EC006F8F164FB868164B1860FFF7A5FEB868AA
:1045FC0022462B461349183000F0E2F8BA68537B78
:10460C0043F0100353734046FCF796FF002501F06E
:10461C0021FF341A65F10005012C75F100030ADA4B
:10462C000020BDE8F081FFF77BFF0020F9E701F0E7
:10463C0011FF0619CDE72046F3E700BFC80800209C
:10464C00F40800202162000038B5B1F1FF3F08BF2B
:10465C00B0F1FF3F1AD0FFF7A7FF0446C517690159
:10466C00430141EAD062181A62EB05039A0042EA50
:10467C00907281001346081945EB0303DA0042EAF5
:10468C005072C100C80B40EA424038BD034B9868D9
:10469C00FFF782FE4FF0FF30F7E700BFC80800209D
:1046AC00014B9868704700BFC808002038B54FF020
:1046BC002003EFF3118583F31288BFF36F8F437BD5
:1046CC0013F0080F04D085F31188BFF36F8F38BD3A
:1046DC000446FFF7C9FE084B9B68A34204D085F340
:1046EC001188BFF36F8FF2E7EFF30583002BF6D140
:1046FC002846FCF721FFF2E7C808002008B5064859
:10470C00064A121A064900F034FE064A06490748C2
:10471C0000F02FFE08BD00BF00000020B8000020F4
:10472C00446C000000000000446C000000000020FD
:10473C00034B1868984200D070470020FCE700BF7C
:10474C009800002030B1044A5268904201D00068B1
:10475C0070470020704700BF9800002008B5044B3C
:10476C001B680BB1002008BDFEF70AFAFBE700BF7F
:10477C000009002010B5FFF7DBFF0446FFF7EEFF42
:10478C008CB1D4E90423121A63EBE073012A73F1A0
:10479C00000111DB1046B2F1004F73F1000304DB92
:1047AC006FF0004001E06FF00040044B1B6913B147
:1047BC00834200DA184610BD0020F6E7C808002036
:1047CC002DE9F04F83B0B3F1FF3F08BFB2F1FF3FCB
:1047DC0000F09680824614461D46816000234FF0FF
:1047EC002002EFF3118B82F31288BFF36F8F2EE050
:1047FC00012200234BE0FFF7B1FF221845EBE073D9
:10480C00013243F10003CAF81020CAF8143042E018
:10481C00009BC21A019B61EB0303CCF81020CCF86F
:10482C001430DCF80430CAF80430CAF800C0C3F8FD
:10483C0000A0CCF804A0BCF1000F49D0FFF778FF22
:10484C00824550D08BF31188BFF36F8F0123002B5F
:10485C0056D16FF00103B3EB04084FF0FF3060EB5F
:10486C000509B8F1000F79F10003C4DB264A13687F
:10487C005268E31845EB02026FF00101CE1A60EBAF
:10488C00020732463B46012E77F10001B0DBCAF835
:10489C001020CAF81430FFF74BFF8446BCF1000F10
:1048AC00C9D0DCE90401DAE90423CDE90023824212
:1048BC008B41ADDB009B1A1A019B63EB0103CAF819
:1048CC001020CAF814306046FFF73CFF8446E5E739
:1048DC000E4B5A68CAF80030CAF80420C2F800A07F
:1048EC00C3F804A0AAE7FFF745FF034618B1084A2E
:1048FC0012698242A6D000211846FEF70DF9A1E7F5
:10490C0003B0BDE8F08F00BF3802002098000020F3
:10491C00C8080020F8B50446FFF764FC4FF02003EC
:10492C00EFF3118583F31288BFF36F8F284B1C6054
:10493C00FFF7FEFE044650B3D0E90467244B1B6816
:10494C00D917B34271EB070221DB224AD2E90001ED
:10495C00801941EBE671C2E900019B1B1C4A1360F4
:10496C0000220023C4E90423204601F0FDFC85F35A
:10497C001188BFF36F8FA368204698474FF0200330
:10498C00EFF3118583F31288BFF36F8FD0E744B137
:10499C000F4B1968D4E90423521A63EBE173C4E991
:1049AC0004230C480A490C68D0E90023121943EB84
:1049BC00E473C0E9002300240C60FFF7DBFE214602
:1049CC00FEF7AAF885F31188BFF36F8FF8BD00BF0F
:1049DC00000900203802002010B500214FF0200300
:1049EC00EFF3118483F31288BFF36F8F002200233F
:1049FC0069B9FEF7C5F8074BD3E90023121843F148
:104A0C00000384F31188BFF36F8F0121F0E7104688
:104A1C00194610BD3802002008B5034A0349044862
:104A2C0000F0B3F808BD00BF88690000106C0000EE
:104A3C001C6C000010B5064C064B9C4206D2A268BA
:104A4C006168204601F014FD1434F5E7002010BD18
:104A5C00B8000020B800002070B5134685680469C2
:104A6C0012F4805F07D012F4406F04D012F0010FE3
:104A7C0001D082F4406323F4805213F0010F08D06C
:104A8C00012303FA01F62368334323602B6898470C
:104A9C0070BD012303FA01F6236823EA06032360A1
:104AAC00F4E708B50379042B13D8DFE803F0030F00
:104ABC00060C0900FBF716FD08BDFBF7AFFCFBE786
:104ACC00FBF780FCF8E7FBF7D9FCF5E7FBF726FDD5
:104ADC00F2E70120F0E770B582B004460579FFF7E4
:104AEC00E0FF062801D002B070BD267901238DF8B5
:104AFC000430257101A92046FFF7D3FF00238DF860
:104B0C000430267101A92046FFF7CBFFEBE70246E4
:104B1C0058B1436803F00303012B03D0032B07D1D7
:104B2C00036843B10020906070476FF01500704728
:104B3C006FF0150070476FF0150070470346426820
:104B4C0002F003028160032A03D1006800225A603C
:104B5C0070470020FAE70020704710B40C6854B17D
:104B6C008A684B689A4206DA013B9A4208D0531C79
:104B7C008B60A05402E08B6801338B6010BC7047D3
:104B8C00531C8B600023A354F8E70FB400B583B01B
:104B9C0004A951F8040B0191FBF7FCFD03B05DF87F
:104BAC0004EB04B070470CB400B583B004AB53F8FD
:104BBC00042B0193FBF7FEFD03B05DF804EB02B090
:104BCC00704701F00703018B21F0070119430183A2
:104BDC0070472DE9F04106460F469046816819B1A1
:104BEC000C4631B10C6804E00C4602E02346214629
:104BFC001C4659B14D6843463A463046A847002CEE
:104C0C00F4D02346002CF2D02368F0E7BDE8F08105
:104C1C00038B13F0070303D102680AB1032070471A
:104C2C00022B03D0012B06D000207047428B002AA8
:104C3C00F8D10420704703680BB1052070470020A1
:104C4C00704738B504460D46038B002A07DB03F08A
:104C5C0007035A1F012A0ED9042B32D038BDD0E9D4
:104C6C00000185E8030000232360636001212046D6
:104C7C00FFF7A7FFF2E7D0E9000185E80300002267
:104C8C0022606260062B17D12B683BB1628B01321C
:104C9C006283002BF9D01B68002BF6D10221204631
:104CAC00FFF78FFF2046FFF7B3FF0028D6D0238BEA
:104CBC0043F020032383D1E700212046FFF781FF37
:104CCC00F0E70021FFF77DFF2046FFF7A1FF00284A
:104CDC00C4D0238B43F020032383BFE758B110B516
:104CEC000C4659B1081DFFF712FF18B9A36833F031
:104CFC00030306D110BD6FF0150070476FF015005F
:104D0C00F8E76FF01500F5E72DE9F04107460C4682
:104D1C0016461D461946201DFFF710FF28B1804688
:104D2C002B46324621463846C047BDE8F0812DE976
:104D3C00F84381460C4690461F4605E065603B46AD
:104D4C0042464846FFF7E0FF216829B10D6825600F
:104D5C0066688E42F3D1F1E7BDE8F88310B54FF0E9
:104D6C002004EFF3118284F31288BFF36F8F41613B
:104D7C000121FBF735FD10BD034668B179B10A6816
:104D8C0082B14A688AB10020186058609860D86077
:104D9C0058619861196170476FF0150070476FF09A
:104DAC00150070476FF0150070476FF015007047D5
:104DBC00F8B504460F46FFF791FF061E37DB4FF0A0
:104DCC002003EFF3118283F31288BFF36F8F258BCF
:104DDC0005F00705638B4FF6FF718B422FD02E46E3
:104DEC00022D0CD08DB1042D0FD0062D0DD0052D1C
:104DFC001FD06FF0040600210B4608460AE0013371
:104E0C00638301210023184604E0B5FA85F35B099E
:104E1C000021012028B1002038606068A8B107602B
:104E2C006760ABB982F31188BFF36F8FA9B93046B5
:104E3C00F8BD6FF0850600210B460846EAE76FF0D7
:104E4C000A0600210B460846E4E767602760E8E79E
:104E5C0002212046FBF7C4FCE9E700232A46394629
:104E6C002046FFF751FFE2E708B504460846114615
:104E7C001A46A047FFF714FCFCF7E8FD70B4131DAD
:104E8C0050F82330D3B9012303FA02F4C368234347
:104E9C00C360043240F8221000EBC1038268B2F503
:104EAC00004F07D399608268B2F5004F04D3D960E4
:104EBC0070BC70479980F6E7D980F9E700EBC30422
:104ECC008668B6F5004F18D3A26800EBC105B6F59D
:104EDC00004F14D3AA608668B6F5004F11D3EB606F
:104EEC0000EBC2028368B3F5004F0CD3D16083682A
:104EFC00B3F5004F09D3A160DAE7A288E5E7AA80F1
:104F0C00E9E7EB80ECE7D180F1E7A180D0E708B5C9
:104F1C008368B3F5004F07D300EBC1025268520807
:104F2C00012A02D0002200E00022A2B900EBC1024B
:104F3C00B3F5004F10D352685208B3F5004F0DD3A0
:104F4C0008230833A2EBD3020132B2FA82F2C2F187
:104F5C001F02FFF793FF08BD5288EDE70423F0E72B
:104F6C00F8B50346B2F5802F2AD30825551BC81D6A
:104F7C0020F007000D4425F007052D1AEF08064612
:104F8C00186087600023C360B7F5004F1AD308235D
:104F9C000833A7EBD3030133B3FA83F3C3F1200C2B
:104FAC00C3F124039B0003F1070E4FEADE0100233B
:104FBC00634509DA1A1D002446F822400133F7E74D
:104FCC000425D3E70423E3E74B00B7F5004F33D3B5
:104FDC004360B7F5004F31D300230360B7F5004FA2
:104FEC002FD3436843F0010343607A1A56002EF026
:104FFC000703C418B7F5004F28D366608468B4F56E
:10500C00004F25D3C15025F0070305448468B4F53F
:10501C00004F1FD300246C608468B4F5004F1CD380
:10502C00C2508368B3F5004F19D36B6843F001038A
:10503C006B60FFF76CFFF8BD4380CAE70023038069
:10504C00CCE7438843F001034380CEE76680D5E785
:10505C00C152D8E700246C80DEE7C252E1E76B88CE
:10506C0043F001036B80E4E710B4044602680020AF
:10507C001378A3F13001092906D800EB8000013226
:10508C0003EB40003038F3E7226010BC70472DE989
:10509C00F04F83B004460D4601929A46DDF83080FD
:1050AC00D378A3F1410B6F2B0FD006D9702B0FD0F7
:1050BC00782B10D14FF0100926E0582B02D04FF06E
:1050CC000A0921E04FF010091EE04FF008091BE01F
:1050DC004FF0100918E04FF00A0915E0BBF1190F59
:1050EC0020D8D2B23732D2B208F8012D32463B4624
:1050FC0020462946FAF7ECFFBD4208BFB44215D34F
:10510C00D04513D904460D464E4600274A463B4629
:10511C0020462946FAF7DCFF092ADFD8D2B2303212
:10512C00D2B2E1E7D2B25732D2B2DDE7019B1B78A3
:10513C0013F0200F05D0B9F1080F06D0B9F1100FFC
:10514C0009D0404603B0BDE8F08F019A937843F044
:10515C0008039370F5E7019A937843F0100393706A
:10516C00EFE72DE9F04107460E4614469846002518
:10517C0006E0314614F8010BB847002809DB01356D
:10518C004445F6D3B8F1000F02D12378002BF0D1AF
:10519C002846BDE8F08170470022026042608260C0
:1051AC00704708B500F095FF08BD08B501460068CA
:1051BC00FFF7F7FF08BD08B500210120FFF7F1FF4D
:1051CC0008BD08B5FCF798F9FCF794FA08BD002067
:1051DC00704700230B70704708B500231370CB1E6B
:1051EC00092B1AD8DFE803F005090D111919191943
:1051FC0019141146FCF70EFB10E00021FCF7C4FA61
:10520C000CE00021FCF784FA08E0FCF7ABFA05E0AF
:10521C001146FFF7DEFF002000E0002008BD4368C8
:10522C005A1E134206D11F2B06D903681A4205D009
:10523C000020704700207047002070470120704705
:10524C00072805D810B50446FCF736FC204610BDDF
:10525C006FF01500704700B585B00B6801934B6873
:10526C008A68202B12D9B3F1004F11D8013BB3FA45
:10527C0083F3C3F11F035B0003F03E03134303935B
:10528C0001A9FFF7DDFF05B05DF804FB0823F5E786
:10529C003E23F3E72DE9F84380460F469946164620
:1052AC00002509E02146F0B2FFF7D5FF064610F1C4
:1052BC00160F14D001360135BD4210DA05EB45044A
:1052CC0008EB84046268002AF5D0B9F1000FE9D02C
:1052DC002046FFF7A4FF0028E4D16FF015063046F6
:1052EC00BDE8F88308B5FCF7F7FB08BD08B5FCF77B
:1052FC00FDFB08BD02460B781BB102F8013B0131E6
:10530C00F9E7137070470346A2B110B40C782CB1B6
:10531C0003F8014B0131013A002AF7D122B10021E7
:10532C0003F8011B013AF9E710BC7047002103F8A0
:10533C00011B013A002AF9D17047034600201A7864
:10534C0012B101330130FAE77047034600201A7896
:10535C0022B1884202D201330130F8E7704703785A
:10536C000A78934203D113B101300131F7E7981A4F
:10537C00704710B480EA010313F0030F01D0034609
:10538C0017E0034613F0030F0BD0A2B111F8014B39
:10539C0003F8014B013AF5E751F8044B43F8044B81
:1053AC00043A032AF8D804E011F8014B03F8014B36
:1053BC00013A002AF8D110BC704710B4CCB20346A5
:1053CC0013F0030F04D09AB103F8014B013AF7E73D
:1053DC00C9B241EA012141EA0141032A06D943F845
:1053EC00041B043AF9E703F8014B013A002AFAD1FD
:1053FC0010BC70474FF0FF30704784B004AB03E92A
:10540C0007009DF80430062B01D004B070474FF014
:10541C0080430122C3F80025BFF34F8F20BFFDE767
:10542C0084B004AB03E90700002383F31188BFF3B6
:10543C006F8F04B07047006901EB4101890038316E
:10544C0008447047406800EBC10070470069C1EB2D
:10545C00C10100EB8100704708B5C9B2FFF7EBFF43
:10546C00806800F0070008BD4FF02003EFF31182B5
:10547C0083F31288BFF36F8F036813F0C00301D05E
:10548C008B4207D101230360002082F31188BFF304
:10549C006F8F70474FF0FF30F7E710B44FF02003D9
:1054AC00EFF3118283F31288BFF36F8F036803F05D
:1054BC00C00403F00703012B09D08C420AD04FF033
:1054CC00FF3082F31188BFF36F8F10BC70470160FF
:1054DC000020F6E76FF07700F3E74FF02003EFF3CF
:1054EC00118283F31288BFF36F8F036803F0C0033C
:1054FC0043F00203036082F31188BFF36F8F704790
:10550C00F8B506460C46FFF796FF0568476800237A
:10551C0040F8083BFFF7E1FF1DB13A462146304603
:10552C00A847F8BD70B506461546CCB22146FFF724
:10553C0082FF29460830FFF797FF002806DB21463B
:10554C003046FFF77FFF43689847002070BD08B5D1
:10555C008022FFF7E7FF08BD2DE9F0410646904693
:10556C001F46CDB22946FFF766FF04460699083060
:10557C00FFF793FF002809DBC4F800806760294619
:10558C003046FFF75FFF036898470020BDE8F081C5
:10559C0010B582B080240094FFF7DEFF02B010BD7E
:1055AC0010B51446C9B2FFF751FF0021A04710BD3A
:1055BC0008B50120FDF73CFD08BD08B50120FDF73D
:1055CC0075FD08BD08B50020FDF770FD08BD08B5D8
:1055DC001046FEF7B9FC08BD0020704743685B68B5
:1055EC00D3F810350B600020704743685B68D3F824
:1055FC00040542400A404240C3F80425002070478D
:10560C0043685B68C3F808150020704743685B6803
:10561C00C3F80C150020704743685A68D2F804355B
:10562C004B40C2F804350020704770B40069051D6A
:10563C004368DBB10E4600240AE00B6843606C68DB
:10564C00A1420FD16B600DE06C600BE01C461B6837
:10565C005BB19E42FAD1002CEFD00B6823606B68D3
:10566C009942F1D000230B6000E052B162B1436863
:10567C000B6041606B680BB1002006E06960002094
:10568C0003E06FF0150000E0002070BC7047F0B430
:10569C0005694668E9686A69AB69134321EA030145
:1056AC000122002013E04FF0020C03F01F034FF017
:1056BC00A04703F5E07357F8234024F4403444EA40
:1056CC000C4447F8234021EA02010130520071B129
:1056DC000A42FAD0347A00F01F0343EA44132C69CF
:1056EC00C44014F0010FDED14FF0030CDDE7F0BC29
:1056FC007047F0B58E4603694168D8685A699C6951
:10570C00224320EA020C4A68D2F81025186950404E
:10571C002CEA00006446012200250FE003F01F0371
:10572C004FF0A04703F5E07357F8236026F440369A
:10573C0047F8236024EA020401355200DCB122420E
:10574C00FAD00E7A05F01F0343EA461312EA0C0F47
:10575C00E4D103F01F0606F5E0764FF0A04757F8AA
:10576C002660C6F30146022ED8D1DEF8006016433F
:10577C00CEF80060D2E7F0BD70B50C460669436800
:10578C001B7A01F01F0545EA43152846FCF7EAFC95
:10579C0005F01F024FF0A04102F5E07051F82030E7
:1057AC0023F4403341F82030F368E34013F0010F49
:1057BC002FD07369E34013F0010F13D0B369E340AA
:1057CC0013F0010F07D1316921FA04F414F0010F21
:1057DC0006D0012100E003212846FCF7EFFC19E07C
:1057EC000221F9E7316921FA04F414F0010F0ED10A
:1057FC0003204FF0A04102F5E07251F8223023F45F
:10580C00403343EA004341F82230002002E00220FA
:10581C00EFE7002070BD70B5046945682E7A01F081
:10582C001F0545EA4615B2F5A03F25D0B2F5005F3D
:10583C0030D0E56801268E403543E560B2F5A03FD7
:10584C002ED0626901258D4022EA05026261B3F512
:10585C00C02F2AD0A26901258D4022EA0502A2613F
:10586C00B3F5802F26D0236901228A4023EA020354
:10587C002361FFF781FF70BD05F01F0505F5E0758D
:10588C004FF0A04656F8255015F0010FCED06FF012
:10589C008500F0E7E56801268E4025EA0605CCE791
:1058AC00626901258D402A43D0E7A26901258D400C
:1058BC002A43D4E7236901228A401343D8E742687C
:1058CC0011F0010F17D1C1F34203012B04D0022BAD
:1058DC000BD06FF01500704713684FF0CC72C3F803
:1058EC002425036959620020704713684FF0C86281
:1058FC00C3F82425F5E76FF01500704710B5044682
:10590C00002201210320FBF7E1FD2046FCF7D2FD2C
:10591C0010BD10B50446002201210420FBF7D6FD72
:10592C002046FCF7C7FD10BD43681B684FF02001F3
:10593C00EFF3118281F31288BFF36F8FD3F820112C
:10594C0031B10021C3F82011D3F820110121D96005
:10595C0082F31188BFF36F8F704738B504464368E4
:10596C001D68D5F8043313F4807F03D0D5F82031AB
:10597C00002B39D163685B6813F0100F1AD04FF00D
:10598C002003EFF3118283F31288BFF36F8FD5F8E6
:10599C00583113B10023C5F800352369DB680BB10E
:1059AC001B691BB94FF48003C5F8083382F31188C7
:1059BC00BFF36F8F2369DA68AAB1D5F8581121B1FA
:1059CC0000211161DA68927B8AB9D5F8242122B1C1
:1059DC000022C5F82421D5F82421DA68136813B104
:1059EC0051682046984738BDFFF79EFFC2E74FF439
:1059FC008002C5F80823DB689973F4E74B79012B17
:105A0C0042D130B583B005460C468B79032B3FD180
:105A1C00CB7933B1012B0ED06FF08503184603B050
:105A2C0030BD00238DF80430237983B1022B27D0AD
:105A3C006FF08503F2E743685B6803F0010203F043
:105A4C000203134327D001238DF80430ECE7002325
:105A5C008DF8053021682846FCF742FD0346E8B96D
:105A6C006A6811689DF805209DF804000243C1F88E
:105A7C006C252A69043294E8030082E80300CDE720
:105A8C000E238DF80530E5E76FF085031846704757
:105A9C006FF08503C2E76FF08503BFE76FF08503F6
:105AAC00BCE70B4602699168506883E8030000204C
:105ABC00704743681B68D3F88004C3F880047047B0
:105ACC0043681A685B6803F00803D2F8581129B9C7
